:1000000000060020D9040000E9040000E904000013
:1000100000000000000000000000000000000000E0
:10002000000000000000000000000000E9040000E3
:100030000000000000000000E9040000E9040000E6
:10004000E9040000E9040000E9040000E9040000FC
:10005000E9040000E9040000E9040000E9040000EC
:10006000510E0000E9040000F1100000E904000056
:10007000E9040000E9040000E9040000E9040000CC
:10008000E9040000E9040000E9040000E9040000BC
:10009000E9040000E9040000E9040000E9040000AC
:1000A000E9040000E9040000E9040000E90400009C
:1000B000E9040000E9040000E9040000310E00003A
:10040000FFFFFFFFFFFFFFFFFFFFFFFFFE3DFFFFBF
:1004100010B5064C2378002B07D1054B002B02D0DA
:10042000044800E000BF0123237010BD98FEFF1FA9
:1004300000000000803E0000044B10B5002B03D0EC
:100440000349044800E000BF10BDC04600000000A2
:100450009CFEFF1F803E0000402292029A1A9246A4
:100460007047C046174B002B00D1134B9D46FFF73A
:10047000F3FF00218B460F461348144A121A02F06C
:1004800063FA0E4B002B00D098470D4B002B00D089
:1004900098470020002104000D000D48002802D0DC
:1004A0000C4800E000BF02F021FA2000290000F013
:1004B000CFFB02F005FAC046000008000000000073
:1004C000000000000006002098FEFF1F90FFFF1FA5
:1004D000000000000000000072B601F0EFF801F02B
:1004E000FFF862B6FFF7BEFF00480047E9040000CE
:1004F0000023C25C0133002AFBD1581E7047000064
:1005000003B47146490840004900095E49008E4421
:1005100003BC704703B47146490840004900095ABA
:1005200049008E4403BC7047002243088B4274D3B9
:1005300003098B425FD3030A8B4244D3030B8B42E4
:1005400028D3030C8B420DD3FF22090212BA030CED
:100550008B4202D31212090265D0030B8B4219D3CE
:1005600000E0090AC30B8B4201D3CB03C01A5241EE
:10057000830B8B4201D38B03C01A5241430B8B4236
:1005800001D34B03C01A5241030B8B4201D30B031F
:10059000C01A5241C30A8B4201D3CB02C01A524146
:1005A000830A8B4201D38B02C01A5241430A8B4209
:1005B00001D34B02C01A5241030A8B4201D30B02F2
:1005C000C01A5241CDD2C3098B4201D3CB01C01A0C
:1005D000524183098B4201D38B01C01A5241430916
:1005E0008B4201D34B01C01A524103098B4201D304
:1005F0000B01C01A5241C3088B4201D3CB00C01A71
:10060000524183088B4201D38B00C01A52414308E8
:100610008B4201D34B00C01A5241411A00D201460D
:10062000524110467047FFE701B5002000F0F0F896
:1006300002BDC0460029F7D076E7704703460B435A
:100640007FD4002243088B4274D303098B425FD3CB
:10065000030A8B4244D3030B8B4228D3030C8B42F7
:100660000DD3FF22090212BA030C8B4202D31212DD
:10067000090265D0030B8B4219D300E0090AC30BB2
:100680008B4201D3CB03C01A5241830B8B4201D35F
:100690008B03C01A5241430B8B4201D34B03C01A48
:1006A0005241030B8B4201D30B03C01A5241C30AC0
:1006B0008B4201D3CB02C01A5241830A8B4201D331
:1006C0008B02C01A5241430A8B4201D34B02C01A1B
:1006D0005241030A8B4201D30B02C01A5241CDD2C0
:1006E000C3098B4201D3CB01C01A524183098B420B
:1006F00001D38B01C01A524143098B4201D34B01F4
:10070000C01A524103098B4201D30B01C01A524156
:10071000C3088B4201D3CB00C01A524183088B42DD
:1007200001D38B00C01A524143088B4201D34B00C6
:10073000C01A5241411A00D2014652411046704738
:100740005DE0CA0F00D04942031000D3404253403D
:1007500000229C4603098B422DD3030A8B4212D3FD
:10076000FC22890112BA030A8B420CD3890192112F
:100770008B4208D3890192118B4204D389013AD06C
:10078000921100E08909C3098B4201D3CB01C01A41
:10079000524183098B4201D38B01C01A5241430954
:1007A0008B4201D34B01C01A524103098B4201D342
:1007B0000B01C01A5241C3088B4201D3CB00C01AAF
:1007C000524183088B4201D38B00C01A5241D9D2C7
:1007D00043088B4201D34B00C01A5241411A00D248
:1007E0000146634652415B10104601D34042002B44
:1007F00000D54942704763465B1000D3404201B5C3
:10080000002000F005F802BD0029F8D016E7704777
:100810007047C046F0B5CE46474680B507009946BA
:100820003B0C9C4613041B0C1D000E00614600048B
:10083000140C000C45434B4360436143C0182C0C1F
:1008400020188C46834203D980235B029846C44417
:10085000494679437243030C63442D042D0CC91897
:10086000000440198918C0BCB946B046F0BDC04666
:100870000A4A0300116810B5002901D10849116026
:1008800010680849C3188B4206D902F013F80C23EC
:1008900003600120404210BD1360FCE7B4FEFF1F5F
:1008A00090FFFF1F9001002037B585256D000400E3
:1008B000280001F00DF90C2001F00AF9FA23074A8B
:1008C0009B00147000210193012308000093044B46
:1008D00001F0F6FD280001F0EDF837BDD9FEFF1F4D
:1008E000B8FEFF1FF0B5002705000E008DB03900DF
:1008F0001C2205A802F028F8691C04ACC9B2617278
:10090000E172B11CC9B2039165702A1D2173A91C43
:100910000335EDB26576E57685252120E270FF226C
:10092000731CDBB2A3702371A374F31C23756D00D9
:10093000039BC9B220702072207420762800627157
:1009400062736174E174627523776277A672A6762A
:1009500001F0BEF80C2001F0BBF8FA239B000193D4
:1009600020232200390000933800044B01F0A8FD39
:10097000280001F09FF80DB0F0BDC046B8FEFF1F83
:10098000F0B506000D0087B00021170004A808226A
:1009900001F0DAFF244BEA1C1978B01E331D03ACBA
:1009A000DBB2D2B281422BDBF01D814228DC1F4931
:1009B000A81E0978814223DB681D814220DC2521A5
:1009C000A570052521706670E3702271642000F027
:1009D00069FF8520400001F07BF80C2001F078F8D9
:1009E000FA2300219B002200080001930095104B80
:1009F00001F066FD8520400001F05CF807B0F0BD15
:100A00002321EF192271FAB22170A2710231013A49
:100A1000A570657266700C25E3706671E1712672CF
:100A2000A372E272D2E7C04632FEFF1F33FEFF1F01
:100A3000B8FEFF1FF0B589B002930EAB1B7817000C
:100A400006000D000922002105A8039301F07CFF98
:100A5000252304AC23706B46197A039BF8B2002B54
:100A60002BD13300083B63702B00083BA37033008D
:100A70000833E3702571A671212336188520637130
:100A8000E571DE336D18400023732672657201F044
:100A90001FF80C2001F01CF8FA239B0000210193A1
:100AA0000D232200080000930B4B01F009FD852067
:100AB000400000F0FFFF09B0F0BD331A6A1ADBB244
:100AC000D2B2002F04DA6670A570E3702271D2E70B
:100AD0006370A570E670F9E7B8FEFF1F30B52525F5
:100AE00085B002AC2570CB1A851AEDB2DBB2002AB4
:100AF0001BDA6070A170E57085204000237100F062
:100B0000E7FF0C2000F0E4FFFA239B000021019393
:100B10000523220008000093064B01F0D1FC85203C
:100B2000400000F0C7FF05B030BD6570A170E070F7
:100B3000E2E7C046B8FEFF1F10B580246400200025
:100B400000F0C6FF642000F0ADFE200000F0B2FF10
:100B5000AE20FFF7A9FEA020FFF7A6FE7220FFF748
:100B6000A3FEA120FFF7A0FE0020FFF79DFEA2201C
:100B7000FFF79AFE0020FFF797FEA420FFF794FEF0
:100B8000A820FFF791FE3F20FFF78EFEAD20FFF774
:100B90008BFE8E20FFF788FEB020FFF785FE0B202E
:100BA000FFF782FEB120FFF77FFE3120FFF77CFECA
:100BB000B320FFF779FEF020FFF776FE8A20FFF7DB
:100BC00073FE6420FFF770FE8B20FFF76DFE782028
:100BD000FFF76AFE8A20FFF767FE6420FFF764FED6
:100BE000BB20FFF761FE3A20FFF75EFEBE20FFF755
:100BF0005BFE3E20FFF758FE8720FFF755FE0620DC
:100C0000FFF752FE8120FFF74FFE9120FFF74CFEC9
:100C10008220FFF749FE5020FFF746FE8320FFF7B2
:100C200043FE7D20FFF740FE2520FFF73DFE00201C
:100C3000FFF73AFE0020FFF737FE5F20FFF734FE94
:100C40003F20FFF731FEAF20FFF72EFE10BD000062
:100C5000F0B50024674BBDB0089304AB9C829C7533
:100C60000FAB30930AABB4212F936423624A3293C3
:100C70000F92624A473B1092614A2000119204AAE7
:100C800052181380A82204AB9B181C7001F0C6FFF9
:100C900001F044FF00F031FA06230126FF331293DE
:100CA000584B28222100764224A8139380251496BD
:100CB000159401F049FE0C2385226D0022A95200F3
:100CC000229312A80B3B23932592269328952993D0
:100CD0002B9600F0D5FE4C4B4C4A1D604C4B1D60D2
:100CE0004C4B1D60C0239B0013604B4AEC3D1360CE
:100CF00000F0E6FD2EA800F0E5F816A9200001F0AE
:100D00003BFB200007AA08A901F080FBFFF714FFB6
:100D1000039401F033FF5C21FFF776FDCBB218009E
:100D200000210593FFF7DEFD0023049302220499BE
:100D30000598FFF725FE049B0CAE0233DBB204934B
:100D40002F9B31005B682EA8984770886421C0BA39
:100D5000FFF774FC5A30072100B2FFF76FFC012740
:100D60002E4B4000C6561B18DF570023320000935D
:100D70003F213B002F20FFF75DFE294B1A78002A08
:100D80000BD000221A703200264B2F321A703A0014
:100D90003C00254B3F321A700396244B1B78012BE5
:100DA0001ED1214E1F4F31783878039A00932300CB
:100DB000FFF740FE3878039B3178C018C0B20300BB
:100DC0000919C9B2083B387031704E2B01D8072978
:100DD00006D80022154B1A702300039AFFF77EFEF7
:100DE000049B3E2BA2D1013DEDB2002D91D12800F4
:100DF0003DB0F0BD80969800B11C0000471F000078
:100E00002D1F00000100000A30901454209014544B
:100E100028A0145400A014542490145400FEFF1F62
:100E2000D8FEFF1F32FEFF1F33FEFF1FF9FEFF1F1C
:100E3000062010B5FF3000F059FE0123024A13705E
:100E4000024A137010BDC046F9FEFF1FD8FEFF1FF7
:100E500010B5002000F05CFE10BD0300172270B535
:100E60001F2588B09E680024C8236A4411700100C1
:100E70006D4400782C700293C73B0193009576680F
:100E80000C31B047A04200D12C78200008B070BDD2
:100E900030B5030016241000172287B06C446A4452
:100EA0009D681170207019001878C8230293C73B01
:100EB00001930094AC680C31A047431E9841404216
:100EC00007B030BD70B500250400A84203D1184812
:100ED00000F084F9013DA368002B05D1154800F00E
:100EE0007DF901256D421CE0002DFAD121001B681F
:100EF0001431207898470D212000FFF7AEFF010044
:100F00001A2805D0C7280ED00B4800F067F9E8E78B
:100F10000A4A63681A600A4A5A60636820001B68BC
:100F20009847280070BD074A63681A60064AF3E7CD
:100F30007C3B0000913B0000AD3B00003D100000F9
:100F4000991000004D0F00002F10000070B5040034
:100F5000264800F043F9264800F040F940222B21B2
:100F60002000FFF795FF234DC046013D002DFBD12A
:100F70002A212000FFF771FF0126B0432A21C2B2C7
:100F80002000FFF785FF2A212000FFF766FF30428F
:100F900005D0194800F022F93500280070BD2A005C
:100FA00009212000FFF774FF02222B212000FFF708
:100FB0006FFF5F225B212000FFF76AFF20225C2188
:100FC0002000FFF765FF32000E212000FFF760FFD1
:100FD0002A2109222000FFF75BFF2A212000FFF7CA
:100FE0003CFF3042D9D10548D4E7C046DF3B000082
:100FF000F63B0000FFFF00000A3C00002C3C000014
:1010000070B51500172286B004006A44C826117016
:101010000100A4680078019302960095012364689A
:101020000C31A047431E9841C0B206B070BD10B548
:101030000A000C230121FFF7E3FF10BD70B52A2140
:1010400004000125FFF709FFA843C2B22A212000AE
:10105000FFF71EFF0E212000FFF7FFFEFC220240DB
:101060002A430E212000FFF713FF09212000FFF77C
:10107000F4FE3F22092102402000FFF709FF2A2148
:101080002000FFF7EAFEFD2202402A432A21200029
:10109000FFF7FEFE002070BD70B505000C00081EB5
:1010A00025D0082600212800FFF7D7FE3042F9D0CE
:1010B00001212800FFF7D1FE022120702800FFF750
:1010C000CCFE032160702800FFF7C7FE0421A0704A
:1010D0002800FFF7C2FE0521E0702800FFF7BDFEE3
:1010E000062120712800FFF7B8FE6071012070BD55
:1010F00010B5002001F012F910BD10B5002000F06D
:1011000017FC012000F014FC002000F005F800207E
:1011100000F010F810BD0000002805D18023034A1C
:101120009B001360024A13607047C0460CA0145421
:1011300010A01454002809D1C023054A9B00136055
:10114000044A1360044A1360044A13607047C0469F
:1011500014901454189014541C90145400A0145457
:1011600013B56B46D91D074B08701A78002A05D0B5
:10117000586801229C68A047002016BD012040420B
:10118000FBE7C046FCFEFF1F70B5140000290CD021
:101190000138012809D8064B1A78002A05D0220008
:1011A0009D685868A847200070BD01246442FAE792
:1011B000FCFEFF1F70B51400002809D1064B1A78F9
:1011C000002A05D02200DD685868A847200070BDBD
:1011D00001246442FAE7C046FCFEFF1F0FB41FB5AE
:1011E0000A4B1B78002B0DD0012207AB0393009311
:1011F0000020069B0649524200F05CF805B008BC8E
:1012000004B0184701204042F8E7C046FCFEFF1F2B
:1012100061110000F7B51D0008AB04001878002329
:1012200023709A4218D0086801263027984204D1CA
:101230003023012263701000FEBD2900FFF7E4FA9D
:101240000A0003003032002900DA7A1AA25532006F
:101250000136002BF1D1EEE70F68002FE8D06123B3
:10126000002800D0203B01260A3B019338002900CA
:10127000FFF7E0F9030038001F00019B5B18092904
:1012800001D80B0030333200A35501368542EDD929
:10129000D1E7F8B507000C0016001D00B44200DBD2
:1012A000F8BD069B3800079998472B680134013335
:1012B0002B60F3E7F0B599B0049300230C9313006F
:1012C00007001E9C039109920B92013301D1B54B8B
:1012D0000B93049B1878002807D10B9B002B01D09F
:1012E0000C9B0993099819B0F0BD3900252800D04E
:1012F000D9E1002310210420029308E00125029B7C
:101300002B4358E00223029D1D4302950492049B47
:101310005A1C5B782B2BF5D052D8202B49D0232B8D
:101320004BD000230A200593049A049B5278013382
:101330001100303909294AD92E2A05D104935A7847
:101340000133303A092AF9D9049A049B52780133BF
:10135000682A43D06C2A48D04C2A4BD15A1C5B785F
:10136000049218005838202800D99AE1FFF7D2F8E3
:10137000F300990199019901990199019901990144
:10138000990199013E01590144009901990199017E
:1013900099014400990199019901990194011C0155
:1013A000450199019901670199014D01990199013F
:1013B0009500029B03430293A8E7029B0B43FAE7C5
:1013C0002D2B9BD0302BACD10825029B98E705999B
:1013D0000493414330398A180592A5E7049A92781C
:1013E000682ABBD1049B0233B8E7049A92786C2A2E
:1013F000B4D1F7E7049BB1E7250008CD01220D9396
:1014000001230DA900930FA80933FFF703FF0FABCA
:101410001B1807930D9B0400002B19DA2D260134AD
:101420000822029B134222D0002E06D0039B3900D3
:10143000300098470C9B01330C93039B21000093D1
:101440003020059A01970CABFFF723FF059C70E055
:101450000223029E029A1E401A4202D02B26013419
:10146000DEE7029B5B07DBD520260134D8E70122AB
:10147000029B134208D1039B210000932020059A70
:1014800001970CABFFF705FF002E52D0390030005A
:10149000039B98470C9B013381E0002325000693B2
:1014A00008CD00220E93069B0EA900930FA81023CF
:1014B000FFF7B0FE8446102608220FAB6344079363
:1014C000029B08901E40134247D000230A939E427D
:1014D00010D0039B390030209847069B5820002BE2
:1014E00000D12030039B390098470C9B02330C93AA
:1014F00001230A93039B059C009322003020089946
:1015000001970CABFFF7C5FE002E12D00A9B002BF3
:101510000FD1039B390030209847069B5820002BA1
:1015200000D12030039B390098470C9B02340233D2
:101530000C93079B187800286ED10122029B13425E
:1015400078D02100039B059A009301970CAB2030C3
:10155000FFF79FFE6EE00123A0E70122029B089C9B
:10156000134200D0A6E0002E00D00234039B2100DD
:1015700000932020059A01970CABFFF78AFE002EFE
:10158000D7D0039B390030209847069B7820002B4A
:1015900000D02038039B390098470C9B02330C93F2
:1015A000C7E7C046FEFFFF7F250008CD0E9301234D
:1015B0000093073300220EA90FA8FFF72BFE082285
:1015C0000FAB1B180793029B0400134200D034E7B3
:1015D0000122029B1342ACD1039B01000093202007
:1015E000059A01970CABFFF754FEA2E7250008CD42
:1015F0000E9301230093DB18DCE7636825000E934C
:101600000123083500930F33D4E7250008CD0E934E
:10161000012300930933CDE7079B3900013B079372
:1016200036E7250001CD039B3900C0B298470C9BDB
:1016300001330C93049B2C000133049349E62500ED
:1016400010CD002CF6D02000FEF752FF0122029BA5
:10165000060013400693029B134208D1039B01002E
:1016600000932020059A01970CABFFF712FE20781B
:10167000002809D1069B002BDCD0039B310000938E
:10168000059A01970CAB62E7039B390098470C9BC6
:10169000013401330C93EAE725000C9A08CD1A6057
:1016A000C8E739001800039B98470C9B25000133BD
:1016B0000C93BFE7002E00D02BE73AE70823064A39
:1016C0009178194202D091780B43937088230021BE
:1016D000024A5B01D150704700D0074000700440BF
:1016E0001249134810B5814205D00022114B9B08C6
:1016F0009B009A420FD1104B104A99600023104969
:101700001048521A9A420AD100210F4B0F4AD21A9E
:10171000013A08D210BD84588C500432E9E7CC5C01
:10172000C4540133EEE719700133F1E70000000003
:10173000000000000000000000ED00E0403F00005D
:10174000A83E000000FEFF1F98FEFF1F90FFFF1F36
:10175000F7B501240C4B00251C606B460B4F0C4E5B
:101760001C705C7038003560009900F07AFD01ABA8
:101770001D705C703800019900F058FD98204005FC
:10178000384305603460F7BD3880045000000440E1
:10179000000004500300081A994202D280235B0221
:1017A000C01870470300417000201870586098609E
:1017B000704710B5437804000120FF2B08D000F0DB
:1017C000D9F863780133DBB2637000F0C7F800200A
:1017D00010BD70B504000D0000F0CCF8E16829439D
:1017E000E16000F0BBF8002070BD000000220A4B51
:1017F0009A641A0040329A631A0030329A621A00D0
:1018000020329A611A0010329A60044A1360044B25
:101810009B60DB607047C04610FFFF1F0CFFFF1F7F
:1018200060FFFF1F10B5024800F028FD10BDC04644
:101830000000044070B5437804000D00DEB2002BB8
:101840000BD0002500F096F86378013BDBB26370A3
:10185000257000F083F8280070BD02200029FBD01D
:101860002378002B11D0FFF7DDFF01006068A56829
:10187000FFF790FF854201D30320EDE700F07AF8EF
:10188000267000F06BF80220E6E74B1CF4D000F065
:1018900071F80123237000F061F8FFF7C3FFA56022
:1018A0006060E9E770B50400FFF7BCFF0500FFF7D3
:1018B000B9FF01002800FFF76DFFA042F7D970BD06
:1018C00010B5FFF793FFFFF743FF002010BD0000A6
:1018D000F821084A43099B009B180905C2050A40E4
:1018E00013438022520513431F2210401E3A8240A8
:1018F0001A6070472880044010B5054800F0EAFCE3
:10190000044B1968C9B20131FEF70EFE10BDC04686
:101910000040064044801C5E10B5FFF7EDFF034B0E
:101920001968C9B20131FEF7FFFD10BD448014589B
:1019300010B5024B185CFFF7CBFF10BD4D3C00000B
:101940008022024BD2031A607047C0463480045B89
:1019500010B56620FFF7BCFF10BD0000044A1368F5
:10196000002B04D0013B1360002B00D162B67047FE
:1019700070FFFF1F72B6024A13680133136070478D
:1019800070FFFF1FF7B5FF2703681E4A1E0A3E407F
:101990001F40B3009A58050001921B4A30009C5822
:1019A000FFF7C6FF8022BB00E418184B5200234308
:1019B0001A6039000022019800F05EFE84232A7923
:1019C0005B05234352001A6080236A795B05234339
:1019D0001A609023AA795B05234312011A60EA7901
:1019E0000B4B1C4313042360002A0AD0094B9B575E
:1019F000002B06D01F2213401E3A9A401300064ABD
:101A00001360F7BD603C0000683C0000000010144B
:101A100000001818703C000000E100E0F8B5FF2558
:101A200003680400180A2840124A1D4083009F588A
:101A3000114A9E58FFF77CFF8022AB00F6180F4B2F
:101A400052003343290038001A60FF3A00F014FEB8
:101A500029003800626800F01EFE8823227A5B05A8
:101A6000334392001A6098235B051E43637A9B01FF
:101A70003360F8BD603C0000683C000000001014BA
:101A800070B50C00002807D1002C0FD170BD0500E7
:101A90000835FFF777FF280003680133F7D1F3E734
:101AA000250020000C35FFF7B9FF2C002368013317
:101AB000F6D1EBE7FF22030A044913409B00595873
:101AC0000123104083404B607047C046603C0000DB
:101AD000FF22030A044913409B0059580123104078
:101AE00083408B607047C046603C0000FF22030AC1
:101AF00013401040054A9B009B5880001B18E020B3
:101B00004005184380235B0403607047683C000075
:101B100010B5094B8200D358DA78D20602D500F00E
:101B20001FFA10BD94220233520513431B78002B79
:101B3000F5D100F079FAF4E7503C00000200802370
:101B40000C325B0513431A78002AFCD001717047F0
:101B500070B50D00084B8000C458200029001830D3
:101B6000FFF768FE0328F8D0002801D0042323746F
:101B7000207CC0B270BDC04674FFFF1F10B5104B73
:101B80008000C458E37C002B05D0237C052B02D0B9
:101B9000237C042B0BD10B4B18589823821C5B051C
:101BA000134300221A7000F0E5FD01236374A37C47
:101BB000002B03D020001830FFF7FBFD10BDC046FE
:101BC00074FFFF1F503C0000F0B51700002289B0E1
:101BD00005930EAB1B7805000393830032481E5813
:101BE00032481C5807AB1A80A37C880A049302234E
:101BF000FF3363828B0A0193CBB21E2801D11A00F6
:101C00000B0A5B00D8B2019B00211E2B05D08F422E
:101C100003D1012303995B1A59B20143CBB202935A
:101C20000299019807AB197001211E2801D15A7041
:101C30004918A3603000E1600299FFF77FFF280098
:101C40000F99FFF785FF237C002B0CD1002F0AD0C2
:101C5000059BA760E36030003978FFF76FFF28002D
:101C60000F99FFF775FF237C039A1A4314D1019B48
:101C70001E2B01D0002F0FD0002301273000A360BE
:101C8000E76000F065FD029930003943FFF756FF29
:101C900028000F99FFF75CFF0023E374049BA374F3
:101CA000237C09B0F0BDC046503C000074FFFF1F0C
:101CB000F7B583000193184B8200D75805000C003C
:101CC0000126002F26D1154B3900D358200024229D
:101CD000019300F039FE200039001830FFF762FD53
:101CE0002800FFF735FE019800F0DDFC0A4BAA0042
:101CF000D4501F220A4B5B5D134032009A40094BBF
:101D00001A609C22019B52050233134380226674A1
:101D10003E001A703000FEBD74FFFF1F503C0000F3
:101D2000543C000000E100E00A4B800070B5C5584B
:101D30004B686A690C0093420BD0074BC658FFF7FB
:101D4000EBFD002301006268300000F0BBFC63681B
:101D50006B6170BD74FFFF1F503C0000F0B589B08F
:101D6000079311AB1B780692334A049383009C5867
:101D70000591627C07000320002A55D0049A002AAE
:101D800001D11E32109200262C4AE660D558049BE1
:101D9000380005992674A374A66026606674FFF760
:101DA000C3FF90231021AA1C5B0513431970022363
:101DB000EB7098235B05134303934023039A280099
:101DC000137000F0C5FC059B069A1988109B38001B
:101DD000019301230093079BFFF7F6FE237CDAB201
:101DE0000592B34222D10E9B2800A3600F9BE360B3
:101DF0000E9B1978FFF7A2FE049BB34212D0380065
:101E00001099FFF7A5FE04280CD1039B059A1A70C0
:101E10000122EB785B09134202D0280000F0AAFCF3
:101E200001236374207CC0B209B0F0BD237C042B75
:101E3000F8D1039B1E70EBE774FFFF1F503C0000BE
:101E4000F0B589B0079311AB1B780692354A03931E
:101E500083009C580591627C06000320002A58D01C
:101E6000039A002A01D11E32109200272E4A0599AA
:101E7000D5580E9B300023600F9BA7606360039BC7
:101E8000E760A37427746774FFF74EFF9023AA1CC2
:101E90005B051A43102313700E3BEB7098230492DA
:101EA0005B05AA1C1A43402328001370029200F01D
:101EB0004FFC059B069A1988109B300001930097F0
:101EC000079BFFF781FE237CDAB2BB4223D1049B40
:101ED000A91C1A708C235B050B430F99012900D1B3
:101EE00008221A702B79039B002B10D03000109918
:101EF000FFF72EFE04280AD10023029A1370EB7814
:101F00009B0602D5280000F035FC01236374207C79
:101F1000C0B209B0F0BD237C042BF8D1029B1F7026
:101F2000EDE7C04674FFFF1F503C00001FB50124C1
:101F30000394089C0294079C0194069C0094FFF76C
:101F40000DFF04B010BD1FB501240394089C02943A
:101F5000079C0194069C0094FFF772FF04B010BD2B
:101F60002F4AF8B583009D580222EA702D4A0127B6
:101F70009C589022AB1C52051A431278E978D2B2D1
:101F800009090E003E40394210D01022EA70083A8A
:101F9000227498225205134300221A70A37C9342A4
:101FA00003D020001830FFF704FCF8BDE978490998
:101FB0003942FAD094214905194309780029F4D00F
:101FC000012A14D1EB78134204D005232374FFF7C0
:101FD000D5FDEAE7E368013BE360002BF7D0A36897
:101FE00028005A1CA2605978FFF7A8FDDDE7626857
:101FF000013A6260002A06D08C214905012A0AD0E4
:102000000B431E7001E0FFF7B9FD23685A1C2260E4
:102010002A791A70C9E708220B431A70F5E7C046FF
:10202000503C000074FFFF1FF0B57E4B8200D65875
:1020300087B0F7780500FBB2059390235B05180085
:10204000B11D084302900078C0B20490942040056E
:1020500008430778F8B200909820400508430178BB
:102060008446C9B20391704902205458B21C1343EC
:102070001978C9B20191002F31D0049900290BD0F1
:102080001023029A1370F070236B002B25D00121CE
:10209000626BE8B2984720E0039900291FD04023E3
:1020A00061460B702300F0702C331B78002B03D19A
:1020B000982149050A431370236B002B03D080211C
:1020C000626BE8B29847E37D002B04D020008021AA
:1020D0001830FFF77EFB0023A38207B0F0BD0599FF
:1020E000F0708F110120390001408C46074238D032
:1020F000F278920811000140024228D010221A7092
:10210000236B002B03D00221626BE8B2984763680F
:10211000002B00D183E030008022E3680C305205B0
:102120001978024310780028FCD031710133E36044
:102130006368013B63606368002BCED1E360237565
:10214000236B002BC9D01021626BE8B2A2E7197093
:10215000236B002B03D00421626BE8B298473379DC
:10216000BBE70199012926D1F0780842CFD061461A
:102170001970337923002C331B78002B07D1009B77
:10218000002B04D198235B051A43009B1370236B2B
:10219000002B03D00821626BE8B29847A37D002B87
:1021A00004D0200008211830FFF713FB00236360E0
:1021B000E360237591E73379A168DBB200292BD066
:1021C00021690B70236901332361A368013BA3607C
:1021D000A368002B00D080E7009B002B11D12300C7
:1021E0002C331B78002B04D198235B051A43009BEA
:1021F0001370E37D002B04D0200020211830FFF75E
:10220000E8FA002363752361236B002B00D164E798
:102210002021626BE8B23DE7072323705DE70623C8
:10222000FBE7C046503C000074FFFF1F37B501912B
:10223000BE2102240825036801AA8B4319001378E4
:102240005B0023409478E4002C4023435478D278F8
:10225000A400234330241201224013430B430360A4
:1022600037BD8B05CAB292009B0F13437822490BEE
:10227000114082B00B43436002B070470300034833
:102280000C33184300230360006870470000781087
:1022900084225205024312780300D0B2002A05D1ED
:1022A000094A991D0A431278012A0CD18020013372
:1022B000400503431878013843425841034B4042DC
:1022C0001840034BC018704700000811808D5B0058
:1022D00080841E0010B50D4B821D13431A78040034
:1022E000D3B2002A0FD0012B07D1FFF7D1FF084B43
:1022F00008341C432378D84010BD0020022BFBD1AA
:10230000044B1868F8E70448F6E7C04600000811D7
:102310000000901078FFFF1F006CDC0210B5064B28
:102320008200D358DB78DB0602D500F0F5F810BD4B
:1023300000F056F9FBE7C046583C000070B5002598
:102340000B4B8000C4580B4B2A00C65801213000AB
:10235000257100F09AFA2A000221300000F095FA67
:10236000237FAB4203D020002030FFF722FA70BD5C
:102370007CFFFF1F583C0000F7B50D0006008300EE
:1023800001931E4B8200D75800213022280000F014
:10239000DBFA3000FFF7D4FAFFF7BEFA2860380006
:1023A00000F001FA280000212030FFF7FBF9041E9D
:1023B00022D1FB1C01939023FA1C5B0513431022CE
:1023C00003211A70380000F02CFA2100380000F0C8
:1023D0004DFA0B4BB200D5500A4B9A5D1F231A40A1
:1023E0001E3B9340084A13609823019A5B051343F0
:1023F00040221A702000FEBD0C24FBE7583C000070
:102400007CFFFF1F5C3C000000E100E00A4B800005
:1024100070B5C658094B0C00C358150030001A6837
:10242000096800F0C7F92860A37930006279217942
:1024300000F009FA70BDC046583C00007CFFFF1F49
:10244000F7B51D4A83009C58050022790420002A14
:1024500016D11A4A9E58002903D0280001AAFFF776
:10246000D5FF9823F21C5B0513430021402219700D
:102470001A7027698F4204D12800FFF75FFF002000
:10248000FEBD01222271A161337807205B0913424E
:10249000F6D0A3681A1E02D01A780133A360B27175
:1024A000012223691100013B2361A369300001333C
:1024B000A36100F0EAF9E2E77CFFFF1F583C00004F
:1024C000F8B5134F134C85002C59ED590127069E82
:1024D0002777A2602661E3606661FFF7B1FF0028FD
:1024E00015D1200007992030FFF7A4F90328F8D070
:1024F00000280CD00026012132002800267100F0AF
:10250000C4F928003200022100F0BFF90320F8BD11
:10251000583C00007CFFFF1F10B51B4B8200D358B6
:10252000197900292ED0194951585A69002A0ED01C
:102530000A78D2090BD08A79DC68D2B2002C03D099
:102540002270DA680132DA605A69013A5A611A690E
:10255000002A0FD00A7892060CD59A68141E02D071
:10256000147801329A608C711A69013A1A619A6979
:1025700001329A611A69002A04D15B69002B01D1EA
:10258000FFF7DCFE10BDC0467CFFFF1F583C00007B
:1025900070B50025104B8000C458104B2A00C65857
:1025A000631CDD7701213000E562257025836562BB
:1025B000A562256300F069F92A000221300000F0CD
:1025C00064F9230038331B78AB4203D00121201D6E
:1025D000FFF7FFF870BDC0467CFFFF1F583C0000AE
:1025E00070B5234A83009C580600621CD27F002AE3
:1025F0003CD0204A9D58E36A002B14DB2B789B06C5
:1026000011D5E369DAB2636A002B05D0E16A0029CB
:1026100002DD1A7801336362AA71E36A013BE36267
:10262000636B01336363E36A002B04DA0022022147
:10263000280000F02AF9236B002B0EDD2B78DB0934
:102640000BD0AB79A26ADBB2002A03D01370A36A65
:102650000133A362236B013B2363E36A002B05DC98
:10266000236B002B02DC3000FFF792FF70BDC046E9
:102670007CFFFF1F583C0000012314308B40012ACF
:1026800004D1802212051043036070478022D204D7
:10269000DB431043F8E701238B40002A01D043605D
:1026A00070478360FCE70023C2220370437083708D
:1026B000C37043718371C371037242728372C372B8
:1026C00070470000F0B5002487B00293FA2301267A
:1026D000270025009B00534303900491009301942D
:1026E0007642AB000593194BAA009B1859880498B1
:1026F000A140FDF719FF009B009AC31A824200D93E
:10270000131AB3421FD2114AA900525C270001924A
:10271000002B02D00135322D13D10134032C01D00E
:10272000002B0DD1029A002A00D013603F2201999C
:10273000BB0111400B43039ADBB2537007B0F0BDED
:1027400000251E00CDE73300E4E7C046723C0000E0
:10275000942302305B0503431B78002B05D08823AC
:102760005B05184304230370704780231B0518433F
:102770003023F8E78023811CDB040B43CF2110B505
:102780001970802102000124C900D3785B09180068
:102790002040234200D110BD0139002901D0C0469C
:1027A000F3E70920F7E70423C37000238370437025
:1027B00003717047F0B5130B89B001260493082309
:1027C0000024764202939B1907900591069201938B
:1027D00002270025631C0393039906987943FDF7AC
:1027E000A3FE059B834206D31B1A9E4203D91E00FB
:1027F00004900295019401357F00092D0BD0002E25
:10280000EAD1019B029A1B0104981343079ADBB299
:10281000537009B0F0BD072CF3D0002EF1D0039C0B
:10282000D6E7842310B50224C21C5B0513434A007B
:1028300022401A70902300195B0518431023C90029
:102840001940017010BD10B58C2403306405C90017
:102850000443C9B221708821920049050143D2B2D4
:102860000A70802252051043037010BD802301229C
:1028700002305B0503430A401A708C235B05184342
:1028800008238900194001707047032908D1531E9D
:102890009A410230D2019C235B05184302707047B5
:1028A000531E9A410330012901D1D201F3E7942349
:1028B0005201F1E7014B18687047C04634FEFF1F14
:1028C000084B10B50400002B02D0002100E000BF2F
:1028D000054B1868836A002B00D09847200001F050
:1028E0004BF9C046000000003C3D000070B50026DA
:1028F0000C4D0D4C641BA410A64209D1002601F01A
:10290000BFFA0A4D0A4C641BA410A64205D170BD43
:10291000B300EB5898470136EEE7B300EB58984701
:102920000136F2E7A03E0000A03E0000A03E0000FD
:10293000A43E000010B5034B0100186800F078F8C1
:1029400010BDC04634FEFF1F03008218934200D121
:10295000704719700133F9E770B50500002910D0F0
:102960000C1F2368002B00DAE418280000F0B0F9EF
:102970001D4A1368002B05D163601460280000F025
:10298000AFF970BDA34208D9216860188342F3D122
:1029900018685B6841182160EEE71A005B68002B3D
:1029A00001D0A342F9D911685018A0420BD1206878
:1029B0000918501811608342E0D118685B6841180B
:1029C00011605360DAE7A04202D90C232B60D5E7EF
:1029D00021686018834203D118685B684118216040
:1029E00063605460CAE7C04680FFFF1F70B50F4E9A
:1029F0000D0031680400002902D100F0FDF83060BC
:102A00002900200000F0F8F8431C0AD00323C51C5D
:102A10009D43A84207D0291A200000F0EDF8431C7E
:102A200001D101256D42280070BDC04684FFFF1F03
:102A3000F7B50322CB1C9343083306001F000C2B71
:102A400032D20C27B94231D8300000F041F9324D72
:102A50002B681C00002C2ED139003000FFF7C6FF78
:102A60000400431C1ED12C682500002D4AD1236888
:102A70002900E3183000019300F0BEF8019B834267
:102A800043D123680337FF1A03239F4308370C2FD2
:102A900000D20C2739003000FFF7A8FF431C34D0C8
:102AA0002368DF19276013E0002BCBDA0C23002505
:102AB00033602800FEBD2268D11B20D40B2917D912
:102AC000E2192760A34211D12A6063681160536044
:102AD0003000250000F004F907220B35231D954333
:102AE000EA1A9D42E5D05B1BA350E2E75A60ECE78F
:102AF0006268A34201D12A60EAE75A60E8E723004E
:102B00006468A7E72C006D68AFE70C2330003360E2
:102B100000F0E6F8CDE7C04680FFFF1F114B70B50F
:102B20001D680400AB6B002B16D11820FFF702FFC5
:102B3000021EA86304D142210B4B0C4800F088F818
:102B40000B4B002103600B4B43600B4B83600B234B
:102B500083810120106151610022AB6B1C615A61BD
:102B600070BDC04634FEFF1F403D0000573D0000D1
:102B70000E33CDAB34126DE6ECDE0500164B10B50E
:102B80001C68A36B002B16D11820FFF7D3FE021E82
:102B9000A06304D14E21114B114800F059F8114B9C
:102BA00000210360104B4360104B83600B23838133
:102BB000012010615161A46B0D4A206961690D4BC0
:102BC000FDF728FE01220023801859412061616130
:102BD0004800400810BDC04634FEFF1F403D0000C5
:102BE000573D00000E33CDAB34126DE6ECDE050030
:102BF0002D7F954C2DF45158002370B5064D0400DF
:102C000008002B60FDF734FE431C03D12B68002B1A
:102C100000D0236070BDC04688FFFF1F1FB50B4B5F
:102C2000040000226946186800F040F8002804DA21
:102C300001225242D3170092019300980199002C6F
:102C400001D02060616004B010BDC04634FEFF1F9B
:102C500030B514001A00094B05001B6885B0D86810
:102C6000074B002C01D1074B1C00019300912B0056
:102C70000549029400F00AF800F0ECFB34FEFF1F57
:102C8000B13D0000AC3B0000BE3D00000EB403B5FA
:102C9000010003AB044804CB0068019300F050F836
:102CA00002B008BC03B0184734FEFF1F002370B504
:102CB000064D0400080011002B6000F03DFF431C8E
:102CC00003D12B68002B00D0236070BD88FFFF1F4D
:102CD00010B5024800F095FD10BDC0468CFFFF1FE7
:102CE00010B5024800F08EFD10BDC0468CFFFF1FDE
:102CF000936810B5013B9360002B04DA9469A342FA
:102D000007DB0A2905D01368581C106019700800E9
:102D100010BD00F0D1FA0100F9E7F8B506000F0088
:102D20001400D518AC4201D1002007E021783A0008
:102D30003000FFF7DDFF0134431CF3D1F8BD000084
:102D4000F0B5A1B006000C001F000392002804D0CB
:102D50008369002B01D100F0B3FC8E4B9C421CD147
:102D60007468636EDB0705D4A3899B0502D4A06D4C
:102D700000F047FDA3891B0702D52369002B1DD155
:102D80002100300000F0EEFA002817D0636EDB0758
:102D90000DD50120404221B0F0BD7F4B9C4201D1B6
:102DA000B468DEE77D4B9C42DBD1F468D9E7A389A8
:102DB0009B05EED4A06D00F025FDEAE7002308ADE9
:102DC0006B6120336B761033AB760797039F3B78AC
:102DD000002B01D0252B4ED1039BFB1A0593039B9F
:102DE0009F420DD0059B21003000039AFFF795FF0D
:102DF000431C00D1B5E06A69059B944663446B614E
:102E00003B78002B00D1ACE001227B1C0393002314
:102E100052426A6004A9543252182B60EB60AB60D6
:102E20001370AB65039B052219785D4800F058FDCF
:102E3000039B5F1C002820D12A68D30604D55323A6
:102E400004A95B1820211970130704D5532304A982
:102E50005B182B211970039B1B782A2B16D000219D
:102E6000EB68039F3A78781C303A8446092A4FD998
:102E7000002911D117E00137A9E7494B2A68C01A88
:102E80000123834013432B600397CBE7079B191D56
:102E90001B680791002B01DB0B9304E05B42EB60A6
:102EA000022313432B603B782E2B0AD17B782A2BED
:102EB00037D1079B02371A1D1B680792002B2DDBA9
:102EC000099303223978374800F00AFD002807D01B
:102ED000344B2A68C01A40238340134301372B60C8
:102EE00039787B1C062230480393297600F0F8FCE1
:102EF000002845D02D4B002B27D10722079B0733F5
:102F00009343083307936B69049A9B186B615DE7E1
:102F10000A214B4367469B180939A3E701235B420B
:102F2000CEE700231A0001376B603978781C3039FE
:102F30008446092903D9002BC3D00992C1E70A238B
:102F40005A4367465218093BEFE707AB009322004C
:102F500029003000164B00E000BF0490049B0133B1
:102F6000D1D1636EDB0705D4A3899B0502D4A06D84
:102F700000F048FCA3895B0600D50AE70D980AE734
:102F800007AB0093220029003000094B00F082F8C3
:102F9000E3E7C046403E0000603E0000203E0000E7
:102FA000ED3D0000F33D0000F73D00000000000093
:102FB0001B2D0000F7B5150001938A680B690C0002
:102FC0000090934200DA130022002B604332127803
:102FD000002A01D001332B6023689B0602D52B68A1
:102FE00002332B602268062317001F401A4227D0A5
:102FF000230043331B785A1E93412268920630D433
:10300000220001990098089E4332B047431C25D006
:10301000062320682A68E16800250340042B03D1B9
:103020008D1AEB43DB171D40A3682269934201DD33
:103030009B1AED180027BD4220D1002010E0013777
:10304000E3682A689B1ABB42D2DD22000123019962
:103050000098089E1932B047431CF0D1012040422D
:10306000FEBD3020E1184331087021005A1C453163
:103070000978A218433202331170C1E722000123FC
:1030800001990098089E1A32B047431CE6D00137D8
:10309000D1E70000F0B58BB006920A0043320793E7
:1030A000059004920A7E0C00109B782A07D8622AA9
:1030B00009D8002A00D1C1E0582A00D18CE02600AE
:1030C0004236327022E0100063381528F7D8FDF739
:1030D00017FA16001F00F6FFF6FFF6FFF6FF1F00B7
:1030E000F6FFF6FFF6FFF6FFA80036009A00F6FF9F
:1030F000F6FFB900F6FF3600F6FFF6FF9E00260049
:103100001A684236111D1960136833700123A7E055
:10311000086819680A1D05060BD50D681A60002D90
:1031200003DA2D23049A6D421370614B0A2703932F
:103130001BE00D681A604106F1D52DB2EFE70D686E
:103140001968081D18602E0601D50D6803E06D068C
:10315000FBD50D68ADB2564B082703936F2A00D0FC
:1031600002372300002243331A706368A360002BE8
:1031700003DB0422216891432160002D02D1049ECB
:10318000002B0CD0049E28003900FDF753FA039B56
:10319000013E5B5C33702B0005009F42F3D9082F82
:1031A00009D12368DB0706D563682269934202DCF4
:1031B0003023013E3370049B9B1B2361079B21003E
:1031C00000930598069B09AAFFF7F4FE431C4CD117
:1031D000012040420BB0F0BD45310A70344A0392E1
:1031E0001A68216820CA1A60080616D5CB0702D5CE
:1031F0002023194321601027002DB2D120232268FB
:103200009A432260ADE7202209680A432260220027
:10321000782145321170274AE1E74806E6D5ADB27C
:10322000E4E71A680D68101D4969186013682E06D6
:1032300001D5196002E06D06FBD519800023049EBC
:103240002361BBE71A68111D196016680021300060
:10325000626800F045FB002801D0801B6060636855
:1032600023610023049A1370A8E7236932000699AA
:103270000598079DA847431CAAD023689B0715D42F
:10328000099BE0689842A5DA1800A3E72200012311
:1032900006990598079E1932B047431C98D001350E
:1032A000E368099A9B1AAB42F0DCE9E70025F7E7EF
:1032B000FE3D00000F3E0000F8B505000E001400B2
:1032C000002804D08369002B01D100F0F9F9224BCA
:1032D0009C422ED16C68A369A360A3891B0732D5D9
:1032E0002369002B2FD023682269F7B2981A6369EB
:1032F000F6B2834205DC2100280000F03FF90028E7
:1033000027D1A3680130013BA36023685A1C2260C7
:103310001F706369834204D0A389DB0707D50A2E97
:1033200005D12100280000F029F9002811D1300032
:10333000F8BD0A4B9C4201D1AC68CCE7084B9C42DB
:10334000C9D1EC68C7E72100280000F00BF800287D
:10335000C9D001267642EAE7403E0000603E000008
:10336000203E0000374B70B51D6806000C00002D94
:1033700005D0AB69002B02D1280000F0A1F9324B37
:103380009C420FD16C680C23E25E93B211072DD4DE
:10339000D90611D409230120336037331343A381A5
:1033A000404270BD294B9C4201D1AC68EBE7284BF1
:1033B0009C42E8D1EC68E6E75B0713D5616B002916
:1033C00008D023004433994202D03000FFF7C4FAFA
:1033D000002363632422A3899343A38100236360B2
:1033E000236923600823A2891343A3812369002B47
:1033F0000BD1A0218022A389890092000B40934227
:1034000003D02100300000F027FA0C22A35E012037
:103410001A0099B2024003420FD00022A2606269F2
:103420005242A261002022698242BAD10A06B8D56E
:1034300040221343A3810138B3E7880700D46269AF
:10344000A260EFE734FEFF1F403E0000603E000038
:10345000203E0000062010B500F078FA012000F0B0
:103460008BFB0000F7B58B8905000C001A075FD4B1
:103470004A68002A04DC0A6C002A01DC0020FEBD38
:10348000E76A002FFAD0002280212E682A601A00F5
:1034900049010A400B4234D0606DA3895B0706D511
:1034A0006368C01A636B002B01D0236CC01A020042
:1034B000216A00232800E76AB847A189431C06D186
:1034C0002B681D2B31D82C4ADA40D3072DD5002389
:1034D000636023692360CB0405D5431C02D12B68AC
:1034E000002B00D16065616B2E600029C6D02300DF
:1034F0004433994202D02800FFF72EFA002060637F
:10350000BDE701232800216AB847431CC5D12B68B9
:10351000002BC2D01D2B01D0162B01D12E60ADE7A0
:103520004023A2891343A381A9E740230B43FAE771
:103530000F69002FA2D00A680F60D21B01920022EF
:103540009B0700D14A69A260019B002B00DC95E734
:103550003A002800019B216AA66AB047002806DCD1
:1035600040230120A28940421343A38187E7019BA6
:103570003F181B1A0193E7E7010040200B6970B563
:1035800005000C00002B02D10025280070BD00288A
:1035900004D08369002B01D100F092F8144B9C42B7
:1035A0001BD16C680C22A35E002BEDD0626ED2079B
:1035B00004D49B0502D4A06D00F023F9280021005B
:1035C000FFF750FF636E0500DB07DED4A3899B0580
:1035D000DBD4A06D00F016F9D7E7064B9C4201D171
:1035E000AC68DFE7044B9C42DCD1EC68DAE7C0460C
:1035F000403E0000603E0000203E0000002310B569
:103600000400036043608360818143661900C281C6
:1036100003614361836108225C30FFF795F9054B34
:1036200024626362044BA362044BE362044B236392
:1036300010BDC0468D390000B5390000ED390000DD
:10364000193A000010B5024900F0BAF810BDC046A2
:103650007D35000070B568254A1E55430E002900CF
:103660007431FFF7E5F9041E08D000212A0001603B
:1036700046600C30A0606832FFF766F9200070BD2C
:1036800010B5024800F0BDF810BDC0468DFFFF1F09
:1036900010B5024800F0B6F810BDC0468DFFFF1F00
:1036A00010B5024800F0ADF810BDC0468EFFFF1FF8
:1036B00010B5024800F0A6F810BDC0468EFFFF1FEF
:1036C00013B50400FFF7ECFFA369002B02D0FFF74E
:1036D000EFFF13BDA364E3642365134B134A1B6818
:1036E000A2620193A34201D10123A361200000F053
:1036F0001FF86060200000F01BF8A060200000F0C0
:1037000017F800220421E0606068FFF777FF0122CC
:103710000921A068FFF772FF02221221E068FFF77B
:103720006DFF0123A361D2E73C3D00004536000058
:10373000F8B50700FFF7A4FF1F4B1E68B369002B05
:1037400002D13000FFF7BCFF4836B4687368013B14
:1037500004D53368002B22D03668F6E70C22A55E2C
:10376000002D1AD12000154B5830E360656600F03B
:1037700047F8FFF78DFF2000082229002560A5608B
:10378000656025616561A5615C30FFF7DDF8656303
:10379000A563A564E5642000F8BD6834D7E704217B
:1037A0003800FFF757FF041E3060D5D1FFF770FFD8
:1037B0000C233B60EFE7C0463C3D00000100FFFFEB
:1037C000F7B5040006000027019148346368A56836
:1037D0000093009B013B009304D52468002CF5D195
:1037E0003800FEBDAB89012B08D90E22AB5E013338
:1037F00004D029003000019B984707436835E8E76B
:10380000704770477047000070B50E001D000E2312
:10381000C95E140096B0002908DA0C22B35E0022BB
:103820002A601B0611D48023DB000FE06A4600F0FB
:103830001FF90028F1DBF02301991B021940054B09
:10384000C9184B4259412960EDE74023002023600D
:1038500016B070BD00E0FFFFF7B502268B890500AA
:103860000C00334206D02300473323602361012339
:103870006361F7BD6A4601ABFFF7C6FF0099070019
:103880002800FFF7D5F8002808D10C22A35E9A057E
:10389000EFD4032293431E43A681E4E70F4BAB62B0
:1038A0008023A28920601343A381009B2061636170
:1038B000019B002B0DD028000E23E15E00F0EAF8FA
:1038C000002806D00322A38993431A00012313433F
:1038D000A381A0890743A781CBE7C04645360000F6
:1038E000C9B28218904201D10020704703788B4200
:1038F000FBD00130F6E770B504000D001F2904D994
:10390000162303600120404270BD436C002B04D09D
:103910008A009B181A68002A08D1200000F032F8AB
:103920002A000100200000F01BF8EDE70020012A2A
:10393000EAD0511C03D1162301302360E4E70024B0
:1039400028001C6090472000DEE7000010B5034B04
:1039500001001868FFF7CFFF10BDC04634FEFF1FFF
:10396000002370B5064D0400080011002B6000F024
:10397000F3F8431C03D12B68002B00D0236070BDEB
:1039800088FFFF1F10B500F0CFF810BD70B50C0018
:103990000E25495F00F0A4F8002803DB636D1B18B7
:1039A000636570BDA389024A1340A381F9E7C0464D
:1039B000FFEFFFFFF8B51F008B8905000C00160014
:1039C000DB0505D50E23C95E0022022300F074F842
:1039D000A389054A28001340A38132000E23E15E2B
:1039E0003B0000F01FF8F8BDFFEFFFFF70B50C00C3
:1039F0000E25495F00F060F8A389421C03D1054AF7
:103A00001340A38170BD802252011343A3816065DE
:103A1000F8E7C046FFEFFFFF10B50E23C95E00F0C8
:103A200015F810BD70B50400080011001A0000233D
:103A3000054D2B60FDF7A8FB431C03D12B68002B21
:103A400000D0236070BDC04688FFFF1F002370B503
:103A5000064D040008002B6000F056F8431C03D10B
:103A60002B68002B00D0236070BDC04688FFFF1F6D
:103A7000002370B5064D0400080011002B6000F013
:103A80004BF8431C03D12B68002B00D0236070BD82
:103A900088FFFF1F002370B5064D040008002B604F
:103AA00000F052F8431C03D12B68002B00D0236098
:103AB00070BDC04688FFFF1F70B5040008001100EC
:103AC0001A000023054D2B6000F04EF8431C03D173
:103AD0002B68002B00D0236070BDC04688FFFF1FFD
:103AE00070B50400080011001A000023054D2B607A
:103AF000FDF760FB431C03D12B68002B00D0236033
:103B000070BDC04688FFFF1F58220120014B404274
:103B10001A60704788FFFF1F58220120014B404266
:103B20001A60704788FFFF1F58220120014B404256
:103B30001A60704788FFFF1F58220120014B404246
:103B40001A60704788FFFF1F5822024B00201A603E
:103B50007047C04688FFFF1F58220120014B40429A
:103B60001A60704788FFFF1F58220120014B404216
:103B70001A60704788FFFF1FFEE7C0464E6F204463
:103B8000657669636520666F756E646564210D0AEC
:103B9000004E6F2049324320696E7465726661631E
:103BA0006520666F756E646564210D0A004163636C
:103BB000656C3A20556E6578706563746564207233
:103BC0006573756C742066726F6D2057484F5F4146
:103BD0004D5F492028307825303278290D0A004978
:103BE0006E697469616C697A696E672046584F53D3
:103BF0002E2E2E0D0A00526573657474696E67204F
:103C000046584F532E2E2E0D0A00556E61626C657C
:103C100020746F206D6F766520746F205374616E11
:103C2000646279206D6F64650A0A0D00556E6162E9
:103C30006C6520746F206D6F766520746F20416312
:103C400074697665206D6F64650A0A0D00898A00C3
:103C50000060064008000000006007400A00000005
:103C600000F00F4040F00F400090044000A00440DE
:103C70001E1F0000140001001600020018000300BF
:103C80001A0004001C0005001E00090020000600A8
:103C900022000A002400070028000C002C0010005D
:103CA000300011003800120040000F0044001300E3
:103CB000480014005000150058001900600016005C
:103CC00068001A007000170080001C0090001D00A2
:103CD000A0001E00C0002200E0001F00F000230032
:103CE00000012400200125004001260080012A0057
:103CF000C0012700E0012B0000022C0040022D0033
:103D000080022E000003320080032F00C003330026
:103D100000043400800435000005360000063A0037
:103D20000007370080073B0000083C0000093D0009
:103D3000000A3E00000C3F00000F000038FEFF1F8D
:103D40005245454E54206D616C6C6F6320737563F2
:103D5000636565646564002F746D702F6A656E6BB2
:103D6000696E732D4743432D31302D706970656C3A
:103D7000696E652D3333385F32303231313031384E
:103D80005F313633343531363139352F7372632F25
:103D90006E65776C69622F6E65776C69622F6C69EE
:103DA00062632F7374646C69622F72616E642E6338
:103DB000002C2066756E6374696F6E3A2000617323
:103DC00073657274696F6E202225732220666169A3
:103DD0006C65643A2066696C6520222573222C206C
:103DE0006C696E65202564257325730A00232D30C8
:103DF0002B2000686C4C00656667454647003031F3
:103E00003233343536373839414243444546003041
:103E10003132333435363738396162636465660070
:103E20000000000000000000000000000000000092
:103E30000000000000000000000000000000000082
:103E40000000000000000000000000000000000072
:103E50000000000000000000000000000000000062
:103E60000000000000000000000000000000000052
:103E70000000000000000000000000000000000042
:103E8000F8B5C046F8BC08BC9E467047F8B5C046B9
:083E9000F8BC08BC9E46704717
:083E9800C0C5FF7F010000001E
:043EA00039040000E1
:043EA4001104000005
:103EA800F800F8FFF8FEF8FDF9FCF9FBFAFAFBF95F
:103EB800FCF9FDF8FEF8FFF800F801F802F803F83D
:103EC80004F905F906FA07FB07FC08FD08FE08FFD8
:103ED80008002F3F38FEFF1F00000000403E000092
:103EE800603E0000203E00000000000000000000CE
:103EF80000000000000000000000000000000000BA
:103F080000000000000000000000000000000000A9
:103F18000000000000000000000000000000000099
:103F28000000000000000000000000000000000089
:083F3800000000000000000081
:04000003000004D91C
:00000001FF
