:1000000000060020D9040000E9040000E904000013
:1000100000000000000000000000000000000000E0
:10002000000000000000000000000000E9040000E3
:100030000000000000000000E9040000E9040000E6
:10004000E9040000E9040000E9040000E9040000FC
:10005000E9040000E9040000E9040000E9040000EC
:10006000410E0000E9040000B7110000E90400009F
:10007000E9040000E9040000E9040000E9040000CC
:10008000E9040000E9040000E9040000E9040000BC
:10009000E9040000E9040000E9040000E9040000AC
:1000A000E9040000E9040000E9040000E90400009C
:1000B000E9040000E9040000E9040000210E00004A
:10040000FFFFFFFFFFFFFFFFFFFFFFFFFE3DFFFFBF
:1004100010B5064C2378002B07D1054B002B02D0DA
:10042000044800E000BF0123237010BD98FEFF1FA9
:1004300000000000A4450000044B10B5002B03D0C1
:100440000349044800E000BF10BDC04600000000A2
:100450009CFEFF1FA4450000402292029A1A924679
:100460007047C046174B002B00D1134B9D46FFF73A
:10047000F3FF00218B460F461348144A121A02F06C
:1004800087FD0E4B002B00D098470D4B002B00D062
:1004900098470020002104000D000D48002802D0DC
:1004A0000C4800E000BF02F045FD2000290000F0EC
:1004B000C5FB02F019FDC046000008000000000066
:1004C000000000000006002098FEFF1F90FFFF1FA5
:1004D000000000000000000072B601F0ABFB01F06C
:1004E000C7FB62B6FFF7BEFF00480047E904000003
:1004F0000023C25C0133002AFBD1581E7047000064
:1005000003B47146490840004900095E49008E4421
:1005100003BC7047002243088B4274D303098B420B
:100520005FD3030A8B4244D3030B8B4228D3030CC3
:100530008B420DD3FF22090212BA030C8B4202D365
:100540001212090265D0030B8B4219D300E0090A8D
:10055000C30B8B4201D3CB03C01A5241830B8B4296
:1005600001D38B03C01A5241430B8B4201D34B037F
:10057000C01A5241030B8B4201D30B03C01A5241E4
:10058000C30A8B4201D3CB02C01A5241830A8B4269
:1005900001D38B02C01A5241430A8B4201D34B0252
:1005A000C01A5241030A8B4201D30B02C01A5241B6
:1005B000CDD2C3098B4201D3CB01C01A524183096A
:1005C0008B4201D38B01C01A524143098B4201D3A4
:1005D0004B01C01A524103098B4201D30B01C01ACF
:1005E0005241C3088B4201D3CB00C01A5241830849
:1005F0008B4201D38B00C01A524143088B4201D376
:100600004B00C01A5241411A00D2014652411046D5
:100610007047FFE701B5002000F0F0F802BDC046CA
:100620000029F7D076E7704703460B437FD40022BA
:1006300043088B4274D303098B425FD3030A8B4276
:1006400044D3030B8B4228D3030C8B420DD3FF22E0
:10065000090212BA030C8B4202D31212090265D0AE
:10066000030B8B4219D300E0090AC30B8B4201D361
:10067000CB03C01A5241830B8B4201D38B03C01AA8
:100680005241430B8B4201D34B03C01A5241030B1F
:100690008B4201D30B03C01A5241C30A8B4201D3D0
:1006A000CB02C01A5241830A8B4201D38B02C01A7B
:1006B0005241430A8B4201D34B02C01A5241030AF2
:1006C0008B4201D30B02C01A5241CDD2C3098B42D7
:1006D00001D3CB01C01A524183098B4201D38B0154
:1006E000C01A524143098B4201D34B01C01A5241F7
:1006F00003098B4201D30B01C01A5241C3088B423C
:1007000001D3CB00C01A524183088B4201D38B0026
:10071000C01A524143088B4201D34B00C01A5241C8
:10072000411A00D201465241104670475DE0CA0F9F
:1007300000D04942031000D34042534000229C465F
:1007400003098B422DD3030A8B4212D3FC22890169
:1007500012BA030A8B420CD3890192118B4208D33F
:10076000890192118B4204D389013AD0921100E0A1
:100770008909C3098B4201D3CB01C01A52418309B5
:100780008B4201D38B01C01A524143098B4201D3E2
:100790004B01C01A524103098B4201D30B01C01A0D
:1007A0005241C3088B4201D3CB00C01A5241830887
:1007B0008B4201D38B00C01A5241D9D243088B42DD
:1007C00001D34B00C01A5241411A00D20146634680
:1007D00052415B10104601D34042002B00D54942E4
:1007E000704763465B1000D3404201B5002000F023
:1007F00005F802BD0029F8D016E770477047C046DB
:10080000F0B5CE46474680B5070099463B0C9C465E
:1008100013041B0C1D000E0061460004140C000C98
:1008200045434B4360436143C0182C0C20188C4651
:10083000834203D980235B029846C44449467943E6
:100840007243030C63442D042D0CC9180004401995
:100850008918C0BCB946B046F0BDC0460A4A03007C
:10086000116810B5002901D10849116010680849C4
:10087000C3188B4206D902F031FB0C230360012020
:10088000404210BD1360FCE7B4FEFF1F90FFFF1F46
:100890009001002037B585256D000400280001F087
:1008A0000DFC0C2001F00AFCFA23074A9B0014708F
:1008B00000210193012308000093044B02F0F6F895
:1008C000280001F0EDFB37BDD9FEFF1FB8FEFF1F6A
:1008D000F0B5002705000E008DB039001C2205A8D8
:1008E00002F056FB691C04ACC9B26172E172B11C22
:1008F000C9B2039165702A1D2173A91C0335EDB29D
:100900006576E57685252120E270FF22731CDBB237
:10091000A3702371A374F31C23756D00039BC9B2EC
:1009200020702072207420762800627162736174D6
:10093000E174627523776277A672A67601F0BEFB3A
:100940000C2001F0BBFBFA239B0001932023220023
:10095000390000933800044B02F0A8F8280001F099
:100960009FFB0DB0F0BDC046B8FEFF1FF0B50600FE
:100970000D0087B00021170004A8082202F008FB30
:10098000244BEA1C1978B01E331D03ACDBB2D2B283
:1009900081422BDBF01D814228DC1F49A81E09780B
:1009A000814223DB681D814220DC2521A5700525BD
:1009B00021706670E3702271642001F069FA85206D
:1009C000400001F07BFB0C2001F078FBFA230021B2
:1009D0009B002200080001930095104B02F066F87E
:1009E0008520400001F05CFB07B0F0BD2321EF192A
:1009F0002271FAB22170A2710231013AA5706572BA
:100A000066700C25E3706671E1712672A372E27262
:100A1000D2E7C04632FEFF1F33FEFF1FB8FEFF1FA6
:100A2000F0B589B002930EAB1B78170006000D00DD
:100A30000922002105A8039302F0AAFA252304AC99
:100A400023706B46197A039BF8B2002B2BD133002D
:100A5000083B63702B00083BA37033000833E3703E
:100A60002571A6712123361885206371E571DE3367
:100A70006D18400023732672657201F01FFB0C2075
:100A800001F01CFBFA239B00002101930D2322009F
:100A9000080000930B4B02F009F88520400001F09C
:100AA000FFFA09B0F0BD331A6A1ADBB2D2B2002FD6
:100AB00004DA6670A570E3702271D2E76370A570E6
:100AC000E670F9E7B8FEFF1F30B5252585B002AC0A
:100AD0002570CB1A851AEDB2DBB2002A1BDA6070E2
:100AE000A170E57085204000237101F0E7FA0C2029
:100AF00001F0E4FAFA239B00002101930523220070
:100B000008000093064B01F0D1FF8520400001F062
:100B1000C7FA05B030BD6570A170E070E2E7C0466D
:100B2000B8FEFF1F10B580246400200001F0C6FA53
:100B3000642001F0ADF9200001F0B2FAAE20FFF719
:100B4000A9FEA020FFF7A6FE7220FFF7A3FEA120BA
:100B5000FFF7A0FE0020FFF79DFEA220FFF79AFE00
:100B60000020FFF797FEA420FFF794FEA820FFF7D0
:100B700091FE3F20FFF78EFEAD20FFF78BFE8E200B
:100B8000FFF788FEB020FFF785FE0B20FFF782FEFF
:100B9000B120FFF77FFE3120FFF77CFEB320FFF787
:100BA00079FEF020FFF776FE8A20FFF773FE6420BF
:100BB000FFF770FE8B20FFF76DFE7820FFF76AFECF
:100BC0008A20FFF767FE6420FFF764FEBB20FFF773
:100BD00061FE3A20FFF75EFEBE20FFF75BFE3E207F
:100BE000FFF758FE8720FFF755FE0620FFF752FE5D
:100BF0008120FFF74FFE9120FFF74CFE8220FFF788
:100C000049FE5020FFF746FE8320FFF743FE7D207C
:100C1000FFF740FE2520FFF73DFE0020FFF73AFEDC
:100C20000020FFF737FE5F20FFF734FE3F20FFF77D
:100C300031FEAF20FFF72EFE10BD0000F0B50024FE
:100C4000684BBDB0089304AB9C829C750FAB30938E
:100C50000AABB4212F936423634A32930F92634A01
:100C6000473B1092624A2000119204AA5218138046
:100C7000A82204AB9B181C7002F0D8FD02F056FDB0
:100C800000F0A1FA06230126FF331293594B2822C4
:100C90002100764224A8139380251496159402F01F
:100CA00077F90C2385226D0022A95200229312A805
:100CB0000B3B239325922693289529932B9601F09D
:100CC000D5F94D4B4D4A1D604D4B1D604D4B1D6080
:100CD000C0239B0013604C4AEC3D136001F0E6F822
:100CE0002EA800F0E7F816A9200001F03BFE200036
:100CF00007AA08A901F080FEFFF714FF039402F091
:100D000045FD5C21FFF776FDCBB21800002105936D
:100D1000FFF7DEFD00230493022204990598FFF7F4
:100D200025FE049B0CAE0233DBB204932F9B3100F3
:100D30005B682EA8984770886421C0BAFFF774FCDE
:100D4000072201275A3000B2C31713401B182F4A3D
:100D5000DB105B009E56D318DF5700233200009350
:100D60003F213B002F20FFF75BFE294B1A78002A1A
:100D70000BD000221A703200264B2F321A703A0024
:100D80003C00254B3F321A700396244B1B78012BF5
:100D90001ED1214E1F4F31783878039A00932300DB
:100DA000FFF73EFE3878039B3178C018C0B20300CD
:100DB0000919C9B2083B387031704E2B01D8072988
:100DC00006D80022154B1A702300039AFFF77CFE09
:100DD000049B3E2BA0D1013DEDB2002D8FD1280008
:100DE0003DB0F0BD809698009D22000033250000A4
:100DF000192500000100000A30901454209014546A
:100E000028A0145400A014542490145400FEFF1F72
:100E1000D8FEFF1F32FEFF1F33FEFF1FF9FEFF1F2C
:100E2000062010B5FF3001F057F90123024A137074
:100E3000024A137010BDC046F9FEFF1FD8FEFF1F07
:100E400010B5002001F05AF910BD0300172270B54B
:100E50001F2588B09E680024C8236A4411700100D1
:100E60006D4400782C700293C73B0193009576681F
:100E70000C31B047A04200D12C78200008B070BDE2
:100E800030B5030016241000172287B06C446A4462
:100E90009D681170207019001878C8230293C73B11
:100EA00001930094AC680C31A047431E9841404226
:100EB00007B030BD70B500250400A84203D1184822
:100EC00000F04EFA013DA368002B05D1154800F053
:100ED00047FA01256D421CE0002DFAD121001B6864
:100EE0001431207898470D212000FFF7AEFF010054
:100EF0001A2805D0C7280ED00B4800F031FAE8E7D1
:100F00000A4A63681A600A4A5A60636820001B68CC
:100F10009847280070BD074A63681A60064AF3E7DD
:100F2000C3410000D8410000F44100002D10000032
:100F3000091100003D0F00001F10000070B50400F3
:100F4000264800F00DFA264800F00AFA40222B212C
:100F50002000FFF795FF234DC046013D002DFBD13A
:100F60002A212000FFF771FF0126B0432A21C2B2D7
:100F70002000FFF785FF2A212000FFF766FF30429F
:100F800005D0194800F0ECF93500280070BD2A00A2
:100F900009212000FFF774FF02222B212000FFF718
:100FA0006FFF5F225B212000FFF76AFF20225C2198
:100FB0002000FFF765FF32000E212000FFF760FFE1
:100FC0002A2109222000FFF75BFF2A212000FFF7DA
:100FD0003CFF3042D9D10548D4E7C0462642000044
:100FE0003D420000FFFF000051420000734200003C
:100FF00070B51500172286B004006A44C826117027
:101000000100A468007801930296009501236468AA
:101010000C31A047431E9841C0B206B070BD10B558
:101020000A000C230121FFF7E3FF10BDB0B584B027
:1010300000AF78600F257B1900221A707C197B683D
:101040002A211800FFF701FF030023707B197A198A
:10105000127801218A431A707B191A787B682A2139
:101060001800FFF70DFF7C197B680E211800FFF7B1
:10107000ECFE030023707B197A19127803218A434E
:101080001A707B197A19127801210A431A707B1998
:101090001A787B680E211800FFF7F2FE7C197B6836
:1010A00009211800FFF7D1FE030023707B197A197C
:1010B00012783F210A401A707B191A787B6809213F
:1010C0001800FFF7DDFE7C197B682A211800FFF766
:1010D000BCFE0300237028003B183A181278012147
:1010E0000A431A703B183A18127802218A431A7080
:1010F0003B181A787B682A211800FFF7C1FE0023ED
:101100001800BD4604B0B0BDB0B584B000AF786083
:1011100039603B68002B01D1002348E00F23FB1806
:1011200000221A700F257C197B6800211800FFF738
:101130008CFE030023707B191B7808221340F1D02A
:101140007B6801211800FFF780FE03001A003B684E
:101150001A707B6802211800FFF777FE03001A005F
:101160003B685A707B6803211800FFF76EFE03008E
:101170001A003B689A707B6804211800FFF765FE2F
:1011800003001A003B68DA707B6805211800FFF73E
:101190005CFE03001A003B681A717B680621180088
:1011A000FFF753FE03001A003B685A710123180031
:1011B000BD4604B0B0BD80B500AF002001F0A4FB77
:1011C000C046BD4680BD80B500AF002000F0A6FE41
:1011D000012000F0A3FE002000F02EF8002000F017
:1011E00047F8C046BD4680BD80B584B000AFF8600A
:1011F000B960FB1D1A70BB681F2B05D90A4B0B4A3F
:101200000B48FF2101F04CFEFB1D1A78BB689B00C8
:10121000F968CB181900074B0B4312021A60C0463D
:10122000BD4604B080BDC046684100009442000045
:10123000744100000000101480B582B000AF7860E7
:101240007B68002B0CD1094B022203211800FFF709
:10125000CBFF064B022204211800FFF7C5FF00E078
:10126000C046C046BD4602B080BDC04600A0044096
:1012700080B582B000AF78607B68002B18D10F4B2F
:10128000032205211800FFF7AFFF0C4B03220621B4
:101290001800FFF7A9FF094B032207211800FFF7E9
:1012A000A3FF074B032200211800FFF79DFF00E07A
:1012B000C046C046BD4602B080BDC0460090044056
:1012C00000A0044090B585B000AFF860B9607A60C6
:1012D000BB68002B02D101235B4218E0FB68012BA5
:1012E00005D0FB68022B02D001235B420FE00A4BC2
:1012F0001B78002B02D101235B4208E0064B9C685F
:10130000054B5B687A68B9681800A0477B681800CD
:10131000BD4605B090BDC046FCFEFF1F90B585B030
:1013200000AFF860B9607A60FB68002B02D001233F
:101330005B420FE0094B1B78002B02D101235B427B
:1013400008E0064BDC68054B5B687A68B9681800F2
:10135000A0477B681800BD4605B090BDFCFEFF1F8E
:101360000FB480B584B002AF0E4B1B78002B02D1B6
:1013700001235B420FE01423FB183B603869012313
:101380005A4209493B6800930300002000F030F8FE
:1013900003007B607B681800BD4602B080BC08BCBF
:1013A00004B01847FCFEFF1FAD13000090B585B0D8
:1013B00000AF786039607B68DAB20F23FB181A70CF
:1013C0000A4B1B78002B02D101235B4209E0074B3B
:1013D0009C68064B5B680F22B91801221800A047D1
:1013E00000231800BD4605B090BDC046FCFEFF1F9F
:1013F000B0B5A4B004AFF860B9607A603B60002378
:10140000FB617B683B657B68013301D1CE4B7B6020
:101410003B68FB6752E3FB6C252B08D0F968FA6C3C
:10142000BB6810009847FB690133FB6143E35B2312
:10143000FB1801221A700023FB6600233B672BE098
:10144000FB6F0133FB67FB6F1B78203B102B1DD814
:101450009A00BE4BD3181B689F46FB6E01221343B4
:10146000FB6619E0FB6E02221343FB6614E0FB6E81
:1014700004221343FB660FE0FB6E08221343FB6656
:101480000AE0FB6E10221343FB6605E0FB6F013B95
:10149000FB6701233B67C0463B6F002BD0D0002386
:1014A000BB6600233B671AE0FB6F0133FB67FB6FF2
:1014B0001B78FB64FB6C303B092B0AD8BA6E130017
:1014C0009B009B185B001A00FB6CD318303BBB667B
:1014D00005E0FB6F013BFB6701233B67C0463B6FA9
:1014E000002BE1D006237B65FB6F0133FB67FB6FAD
:1014F0001B782E2B23D100237B6500233B671AE04A
:10150000FB6F0133FB67FB6F1B78FB64FB6C303BAD
:10151000092B0AD87A6D13009B009B185B001A00F8
:10152000FB6CD318303B7B6505E0FB6F013BFB6731
:1015300001233B67C0463B6F002BE1D002E0FB6F0D
:10154000013BFB67FB6F0133FB67FB6F1B786C2B69
:101550000FD019DC4C2B1BD0682B15D1FB6F01333E
:10156000FB67FB6F1B78682B14D0FB6F013BFB679D
:1015700010E0FB6F0133FB67FB6F1B786C2B0BD00C
:10158000FB6F013BFB6707E0FB6F013BFB6704E080
:10159000C04602E0C04600E0C046FB6F0133FB6777
:1015A000FB6F1B78FB64FB6C583B202B00D976E269
:1015B0009A00674BD3181B689F46882108200B1898
:1015C000DB191B681A1D0918C9190A601B68BB6161
:1015D0001823F918202438195B23FB181B78009373
:1015E0000A23012200F07CFA03007B673A197B6F23
:1015F000D318BB67BB69002B05DA2D237B667B6F95
:1016000001337B6715E0FB6E0222134005D02B23CC
:101610007B667B6F01337B670BE0FB6E042213401C
:1016200005D020237B667B6F01337B6701E00023BD
:101630007B6600233B66FB6E082213401DD07B6E49
:10164000002B07D0F9687A6EBB6810009847FB69D9
:101650000133FB6101233B66BA6E1C23F818796FD6
:101660003B1D0293FB680193BB680093030030208D
:1016700000F0BDFABB6E7B671EE0FB6E01221340DB
:101680001AD1BA6E1C23F818796F3B1D0293FB68C0
:101690000193BB6800930300202000F0A8FA7B6E42
:1016A000002B07D0F9687A6EBB6810009847FB6979
:1016B0000133FB6101233B663B6E002B00D056E1FA
:1016C0007B6E002B00D152E1F9687A6EBB68100086
:1016D0009847FB690133FB6149E15B23FB1800225A
:1016E0001A70882108200B18DB191B681A1D0918AD
:1016F000C9190A601B687B611423F9182024381962
:101700005B257B191B7800931023002200F0E8F979
:1017100003007B673A197B6FD318BB6700233B66D6
:10172000FB6E0822134030D0FB6E102213401BD0FA
:10173000FA68BB681100302098477B191B78002B92
:1017400008D0582207E0C046FEFFFF7FA8420000F5
:10175000EC4200007822F968BB6810009847FB69EA
:101760000233FB6101233B66BA6E1C23F818796FC4
:101770003B1D0293FB680193BB680093030030207C
:1017800000F035FABB6E7B6732E0FB6E012213403E
:101790002ED1FB6E1022134002D07B6F02337B6789
:1017A000BA6E1C23F818796F3B1D0293FB680193F6
:1017B000BB6800930300202000F019FAFB6E102292
:1017C000134015D0FA68BB681100302098475B239E
:1017D000FB181B78002B01D0582200E07822F96812
:1017E000BB6810009847FB690233FB6101233B662D
:1017F000FB6E1022134000D1BBE03B6E002B00D0EB
:10180000B7E0FA68BB681100302098475B23FB18EB
:101810001B78002B01D0582200E07822F968BB68C1
:1018200010009847FB690233FB617B6F02337B67D3
:101830009FE0882108200B18DB191B681A1D091866
:10184000C9190A601B687B611423F9182023F81852
:101850005B23FB181B7800930823002200F040F95B
:1018600003007B6756E0882108200B18DB191B68F2
:101870001A1D0918C9190A601B687B611423F9181D
:101880002023F8185B23FB181B7800930223002207
:1018900000F026F903007B673CE0882108240B193F
:1018A000DB191B681A1D0819C01902601B687B61CF
:1018B00020000B18DB191B681A1D0918C9190A60CA
:1018C0001B687B611423F9182023F8185B23FB188D
:1018D0001B7800931023002200F002F903007B67BD
:1018E00018E0882108200B18DB191B681A1D09183D
:1018F000C9190A601B687B611423F9182023F818A2
:101900005B23FB181B7800930A23002200F0E8F801
:1019100003007B672023FA187B6FD318BB67FB6E2D
:101920000822134010D0BA6E1C23F818796F3B1DA3
:101930000293FB680193BB6800930300302000F022
:1019400056F9BB6E7B6724E0FB6E0122134012D177
:10195000BA6E1C23F818796F3B1D0293FB68019344
:10196000BB6800930300202000F041F911E0C0465D
:101970000FE0C0460DE0C0460BE0BB6F5A1EBA67D1
:101980001B781800FA68BB6811009847FB6901339F
:10199000FB61BB6F1B78002BEFD1FB6E0122134064
:1019A00000D185E0BA6E1C23F818796F3B1D0293B5
:1019B000FB680193BB6800930300202000F017F937
:1019C00076E0882108200B18DB191B681A1D0918FE
:1019D000C9190A601B68DBB27B64F9687A6CBB6862
:1019E00010009847FB690133FB6164E088210820FF
:1019F0000B18DB191B681A1D0918C9190A601B6826
:101A0000FB65FB6D002B55D0FB6D1800FEF770FDDC
:101A100003007B67FB6E012213401AD1BA6E1C23B0
:101A2000F818796F3B1D0293FB680193BB68009324
:101A30000300202000F0DBF80BE0FB6D5A1CFA6578
:101A40001B781800FA68BB6811009847FB690133DE
:101A5000FB61FB6D1B78002BEFD1FB6E0122134065
:101A600028D0BA6E1C23F818796F3B1D0293FB68CF
:101A70000193BB6800930300202000F0B8F819E040
:101A8000882108200B18DB191B681A1D0918C919B1
:101A90000A601B68BB64FA69BB6C1A600BE0F968EA
:101AA000FA6CBB6810009847FB690133FB6102E0E8
:101AB000C04600E0C046FB6F0133FB67FB6F1B783D
:101AC000FB64FB6C002B00D0A5E47B68002B01D0ED
:101AD000FB6900E03B6D1800BD4620B0B0BDC046BC
:101AE00080B58CB000AFF860B9607A603B600023CD
:101AF000FB61FB68BB61BB695A1CBA6100221A70AA
:101B00007B68002B32D0BB681B68FB62FB6A002B32
:101B100028D1BB6930221A70FB690133FB6161E097
:101B20003968F86AFEF780FD03003B613B693A685B
:101B30005343FA6AD31ABB62BB6A002B04DABB6A4E
:101B40003022D31ABB6202E0BB6A3033BB623B690E
:101B5000FB62BB695A1CBA61BA6AD2B21A70FB69DD
:101B60000133FB61FB6A002BDAD13BE0BB681B68E9
:101B70007B627B6A002B31D1BB6930221A70FB6912
:101B80000133FB612EE03B681900786AFEF7C2FC66
:101B900003007B613B687A6953437A6AD31A3B62DC
:101BA0003B6A092B03D83B6A30333B620BE0382396
:101BB000FB181B78002B01D0412300E061233A6A17
:101BC0009B180A3B3B627B697B62BB695A1CBA610A
:101BD0003A6AD2B21A70FB690133FB617B6A002B4F
:101BE000D1D1C046FB691800BD460CB080BD80B5A0
:101BF00086B000AFF860B9607A603B60BB687B611B
:101C00000EE0FB68DBB218007A6A3B6A1100984765
:101C10003B681B685A1C3B681A607B6901337B6117
:101C20007A697B689A42ECDBC046C046BD4606B086
:101C300080BD000080B500AF0B4B9B78DBB21A0073
:101C40000823134007D0084B9B78DBB2064A0821D3
:101C50000B43DBB29370054A88235B010021D1500E
:101C6000C046BD4680BDC04600D00740007004405D
:101C700080B588B000AF284BFB60284A284B9A42B9
:101C800016D00023FB610AE0254BFA699200D15877
:101C9000224BFA699200D150FB690133FB61FB686A
:101CA0009B08FA699A42EFD31E4B1C4A9A6002E0E5
:101CB0001C4B1B4A9A601C4BBB611C4B7B611C4B31
:101CC000BB60BA687B69D31AFB6107E07A69531C71
:101CD0007B61BB69591CB96112781A70FB695A1E85
:101CE000FA61002BF2D1134B3B61134B7B607A6896
:101CF0003B69D31AFB6104E03B695A1C3A6100223C
:101D00001A70FB695A1EFA61002BF5D1C046C04615
:101D1000BD4608B080BDC0460000000000000000C5
:101D20000000000000ED00E000FEFF1FCC450000B9
:101D30006446000098FEFF1F90FFFF1FF7B50124C7
:101D40000C4B00251C606B460B4F0C4E1C705C70DE
:101D500038003560009900F07AFD01AB1D705C70B1
:101D60003800019900F058FD98204005384305607F
:101D70003460F7BD38800450000004400000045077
:101D80000300081A994202D280235B02C0187047F0
:101D9000030041700020187058609860704710B5BB
:101DA000437804000120FF2B08D000F0D9F86378B5
:101DB0000133DBB2637000F0C7F8002010BD70B5CE
:101DC00004000D0000F0CCF8E1682943E16000F068
:101DD000BBF8002070BD000000220A4B9A641A0074
:101DE00040329A631A0030329A621A0020329A61A5
:101DF0001A0010329A60044A1360044B9B60DB6047
:101E00007047C04610FFFF1F0CFFFF1F60FFFF1F42
:101E100010B5024800F028FD10BDC0460000044087
:101E200070B5437804000D00DEB2002B0BD0002506
:101E300000F096F86378013BDBB26370257000F028
:101E400083F8280070BD02200029FBD02378002BE6
:101E500011D0FFF7DDFF01006068A568FFF790FF74
:101E6000854201D30320EDE700F07AF8267000F0F8
:101E70006BF80220E6E74B1CF4D000F071F8012368
:101E8000237000F061F8FFF7C3FFA5606060E9E729
:101E900070B50400FFF7BCFF0500FFF7B9FF0100B4
:101EA0002800FFF76DFFA042F7D970BD10B5FFF70E
:101EB00093FFFFF743FF002010BD0000F821084A00
:101EC00043099B009B180905C2050A401343802261
:101ED000520513431F2210401E3A82401A60704779
:101EE0002880044010B5054800F0EAFC044B19684E
:101EF000C9B20131FEF70EFB10BDC04600400640DE
:101F000044801C5E10B5FFF7EDFF034B1968C9B2A2
:101F10000131FEF7FFFA10BD4480145810B5024B92
:101F2000185CFFF7CBFF10BD704300008022024B0E
:101F3000D2031A607047C0463480045B10B5662037
:101F4000FFF7BCFF10BD0000044A1368002B04D04B
:101F5000013B1360002B00D162B6704770FFFF1F7A
:101F600072B6024A136801331360704770FFFF1F97
:101F7000F7B5FF2703681E4A1E0A3E401F40B30004
:101F80009A58050001921B4A30009C58FFF7C6FF83
:101F90008022BB00E418184B520023431A6039001A
:101FA0000022019800F05EFE84232A795B0523431A
:101FB00052001A6080236A795B0523431A609023DC
:101FC000AA795B05234312011A60EA790B4B1C4383
:101FD00013042360002A0AD0094B9B57002B06D01C
:101FE0001F2213401E3A9A401300064A1360F7BDA1
:101FF000844300008C4300000000101400001818F7
:102000009443000000E100E0F8B5FF2503680400F8
:10201000180A2840124A1D4083009F58114A9E58B2
:10202000FFF77CFF8022AB00F6180F4B52003343C2
:10203000290038001A60FF3A00F014FE2900380029
:10204000626800F01EFE8823227A5B05334392000B
:102050001A6098235B051E43637A9B013360F8BDC9
:10206000844300008C4300000000101470B50C0085
:10207000002807D1002C0FD170BD05000835FFF7EF
:1020800077FF280003680133F7D1F3E7250020002C
:102090000C35FFF7B9FF2C0023680133F6D1EBE7CD
:1020A000FF22030A044913409B00595801231040A2
:1020B00083404B607047C04684430000FF22030A00
:1020C000044913409B0059580123104083408B6002
:1020D0007047C04684430000FF22030A13401040AB
:1020E000054A9B009B5880001B18E02040051843C0
:1020F00080235B04036070478C43000010B5094BDC
:102100008200D358DA78D20602D500F01FFA10BD4B
:1021100094220233520513431B78002BF5D100F0B3
:1021200079FAF4E774430000020080230C325B0567
:1021300013431A78002AFCD00171704770B50D0066
:10214000084B8000C458200029001830FFF768FEB3
:102150000328F8D0002801D004232374207CC0B2C7
:1021600070BDC04674FFFF1F10B5104B8000C458EF
:10217000E37C002B05D0237C052B02D0237C042B91
:102180000BD10B4B18589823821C5B05134300227C
:102190001A7000F0E5FD01236374A37C002B03D0CB
:1021A00020001830FFF7FBFD10BDC04674FFFF1F75
:1021B00074430000F0B51700002289B005930EAB00
:1021C0001B7805000393830032481E5832481C5880
:1021D00007AB1A80A37C880A04930223FF3363822F
:1021E0008B0A0193CBB21E2801D11A000B0A5B00A7
:1021F000D8B2019B00211E2B05D08F4203D10123B1
:1022000003995B1A59B20143CBB202930299019828
:1022100007AB197001211E2801D15A704918A3601B
:102220003000E1600299FFF77FFF28000F99FFF768
:1022300085FF237C002B0CD1002F0AD0059BA760C3
:10224000E36030003978FFF76FFF28000F99FFF740
:1022500075FF237C039A1A4314D1019B1E2B01D0D6
:10226000002F0FD0002301273000A360E76000F0AB
:1022700065FD029930003943FFF756FF28000F999A
:10228000FFF75CFF0023E374049BA374237C09B075
:10229000F0BDC0467443000074FFFF1FF7B5830014
:1022A0000193184B8200D75805000C000126002F1F
:1022B00026D1154B3900D35820002422019300F079
:1022C00067FE200039001830FFF762FD2800FFF795
:1022D00035FE019800F0DDFC0A4BAA00D4501F2205
:1022E0000A4B5B5D134032009A40094B1A609C22F6
:1022F000019B520502331343802266743E001A701C
:102300003000FEBD74FFFF1F7443000078430000DF
:1023100000E100E00A4B800070B5C5584B686A695F
:102320000C0093420BD0074BC658FFF7EBFD002380
:1023300001006268300000F0BBFC63686B6170BD37
:1023400074FFFF1F74430000F0B589B0079311AB11
:102350001B780692334A049383009C580591627C53
:1023600007000320002A55D0049A002A01D11E320A
:10237000109200262C4AE660D558049B3800059937
:102380002674A374A66026606674FFF7C3FF9023CB
:102390001021AA1C5B05134319700223EB709823CC
:1023A0005B05134303934023039A2800137000F046
:1023B000C5FC059B069A1988109B380001930123E0
:1023C0000093079BFFF7F6FE237CDAB20592B34237
:1023D00022D10E9B2800A3600F9BE3600E9B19780F
:1023E000FFF7A2FE049BB34212D038001099FFF70A
:1023F000A5FE04280CD1039B059A1A700122EB78E4
:102400005B09134202D0280000F0AAFC0123637488
:10241000207CC0B209B0F0BD237C042BF8D1039B13
:102420001E70EBE774FFFF1F74430000F0B589B026
:10243000079311AB1B780692354A039383009C588F
:102440000591627C06000320002A58D0039A002AD6
:1024500001D11E32109200272E4A0599D5580E9BA5
:10246000300023600F9BA7606360039BE760A37449
:1024700027746774FFF74EFF9023AA1C5B051A436D
:10248000102313700E3BEB70982304925B05AA1C7B
:102490001A43402328001370029200F04FFC059B62
:1024A000069A1988109B300001930097079BFFF74D
:1024B00081FE237CDAB2BB4223D1049BA91C1A7093
:1024C0008C235B050B430F99012900D108221A7058
:1024D0002B79039B002B10D030001099FFF72EFEB4
:1024E00004280AD10023029A1370EB789B0602D5C8
:1024F000280000F035FC01236374207CC0B209B0D1
:10250000F0BD237C042BF8D1029B1F70EDE7C04681
:1025100074FFFF1F744300001FB501240394089C3F
:102520000294079C0194069C0094FFF70DFF04B0F1
:1025300010BD1FB501240394089C0294079C0194CC
:10254000069C0094FFF772FF04B010BD2F4AF8B547
:1025500083009D580222EA702D4A01279C58902240
:10256000AB1C52051A431278E978D2B209090E0061
:102570003E40394210D01022EA70083A2274982264
:102580005205134300221A70A37C934203D020000B
:102590001830FFF704FCF8BDE97849093942FAD050
:1025A00094214905194309780029F4D0012A14D14E
:1025B000EB78134204D005232374FFF7D5FDEAE737
:1025C000E368013BE360002BF7D0A36828005A1CA6
:1025D000A2605978FFF7A8FDDDE76268013A626002
:1025E000002A06D08C214905012A0AD00B431E700F
:1025F00001E0FFF7B9FD23685A1C22602A791A709E
:10260000C9E708220B431A70F5E7C046744300007F
:1026100074FFFF1FF0B57E4B8200D65887B0F77865
:102620000500FBB2059390235B051800B11D08431C
:1026300002900078C0B204909420400508430778C7
:10264000F8B2009098204005084301788446C9B24A
:102650000391704902205458B21C13431978C9B22F
:102660000191002F31D0049900290BD01023029A38
:102670001370F070236B002B25D00121626BE8B240
:10268000984720E0039900291FD0402361460B7032
:102690002300F0702C331B78002B03D198214905BF
:1026A0000A431370236B002B03D08021626BE8B2C6
:1026B0009847E37D002B04D0200080211830FFF7DD
:1026C0007EFB0023A38207B0F0BD0599F0708F1147
:1026D0000120390001408C46074238D0F278920838
:1026E00011000140024228D010221A70236B002BE7
:1026F00003D00221626BE8B298476368002B00D1D7
:1027000083E030008022E3680C30520519780243E0
:1027100010780028FCD031710133E3606368013B1D
:1027200063606368002BCED1E3602375236B002BBD
:10273000C9D01021626BE8B2A2E71970236B002B9D
:1027400003D00421626BE8B298473379BBE7019963
:10275000012926D1F0780842CFD06146197033792B
:1027600023002C331B78002B07D1009B002B04D1B6
:1027700098235B051A43009B1370236B002B03D037
:102780000821626BE8B29847A37D002B04D020009B
:1027900008211830FFF713FB00236360E360237503
:1027A00091E73379A168DBB200292BD021690B7046
:1027B000236901332361A368013BA360A368002B55
:1027C00000D080E7009B002B11D123002C331B7815
:1027D000002B04D198235B051A43009B1370E37D03
:1027E000002B04D0200020211830FFF7E8FA002346
:1027F00063752361236B002B00D164E72021626B9A
:10280000E8B23DE7072323705DE70623FBE7C046F8
:102810007443000074FFFF1F37B50191BE210224ED
:102820000825036801AA8B43190013785B00234035
:102830009478E4002C4023435478D278A4002343B6
:1028400030241201224013430B43036037BD8B0534
:10285000CAB292009B0F13437822490B114082B0F9
:102860000B43436002B07047030003480C33184326
:10287000002303600068704700007810842252052E
:10288000024312780300D0B2002A05D1094A991DEB
:102890000A431278012A0CD18020013340050343FA
:1028A0001878013843425841034B40421840034BCB
:1028B000C018704700000811808D5B0080841E00E6
:1028C00010B50D4B821D13431A780400D3B2002AB1
:1028D0000FD0012B07D1FFF7D1FF084B08341C4361
:1028E0002378D84010BD0020022BFBD1044B186880
:1028F000F8E70448F6E7C046000008110000901011
:1029000078FFFF1F006CDC0210B5064B8200D35825
:10291000DB78DB0602D500F0F5F810BD00F056F9C3
:10292000FBE7C0467C43000070B500250B4B8000E0
:10293000C4580B4B2A00C65801213000257100F005
:102940009AFA2A000221300000F095FA237FAB4268
:1029500003D020002030FFF722FA70BD7CFFFF1F5C
:102960007C430000F7B50D000600830001931E4B69
:102970008200D75800213022280000F009FB3000E7
:10298000FFF7D4FAFFF7BEFA2860380000F001FA2A
:10299000280000212030FFF7FBF9041E22D1FB1C88
:1029A00001939023FA1C5B051343102203211A7034
:1029B000380000F02CFA2100380000F04DFA0B4BE3
:1029C000B200D5500A4B9A5D1F231A401E3B93401C
:1029D000084A13609823019A5B05134340221A703A
:1029E0002000FEBD0C24FBE77C4300007CFFFF1FA2
:1029F0008043000000E100E00A4B800070B5C6583B
:102A0000094B0C00C358150030001A68096800F023
:102A1000C7F92860A37930006279217900F009FABA
:102A200070BDC0467C4300007CFFFF1FF7B51D4A08
:102A300083009C58050022790420002A16D11A4AE6
:102A40009E58002903D0280001AAFFF7D5FF98233C
:102A5000F21C5B0513430021402219701A7027698C
:102A60008F4204D12800FFF75FFF0020FEBD012246
:102A70002271A161337807205B091342F6D0A36865
:102A80001A1E02D01A780133A360B27101222369A1
:102A90001100013B2361A36930000133A36100F001
:102AA000EAF9E2E77CFFFF1F7C430000F8B5134F13
:102AB000134C85002C59ED590127069E2777A260FB
:102AC0002661E3606661FFF7B1FF002815D12000A1
:102AD00007992030FFF7A4F90328F8D000280CD07C
:102AE0000026012132002800267100F0C4F92800D8
:102AF0003200022100F0BFF90320F8BD7C43000042
:102B00007CFFFF1F10B51B4B8200D3581979002999
:102B10002ED0194951585A69002A0ED00A78D20984
:102B20000BD08A79DC68D2B2002C03D02270DA682C
:102B30000132DA605A69013A5A611A69002A0FD0E3
:102B40000A7892060CD59A68141E02D014780132C5
:102B50009A608C711A69013A1A619A6901329A6114
:102B60001A69002A04D15B69002B01D1FFF7DCFE52
:102B700010BDC0467CFFFF1F7C43000070B50025E0
:102B8000104B8000C458104B2A00C658631CDD77D8
:102B900001213000E562257025836562A562256309
:102BA00000F069F92A000221300000F064F92300E6
:102BB00038331B78AB4203D00121201DFFF7FFF80B
:102BC00070BDC0467CFFFF1F7C43000070B5234AE8
:102BD00083009C580600621CD27F002A3CD0204A09
:102BE0009D58E36A002B14DB2B789B0611D5E36913
:102BF000DAB2636A002B05D0E16A002902DD1A7897
:102C000001336362AA71E36A013BE362636B0133E0
:102C10006363E36A002B04DA00220221280000F03B
:102C20002AF9236B002B0EDD2B78DB090BD0AB7957
:102C3000A26ADBB2002A03D01370A36A0133A36235
:102C4000236B013B2363E36A002B05DC236B002B22
:102C500002DC3000FFF792FF70BDC0467CFFFF1F13
:102C60007C430000012314308B40012A04D18022D0
:102C700012051043036070478022D204DB431043E7
:102C8000F8E701238B40002A01D04360704783603E
:102C9000FCE70023C222037043708370C37043714A
:102CA0008371C371037242728372C37270470000F2
:102CB000F0B5002487B00293FA23012627002500EF
:102CC0009B00534303900491009301947642AB0020
:102CD0000593194BAA009B1859880498A140FDF749
:102CE00019FC009B009AC31A824200D9131AB342FE
:102CF0001FD2114AA900525C27000192002B02D07A
:102D00000135322D13D10134032C01D0002B0DD10C
:102D1000029A002A00D013603F220199BB011140A2
:102D20000B43039ADBB2537007B0F0BD00251E00C1
:102D3000CDE73300E4E7C046964300009423023019
:102D40005B0503431B78002B05D088235B051843E4
:102D500004230370704780231B0518433023F8E7D2
:102D60008023811CDB040B43CF2110B51970802117
:102D700002000124C900D3785B09180020402342D7
:102D800000D110BD0139002901D0C046F3E7092068
:102D9000F7E70423C3700023837043700371704707
:102DA000F0B5130B89B00126049308230024764262
:102DB00002939B1907900591069201930227002523
:102DC000631C0393039906987943FDF7A3FB059BC6
:102DD000834206D31B1A9E4203D91E00049002951B
:102DE000019401357F00092D0BD0002EEAD1019B03
:102DF000029A1B0104981343079ADBB2537009B07F
:102E0000F0BD072CF3D0002EF1D0039CD6E784232D
:102E100010B50224C21C5B0513434A0022401A70FD
:102E2000902300195B0518431023C9001940017055
:102E300010BD10B58C2403306405C9000443C9B229
:102E400021708821920049050143D2B20A70802284
:102E500052051043037010BD8023012202305B0530
:102E600003430A401A708C235B051843082389002A
:102E7000194001707047032908D1531E9A4102304E
:102E8000D2019C235B05184302707047531E9A4180
:102E90000330012901D1D201F3E794235201F1E774
:102EA00030B514001A00094B05001B6885B0D868BE
:102EB000074B002C01D1074B1C00019300912B0004
:102EC0000549029400F026F800F098FD34FEFF1F3B
:102ED0005E440000F34100006B440000014B1868A1
:102EE0007047C04634FEFF1F084B10B50400002B8E
:102EF00002D0002100E000BF054B1868836A002B58
:102F000000D09847200001F02DF9C04600000000D5
:102F10009C4400000EB403B5010003AB044804CB8D
:102F20000068019300F046F902B008BC03B01847EE
:102F300034FEFF1F70B500260C4D0D4C641BA41011
:102F4000A64209D1002601F02DFB0A4D0A4C641B54
:102F5000A410A64205D170BDB300EB5898470136C6
:102F6000EEE7B300EB5898470136F2E7C44500009E
:102F7000C4450000C4450000C845000010B5034B1F
:102F80000100186800F078F810BDC04634FEFF1F3D
:102F900003008218934200D1704719700133F9E79A
:102FA00070B50500002910D00C1F2368002B00DA33
:102FB000E418280000F086FF1D4A1368002B05D195
:102FC00063601460280000F085FF70BDA34208D93B
:102FD000216860188342F3D118685B68411821604A
:102FE000EEE71A005B68002B01D0A342F9D9116803
:102FF0005018A0420BD12068091850181160834264
:10300000E0D118685B68411811605360DAE7A042AC
:1030100002D90C232B60D5E721686018834203D1C5
:1030200018685B684118216063605460CAE7C04655
:1030300080FFFF1F70B50F4E0D003168040000299E
:1030400002D100F0E1FB30602900200000F0DCFB41
:10305000431C0AD00323C51C9D43A84207D0291A4C
:10306000200000F0D1FB431C01D101256D42280056
:1030700070BDC04684FFFF1FF7B50322CB1C9343EE
:10308000083306001F000C2B32D20C27B94231D86E
:10309000300000F017FF324D2B681C00002C2ED1A1
:1030A00039003000FFF7C6FF0400431C1ED12C6816
:1030B0002500002D4AD123682900E3183000019330
:1030C00000F0A2FB019B834243D123680337FF1A20
:1030D00003239F4308370C2F00D20C273900300000
:1030E000FFF7A8FF431C34D02368DF19276013E0E3
:1030F000002BCBDA0C23002533602800FEBD2268AC
:10310000D11B20D40B2917D9E2192760A34211D172
:103110002A606368116053603000250000F0DAFE19
:1031200007220B35231D9543EA1A9D42E5D05B1B10
:10313000A350E2E75A60ECE76268A34201D12A603B
:10314000EAE75A60E8E723006468A7E72C006D68A7
:10315000AFE70C233000336000F0BCFECDE7C04683
:1031600080FFFF1F936810B5013B9360002B04DACA
:103170009469A34207DB0A2905D01368581C106024
:103180001970080010BD00F06BFB0100F9E7F8B5FD
:1031900006000F001400D518AC4201D1002007E052
:1031A00021783A003000FFF7DDFF0134431CF3D1F2
:1031B000F8BD0000F0B5A1B006000C001F0003929E
:1031C000002804D08369002B01D100F04DFD8E4B07
:1031D0009C421CD17468636EDB0705D4A3899B05F0
:1031E00002D4A06D00F0F3FDA3891B0702D523696B
:1031F000002B1DD12100300000F088FB002817D0E3
:10320000636EDB070DD50120404221B0F0BD7F4B3E
:103210009C4201D1B468DEE77D4B9C42DBD1F4686F
:10322000D9E7A3899B05EED4A06D00F0D1FDEAE7B4
:10323000002308AD6B6120336B761033AB760797B4
:10324000039F3B78002B01D0252B4ED1039BFB1A0B
:103250000593039B9F420DD0059B21003000039AEC
:10326000FFF795FF431C00D1B5E06A69059B9446C2
:1032700063446B613B78002B00D1ACE001227B1CE6
:103280000393002352426A6004A9543252182B60FF
:10329000EB60AB601370AB65039B052219785D484A
:1032A00000F004FE039B5F1C002820D12A68D3068F
:1032B00004D5532304A95B1820211970130704D5E2
:1032C000532304A95B182B211970039B1B782A2B0D
:1032D00016D00021EB68039F3A78781C303A844678
:1032E000092A4FD9002911D117E00137A9E7494B25
:1032F0002A68C01A0123834013432B600397CBE74E
:10330000079B191D1B680791002B01DB0B9304E041
:103310005B42EB60022313432B603B782E2B0AD1D8
:103320007B782A2B37D1079B02371A1D1B6807921F
:10333000002B2DDB099303223978374800F0B6FDC6
:10334000002807D0344B2A68C01A40238340134317
:1033500001372B6039787B1C06223048039329768D
:1033600000F0A4FD002845D02D4B002B27D10722CB
:10337000079B07339343083307936B69049A9B18A1
:103380006B615DE70A214B4367469B180939A3E748
:1033900001235B42CEE700231A0001376B603978C6
:1033A000781C30398446092903D9002BC3D00992EF
:1033B000C1E70A235A4367465218093BEFE707ABB8
:1033C0000093220029003000164B00E000BF04905B
:1033D000049B0133D1D1636EDB0705D4A3899B0520
:1033E00002D4A06D00F0F4FCA3895B0600D50AE7C7
:1033F0000D980AE707AB0093220029003000094B23
:1034000000F082F8E3E7C046644500008445000010
:1034100044450000A0440000A6440000AA44000067
:10342000000000008F310000F7B5150001938A6895
:103430000B690C000090934200DA130022002B600D
:1034400043321278002A01D001332B6023689B0697
:1034500002D52B6802332B602268062317001F4019
:103460001A4227D0230043331B785A1E9341226807
:10347000920630D4220001990098089E4332B0474A
:10348000431C25D0062320682A68E16800250340F4
:10349000042B03D18D1AEB43DB171D40A36822696F
:1034A000934201DD9B1AED180027BD4220D1002078
:1034B00010E00137E3682A689B1ABB42D2DD220084
:1034C000012301990098089E1932B047431CF0D19E
:1034D00001204042FEBD3020E11843310870210038
:1034E0005A1C45310978A218433202331170C1E7E2
:1034F0002200012301990098089E1A32B047431C0C
:10350000E6D00137D1E70000F0B58BB006920A0093
:1035100043320793059004920A7E0C00109B782A90
:1035200007D8622A09D8002A00D1C1E0582A00D160
:103530008CE026004236327022E0100063381528F5
:10354000F7D8FCF7DDFF16001F00F6FFF6FFF6FFC9
:10355000F6FF1F00F6FFF6FFF6FFF6FFA8003600A5
:103560009A00F6FFF6FFB900F6FF3600F6FFF6FF09
:103570009E0026001A684236111D196013683370C8
:103580000123A7E0086819680A1D05060BD50D6818
:103590001A60002D03DA2D23049A6D421370614BDB
:1035A0000A2703931BE00D681A604106F1D52DB27E
:1035B000EFE70D681968081D18602E0601D50D6823
:1035C00003E06D06FBD50D68ADB2564B082703939B
:1035D0006F2A00D002372300002243331A70636839
:1035E000A360002B03DB0422216891432160002D9E
:1035F00002D1049E002B0CD0049E28003900FDF758
:103600000FF8039B013E5B5C33702B0005009F426B
:10361000F3D9082F09D12368DB0706D5636822692F
:10362000934202DC3023013E3370049B9B1B2361D9
:10363000079B210000930598069B09AAFFF7F4FE5B
:10364000431C4CD1012040420BB0F0BD45310A7003
:10365000344A03921A68216820CA1A60080616D5EF
:10366000CB0702D52023194321601027002DB2D1AA
:10367000202322689A432260ADE7202209680A438A
:1036800022602200782145321170274AE1E748067E
:10369000E6D5ADB2E4E71A680D68101D49691860F7
:1036A00013682E0601D5196002E06D06FBD519805E
:1036B0000023049E2361BBE71A68111D1960166878
:1036C00000213000626800F0F1FB002801D0801B6F
:1036D0006060636823610023049A1370A8E723697C
:1036E000320006990598079DA847431CAAD0236875
:1036F0009B0715D4099BE0689842A5DA1800A3E758
:103700002200012306990598079E1932B047431CF1
:1037100098D00135E368099A9B1AAB42F0DCE9E7DF
:103720000025F7E7B1440000C2440000114B70B51A
:103730001D680400AB6B002B16D11820FFF71EFC90
:10374000021EA86304D142210B4B0C48FFF7A8FBD3
:103750000B4B002103600B4B43600B4B83600B232F
:1037600083810120106151610022AB6B1C615A61A1
:1037700070BDC04634FEFF1FD3440000EA44000081
:103780000E33CDAB34126DE6ECDE0500164B10B5F2
:103790001C68A36B002B16D11820FFF7EFFB021E4D
:1037A000A06304D14E21114B1148FFF779FB114B57
:1037B00000210360104B4360104B83600B23838117
:1037C000012010615161A46B0D4A206961690D4BA4
:1037D000FDF716F80122002380185941206161612C
:1037E0004800400810BDC04634FEFF1FD34400000F
:1037F000EA4400000E33CDAB34126DE6ECDE05007A
:103800002D7F954C2DF45158002370B5064D0400C2
:1038100008002B60FDF722F8431C03D12B68002B16
:1038200000D0236070BDC0468CFFFF1F1FB50B4B3F
:10383000040000226946186800F0B6FA002804DA8D
:1038400001225242D3170092019300980199002C53
:1038500001D02060616004B010BDC04634FEFF1F7F
:10386000F8B505000E001400002804D08369002B71
:1038700001D100F0F9F9224B9C422ED16C68A3696A
:10388000A360A3891B0732D52369002B2FD023689F
:103890002269F7B2981A6369F6B2834205DC210007
:1038A000280000F03FF9002827D1A3680130013B30
:1038B000A36023685A1C22601F706369834204D08E
:1038C000A389DB0707D50A2E05D12100280000F0C7
:1038D00029F9002811D13000F8BD0A4B9C4201D1D2
:1038E000AC68CCE7084B9C42C9D1EC68C7E7210023
:1038F000280000F00BF80028C9D001267642EAE73C
:10390000644500008445000044450000374B70B515
:103910001D6806000C00002D05D0AB69002B02D1FC
:10392000280000F0A1F9324B9C420FD16C680C23A7
:10393000E25E93B211072DD4D90611D409230120D8
:10394000336037331343A381404270BD294B9C42FF
:1039500001D1AC68EBE7284B9C42E8D1EC68E6E784
:103960005B0713D5616B002908D0230044339942CB
:1039700002D03000FFF714FB002363632422A389E5
:103980009343A38100236360236923600823A289F2
:103990001343A3812369002B0BD1A0218022A3898B
:1039A000890092000B40934203D02100300000F0C8
:1039B00039FA0C22A35E01201A0099B20240034298
:1039C0000FD00022A26062695242A26100202269E7
:1039D0008242BAD10A06B8D540221343A3810138E6
:1039E000B3E7880700D46269A260EFE734FEFF1FE7
:1039F000644500008445000044450000062010B5E1
:103A000000F09AFA012000F0ADFB0000F7B58B89B9
:103A100005000C001A075FD44A68002A04DC0A6C0F
:103A2000002A01DC0020FEBDE76A002FFAD0002248
:103A300080212E682A601A0049010A400B4234D0C6
:103A4000606DA3895B0706D56368C01A636B002BA2
:103A500001D0236CC01A0200216A00232800E76A03
:103A6000B847A189431C06D12B681D2B31D82C4A9D
:103A7000DA40D3072DD50023636023692360CB048C
:103A800005D5431C02D12B68002B00D16065616B0A
:103A90002E600029C6D023004433994202D028006A
:103AA000FFF77EFA00206063BDE701232800216A4A
:103AB000B847431CC5D12B68002BC2D01D2B01D0A9
:103AC000162B01D12E60ADE74023A2891343A381B9
:103AD000A9E740230B43FAE70F69002FA2D00A6839
:103AE0000F60D21B019200229B0700D14A69A2609D
:103AF000019B002B00DC95E73A002800019B216A1E
:103B0000A66AB047002806DC40230120A289404273
:103B10001343A38187E7019B3F181B1A0193E7E733
:103B2000010040200B6970B505000C00002B02D18C
:103B30000025280070BD002804D08369002B01D126
:103B400000F092F8144B9C421BD16C680C22A35ECF
:103B5000002BEDD0626ED20704D49B0502D4A06D79
:103B600000F035F928002100FFF750FF636E0500D3
:103B7000DB07DED4A3899B05DBD4A06D00F028F918
:103B8000D7E7064B9C4201D1AC68DFE7044B9C426F
:103B9000DCD1EC68DAE7C0466445000084450000EB
:103BA00044450000002310B50400036043608360B7
:103BB000818143661900C2810361436183610822E8
:103BC0005C30FFF7E5F9054B24626362044BA362A6
:103BD000044BE362044B236310BDC046793F0000F1
:103BE000A13F0000D93F00000540000010B5024988
:103BF00000F0BAF810BDC046253B000070B568253E
:103C00004A1E55430E0029007431FFF735FA041E91
:103C100008D000212A00016046600C30A0606832A4
:103C2000FFF7B6F9200070BD10B5024800F0CFF8DC
:103C300010BDC04689FFFF1F10B5024800F0C8F84C
:103C400010BDC04689FFFF1F10B5024800F0BFF845
:103C500010BDC0468AFFFF1F10B5024800F0B8F83B
:103C600010BDC0468AFFFF1F13B50400FFF7ECFF2D
:103C7000A369002B02D0FFF7EFFF13BDA364E36439
:103C80002365134B134A1B68A2620193A34201D11F
:103C90000123A361200000F01FF86060200000F005
:103CA0001BF8A060200000F017F800220421E0605B
:103CB0006068FFF777FF01220921A068FFF772FF14
:103CC00002221221E068FFF76DFF0123A361D2E712
:103CD0009C440000ED3B0000F8B50700FFF7A4FF8F
:103CE0001F4B1E68B369002B02D13000FFF7BCFFE9
:103CF0004836B4687368013B04D53368002B22D082
:103D00003668F6E70C22A55E002D1AD12000154B6F
:103D10005830E360656600F059F8FFF78DFF20002A
:103D2000082229002560A560656025616561A5619F
:103D30005C30FFF72DF96563A563A564E564200099
:103D4000F8BD6834D7E704213800FFF757FF041E99
:103D50003060D5D1FFF770FF0C233B60EFE7C04622
:103D60009C4400000100FFFFF7B504000600002797
:103D7000019148346368A5680093009B013B009360
:103D800004D52468002CF5D13800FEBDAB89012B89
:103D900008D90E22AB5E013304D029003000019B0C
:103DA000984707436835E8E7002370B5064D0400DF
:103DB000080011002B6000F0B5F9431C03D12B68FB
:103DC000002B00D0236070BD8CFFFF1F7047704731
:103DD0007047000070B50E001D000E23C95E140070
:103DE00096B0002908DA0C22B35E00222A601B0676
:103DF00011D48023DB000FE06A4600F02FF9002881
:103E0000F1DBF02301991B021940054BC9184B4205
:103E100059412960EDE740230020236016B070BDB2
:103E200000E0FFFFF7B502268B8905000C00334246
:103E300006D0230047332360236101236361F7BD6C
:103E40006A4601ABFFF7C6FF009907002800FFF79D
:103E500013F9002808D10C22A35E9A05EFD403229F
:103E600093431E43A681E4E70F4BAB628023A289F4
:103E700020601343A381009B20616361019B002BA1
:103E80000DD028000E23E15E00F0FAF8002806D0DD
:103E90000322A38993431A0001231343A381A0891A
:103EA0000743A781CBE7C046ED3B0000C9B28218AB
:103EB000904201D10020704703788B42FBD0013043
:103EC000F6E7000010B50248FFF781FF10BDC046BD
:103ED00088FFFF1F10B50248FFF77AFF10BDC046EC
:103EE00088FFFF1F70B504000D001F2904D9162399
:103EF00003600120404270BD436C002B04D08A0057
:103F00009B181A68002A08D1200000F031F82A0016
:103F10000100200000F01AF8EDE70020012AEAD0A5
:103F2000511C03D1162301302360E4E7002428004C
:103F30001C6090472000DEE710B5034B01001868B5
:103F4000FFF7D0FF10BDC04634FEFF1F002370B541
:103F5000064D0400080011002B6000F0F3F8431C2C
:103F600003D12B68002B00D0236070BD8CFFFF1F96
:103F700010B500F0CFF810BD70B50C000E25495FEC
:103F800000F0A4F8002803DB636D1B18636570BDA7
:103F9000A389024A1340A381F9E7C046FFEFFFFF60
:103FA000F8B51F008B8905000C001600DB0505D550
:103FB0000E23C95E0022022300F074F8A389054A8B
:103FC00028001340A38132000E23E15E3B0000F085
:103FD0001FF8F8BDFFEFFFFF70B50C000E25495F1D
:103FE00000F060F8A389421C03D1054A1340A38165
:103FF00070BD802252011343A3816065F8E7C0467B
:10400000FFEFFFFF10B50E23C95E00F015F810BDDD
:1040100070B50400080011001A000023054D2B6044
:10402000FDF750F9431C03D12B68002B00D023600F
:1040300070BDC0468CFFFF1F002370B5064D040005
:1040400008002B6000F056F8431C03D12B68002BAE
:1040500000D0236070BDC0468CFFFF1F002370B5E9
:10406000064D0400080011002B6000F04BF8431CC3
:1040700003D12B68002B00D0236070BD8CFFFF1F85
:10408000002370B5064D040008002B6000F052F8C4
:10409000431C03D12B68002B00D0236070BDC046A9
:1040A0008CFFFF1F70B50400080011001A000023E8
:1040B000054D2B6000F04EF8431C03D12B68002BFC
:1040C00000D0236070BDC0468CFFFF1F70B5040098
:1040D000080011001A000023054D2B60FDF71EF9A2
:1040E000431C03D12B68002B00D0236070BDC04659
:1040F0008CFFFF1F58220120014B40421A6070477D
:104100008CFFFF1F58220120014B40421A6070476C
:104110008CFFFF1F58220120014B40421A6070475C
:104120008CFFFF1F58220120014B40421A6070474C
:104130008CFFFF1F5822024B00201A607047C046B8
:104140008CFFFF1F58220120014B40421A6070472C
:104150008CFFFF1F58220120014B40421A6070471C
:104160008CFFFF1FFEE7C04670696E203C20333293
:10417000550000002F55736572732F6B7569776159
:104180006E672F446F63756D656E74732F41737323
:1041900069676E6D656E74352F61726D6763632F2D
:1041A0002E2E2F706C6174666F726D2F68616C2F8C
:1041B000696E632F66736C5F706F72745F68616C99
:1041C0002E68004E6F2044657669636520666F75C2
:1041D0006E646564210D0A004E6F204932432069E8
:1041E0006E7465726661636520666F756E64656482
:1041F000210D0A00416363656C3A20556E65787045
:10420000656374656420726573756C742066726F83
:104210006D2057484F5F414D5F4920283078253049
:104220003278290D0A00496E697469616C697A698E
:104230006E672046584F532E2E2E0D0A005265737E
:10424000657474696E672046584F532E2E2E0D0AE2
:1042500000556E61626C6520746F206D6F7665200D
:10426000746F205374616E646279206D6F64650AA7
:104270000A0D00556E61626C6520746F206D6F765B
:104280006520746F20416374697665206D6F646585
:104290000A0A0D00504F52545F48414C5F536574F9
:1042A0004D75784D6F6465006E1400008C1400002D
:1042B0008C140000821400008C1400008C14000088
:1042C0008C1400008C1400008C1400008C1400006E
:1042D0008C140000641400008C1400005A140000B8
:1042E0008C1400008C14000078140000E21600000A
:1042F0009E1A00009E1A00009E1A00009E1A0000DE
:104300009E1A00009E1A00009E1A00009E1A0000CD
:104310009E1A000066180000C2190000BA150000BD
:104320009E1A00009E1A00009E1A00009E1A0000AD
:10433000BA1500009E1A00009E1A00009E1A000086
:104340009E1A0000801A0000321800009A1800001F
:104350009E1A00009E1A0000EC1900009E1A000030
:10436000E21800009E1A00009E1A0000DA160000F3
:10437000898A0000006006400800000000600740D5
:104380000A00000000F00F4040F00F400090044091
:1043900000A004401E1F00001400010016000200CF
:1043A000180003001A0004001C0005001E0009008C
:1043B0002000060022000A002400070028000C004C
:1043C0002C001000300011003800120040000F00D7
:1043D0004400130048001400500015005800190054
:1043E0006000160068001A007000170080001C00B2
:1043F00090001D00A0001E00C0002200E0001F0071
:10440000F0002300000124002001250040012600C7
:1044100080012A00C0012700E0012B0000022C00CF
:1044200040022D0080022E000003320080032F0086
:10443000C00333000004340080043500000536005A
:1044400000063A000007370080073B0000083C00E8
:1044500000093D00000A3E00000C3F00000F2C2028
:1044600066756E6374696F6E3A200061737365726E
:1044700074696F6E2022257322206661696C656401
:104480003A2066696C6520222573222C206C696EA7
:1044900065202564257325730A00000038FEFF1F80
:1044A000232D302B2000686C4C006566674546471D
:1044B00000303132333435363738394142434445A0
:1044C000460030313233343536373839616263640F
:1044D0006566005245454E54206D616C6C6F6320DB
:1044E000737563636565646564002F746D702F6A0E
:1044F000656E6B696E732D4743432D31302D7069A6
:1045000070656C696E652D3333385F32303231310E
:104510003031385F313633343531363139352F73F8
:1045200072632F6E65776C69622F6E65776C696256
:104530002F6C6962632F7374646C69622F72616E91
:10454000642E630000000000000000000000000076
:10455000000000000000000000000000000000005B
:10456000000000000000000000000000000000004B
:10457000000000000000000000000000000000003B
:10458000000000000000000000000000000000002B
:10459000000000000000000000000000000000001B
:1045A00000000000F8B5C046F8BC08BC9E46704745
:0C45B000F8B5C046F8BC08BC9E46704739
:0845BC009CBEFF7F010000001E
:0445C40039040000B6
:0445C80011040000DA
:1045CC00F800F8FFF8FEF8FDF9FCF9FBFAFAFBF934
:1045DC00FCF9FDF8FEF8FFF800F801F802F803F812
:1045EC0004F905F906FA07FB07FC08FD08FE08FFAD
:1045FC0008002F3F38FEFF1F00000000644500003C
:10460C00844500004445000000000000000000004C
:10461C00000000000000000000000000000000008E
:10462C00000000000000000000000000000000007E
:10463C00000000000000000000000000000000006E
:10464C00000000000000000000000000000000005E
:08465C00000000000000000056
:04000003000004D91C
:00000001FF
