:1000000000060020D9040000E9040000E904000013
:1000100000000000000000000000000000000000E0
:10002000000000000000000000000000E9040000E3
:100030000000000000000000E9040000E9040000E6
:10004000E9040000E9040000E9040000E9040000FC
:10005000E9040000E9040000E9040000E9040000EC
:1000600099130000E90400007F180000E904000073
:10007000E9040000E9040000E9040000E9040000CC
:10008000E9040000E9040000E9040000E9040000BC
:10009000E9040000E9040000E9040000E9040000AC
:1000A000E9040000E9040000E9040000E90400009C
:1000B000E9040000E9040000E904000071130000F5
:10040000FFFFFFFFFFFFFFFFFFFFFFFFFE3DFFFFBF
:1004100010B5064C2378002B07D1054B002B02D0DA
:10042000044800E000BF0123237010BDA0FEFF1FA1
:100430000000000088760000044B10B5002B03D0AC
:100440000349044800E000BF10BDC04600000000A2
:10045000A4FEFF1F88760000402292029A1A92465C
:100460007047C046174B002B00D1134B9D46FFF73A
:10047000F3FF00218B460F461348144A121A04F06A
:1004800021FF0E4B002B00D098470D4B002B00D0C6
:1004900098470020002104000D000D48002802D0DC
:1004A0000C4800E000BF04F0DFFE2000290000F04F
:1004B00099FD04F0B3FEC0460000080000000000F3
:1004C0000000000000060020A0FEFF1F98FFFF1F95
:1004D000000000000000000072B601F00FFF01F004
:1004E0002BFF62B6FFF7BEFF00480047E90400009B
:1004F0000023C25C0133002AFBD1581E7047000064
:1005000003B47146490840004900095E49008E4421
:1005100003BC7047002243088B4274D303098B420B
:100520005FD3030A8B4244D3030B8B4228D3030CC3
:100530008B420DD3FF22090212BA030C8B4202D365
:100540001212090265D0030B8B4219D300E0090A8D
:10055000C30B8B4201D3CB03C01A5241830B8B4296
:1005600001D38B03C01A5241430B8B4201D34B037F
:10057000C01A5241030B8B4201D30B03C01A5241E4
:10058000C30A8B4201D3CB02C01A5241830A8B4269
:1005900001D38B02C01A5241430A8B4201D34B0252
:1005A000C01A5241030A8B4201D30B02C01A5241B6
:1005B000CDD2C3098B4201D3CB01C01A524183096A
:1005C0008B4201D38B01C01A524143098B4201D3A4
:1005D0004B01C01A524103098B4201D30B01C01ACF
:1005E0005241C3088B4201D3CB00C01A5241830849
:1005F0008B4201D38B00C01A524143088B4201D376
:100600004B00C01A5241411A00D2014652411046D5
:100610007047FFE701B5002000F0F0F802BDC046CA
:100620000029F7D076E7704703460B437FD40022BA
:1006300043088B4274D303098B425FD3030A8B4276
:1006400044D3030B8B4228D3030C8B420DD3FF22E0
:10065000090212BA030C8B4202D31212090265D0AE
:10066000030B8B4219D300E0090AC30B8B4201D361
:10067000CB03C01A5241830B8B4201D38B03C01AA8
:100680005241430B8B4201D34B03C01A5241030B1F
:100690008B4201D30B03C01A5241C30A8B4201D3D0
:1006A000CB02C01A5241830A8B4201D38B02C01A7B
:1006B0005241430A8B4201D34B02C01A5241030AF2
:1006C0008B4201D30B02C01A5241CDD2C3098B42D7
:1006D00001D3CB01C01A524183098B4201D38B0154
:1006E000C01A524143098B4201D34B01C01A5241F7
:1006F00003098B4201D30B01C01A5241C3088B423C
:1007000001D3CB00C01A524183088B4201D38B0026
:10071000C01A524143088B4201D34B00C01A5241C8
:10072000411A00D201465241104670475DE0CA0F9F
:1007300000D04942031000D34042534000229C465F
:1007400003098B422DD3030A8B4212D3FC22890169
:1007500012BA030A8B420CD3890192118B4208D33F
:10076000890192118B4204D389013AD0921100E0A1
:100770008909C3098B4201D3CB01C01A52418309B5
:100780008B4201D38B01C01A524143098B4201D3E2
:100790004B01C01A524103098B4201D30B01C01A0D
:1007A0005241C3088B4201D3CB00C01A5241830887
:1007B0008B4201D38B00C01A5241D9D243088B42DD
:1007C00001D34B00C01A5241411A00D20146634680
:1007D00052415B10104601D34042002B00D54942E4
:1007E000704763465B1000D3404201B5002000F023
:1007F00005F802BD0029F8D016E770477047C046DB
:10080000F0B5CE46474680B5070099463B0C9C465E
:1008100013041B0C1D000E0061460004140C000C98
:1008200045434B4360436143C0182C0C20188C4651
:10083000834203D980235B029846C44449467943E6
:100840007243030C63442D042D0CC9180004401995
:100850008918C0BCB946B046F0BDC04680B584B06A
:1008600000AF7860114B1B68002B02D10F4B104A70
:100870001A600E4B1B68FB600C4B1A687B68D21821
:100880000C4B9A4207D904F0C3FC03000C221A60F7
:1008900001235B4206E0054B1A687B68D218034BC4
:1008A0001A60FB681800BD4604B080BDBCFEFF1F87
:1008B00098FFFF1F9801002080B584B000AFF8605A
:1008C000B960FB1D1A70BB681F2B05D90A4B0B4A78
:1008D0000B48FF2104F07EFCFB1D1A78BB689B00CF
:1008E000F968CB181900074B0B4312021A60C04677
:1008F000BD4604B080BDC0469C6400003C70000052
:10090000A86400000000101480B584B002AF02009B
:10091000FB1D1A7085235B00180002F021FB0C20E0
:1009200002F01EFB0C4BFA1D12781A700B490A4A92
:10093000FA239B000193012300930B000021002068
:1009400003F0E4FE85235B00180002F0EDFAC046D8
:10095000BD4602B080BDC046E0FEFF1FC0FEFF1FC7
:1009600090B58DB002AF0200FB1D1A70BB1D0A1CB2
:100970001A7008243B1900221A6004331C2200213B
:10098000180004F09FFC21007B1821221A707B18AC
:10099000FA1D12785A70BB1D1B780133DAB27B182E
:1009A0009A70FB1D1B780433DAB27B18DA70BB1D1A
:1009B0001B780133DAB27B181A717B18FF225A7147
:1009C0007B1800229A717B180022DA717B18212291
:1009D0001A72FB1D1B780133DAB27B185A727B182E
:1009E000BA1D12789A72FB1D1B780133DAB27B189C
:1009F000DA72BB1D1B780233DAB27B181A737B18CC
:100A0000FF225A737B1800229A737B180022DA7334
:100A10007B1821221A74FB1D1B780233DAB27B1873
:100A20005A74BB1D1B780133DAB27B189A74FB1D14
:100A30001B780233DAB27B18DA74BB1D1B780333E0
:100A4000DAB27B181A757B18FF225A757B180022C0
:100A50009A757B180022DA757B1821221A76FB1D05
:100A60001B780333DAB27B185A767B18BA1D1278DA
:100A70009A76FB1D1B780333DAB27B18DA76BB1D3E
:100A80001B780233DAB20C003B191A773B19FF22AC
:100A90005A773B1900229A773B190022DA7785238F
:100AA0005B00180002F05CFA0C2002F059FA0A49C7
:100AB0003A19FA239B000193202300930B00002195
:100AC000002003F023FE85235B00180002F02CFABF
:100AD000C046BD460BB090BDC0FEFF1F90B589B0AB
:100AE00002AF040008001100FB1D221C1A70BB1D80
:100AF000021C1A707B1D0A1C1A7008243B19002264
:100B00001A60043308220021180004F0DBFB1720D0
:100B10003B180C221A704F4B1B781A00FB1D1B78D8
:100B2000023B9A4233DB4B4B1B781A00FB1D1B78B0
:100B300007339A422BDC484B1B781A00BB1D1B78ED
:100B4000023B9A4223DB444B1B781A00BB1D1B78E7
:100B500005339A421BDC21007B1825221A707B1872
:100B6000FA1D12785A707B18BA1D12789A70FB1D04
:100B70001B780433DAB27B18DA70BB1D1B780333A1
:100B8000DAB27B181A713B1805221A703EE0082170
:100B90007B1823221A707B18FA1D12785A707B1862
:100BA000BA1D12789A70FB1D1B780433DAB27B18D9
:100BB000DA70BB1D1B780333DAB27B181A717B180D
:100BC000FA1D12785A71BA1D7B1D12781B78D31842
:100BD000DAB27B189A717B182522DA717B18FA1D1C
:100BE00012781A727B18BA1D12785A72FB1D1B7884
:100BF0000433DAB27B189A72BA1D7B1D12781B7807
:100C0000D318DBB2013BDAB27B18DA72642001F050
:100C1000BDFD85235B00180002F0A2F90C2002F054
:100C20009FF91723FB181B780C480822B918FA22E1
:100C300092000192009303000A000021002003F0BB
:100C400065FD85235B00180002F06EF9C046BD46C5
:100C500007B090BD00FEFF1F01FEFF1FC0FEFF1F7B
:100C6000B0B588B002AF05000C0010001900FB1DE4
:100C70002A1C1A70BB1D221C1A707B1D021C1A70C4
:100C80003B1D0A1C1A7008243B1900221A60043309
:100C900009220021180004F015FB1723FB180D2270
:100CA0001A7021007B1825221A702823FB181B7844
:100CB000002B16D1FB1D1B78083BDAB27B185A704B
:100CC000BB1D1B78083BDAB27B189A70FB1D1B78A2
:100CD0000833DAB27B18DA707B18BA1D12781A71F1
:100CE00036E07B1D1B787F2B19D908217B18FA1D54
:100CF00012785A707B18BA1D12789A707B1D1B7877
:100D0000FA1D1278D31ADAB27B18DA703B1D1B7801
:100D1000BA1D1278D31ADAB27B181A7118E07B1D4B
:100D20001B78FA1D1278D31ADAB208217B185A7090
:100D30007B18BA1D12789A707B18FA1D1278DA7037
:100D40003B1D1B78BA1D1278D31ADAB27B181A71C0
:100D500008217B1821225A717B18FA1D12789A718A
:100D60007B18BA1D1278DA717B1D1A78FB1D1B786F
:100D7000D318DAB27B181A723B1D1A78BB1D1B7888
:100D8000D318DAB20C003B195A723B1900229A723E
:100D90003B190022DA723B19FF221A7385235B008C
:100DA000180002F0DDF80C2002F0DAF81723FB1827
:100DB0001B780A483919FA22920001920093030025
:100DC0000A000021002003F0A1FC85235B0018002D
:100DD00002F0AAF8C046BD4606B0B0BDC0FEFF1F77
:100DE000B0B586B002AF05000C0010001900FB1D65
:100DF0002A1C1A70BB1D221C1A707B1D021C1A7043
:100E00003B1D0A1C1A7008217B1800221A60002260
:100E10001A717B1825221A707B1D1B787F2B18D91D
:100E20007B18FA1D12785A707B18BA1D12789A70C6
:100E30007B1D1B78FA1D1278D31ADAB27B18DA7090
:100E40003B1D1B78BA1D1278D31ADAB27B181A71BF
:100E500018E07B1D1B78FA1D1278D31ADAB208212C
:100E60007B185A707B18BA1D12789A707B18FA1D7D
:100E70001278DA703B1D1B78BA1D1278D31ADAB2D9
:100E80007B181A7185235B00180002F069F80C20AA
:100E900002F066F80A490823FA18FA239B00019326
:100EA000052300930B000021002003F02FFC852375
:100EB0005B00180002F038F8C046BD4604B0B0BD73
:100EC000C0FEFF1F80B500AF80235B00180002F05A
:100ED00047F8642001F05AFC80235B00180002F000
:100EE00023F8AE20FFF710FDA020FFF70DFD7220C4
:100EF000FFF70AFDA120FFF707FD0020FFF704FD23
:100F0000A220FFF701FD0020FFF7FEFCA420FFF761
:100F1000FBFCA820FFF7F8FC3F20FFF7F5FCAD2015
:100F2000FFF7F2FC8E20FFF7EFFCB020FFF7ECFCA0
:100F30000B20FFF7E9FCB120FFF7E6FC3120FFF7BB
:100F4000E3FCB320FFF7E0FCF020FFF7DDFC8A2094
:100F5000FFF7DAFC6420FFF7D7FC8B20FFF7D4FC07
:100F60007820FFF7D1FC8A20FFF7CEFC6420FFF742
:100F7000CBFCBB20FFF7C8FC3A20FFF7C5FCBE2026
:100F8000FFF7C2FC3E20FFF7BFFC8720FFF7BCFC49
:100F90000620FFF7B9FC8120FFF7B6FC9120FFF790
:100FA000B3FC8220FFF7B0FC5020FFF7ADFC83209C
:100FB000FFF7AAFC7D20FFF7A7FC2520FFF7A4FC84
:100FC0000020FFF7A1FC0020FFF79EFC5F20FFF749
:100FD0009BFC3F20FFF798FCAF20FFF795FCC04635
:100FE000BD4680BDF0B5BDB002AF9826BB19D54A4D
:100FF0001A60BB1900221A71BB1900225A71BB1961
:1010000000229A7140203B18CF4A1A603B18CF4A01
:101010005A603B18CE4A9A6060217B183A189A6051
:101020007B185822BA185A607B1864221A610C0087
:101030007B181D229A813B1900221A70002004F0AF
:101040008FFD02000B001300180004F009FDE723D8
:10105000FB1800221A70E623FB1800221A70E52301
:10106000FB1800221A70DE23FB1802221A700023DC
:10107000E022BA181360DF23FB1814221A7000F064
:1010800006FC30257B19180010231A00002104F0FB
:1010900019F97B190622FF321A607B1901221A7195
:1010A0007B190A22DA717B19012252429A603B00B5
:1010B000180030231A00002104F004F93B000C2230
:1010C0001A603B0001225A603B0085225200DA6020
:1010D0003B0001221A613B00802252009A613B00D2
:1010E0000122DA613B00012252425A623A007B1926
:1010F0001100180001F048FE964B01220C21180047
:10110000FFF7DAFB944B01220A211800FFF7D4FB0A
:10111000914B012200211800FFF7CEFB8D4B0322DB
:1011200008211800FFF7C8FB8A4B03220921180089
:10113000FFF7C2FB01F052FB3B19180000F084F9E5
:10114000A023FB181900002003F050FAD023FA184E
:10115000BB191900002003F09DFAFFF7B3FEE6E08B
:1011600004F0AEFC03005C211800FFF743FB0B000A
:101170001A00DD217B181A70E7203B1800221A7034
:101180003B181A787B181B7811001800FFF7E8FB52
:10119000C1E0DE257B191A78E7243B191978DD2395
:1011A000FB181B781800FFF799FC3B1939197A19BD
:1011B000097812788A181A706022BB185B685B681D
:1011C0004C243919BA18100098472200BB189B7894
:1011D0001B0219B2BB18DB781AB2DA203B180A439B
:1011E0001A803B1800229B5E64211800FFF71CFA4E
:1011F00003001BB25A33002B00DA0733DB101A004E
:10120000D9203B181A703B1800215956D8243B1995
:10121000524A49008A5C1A703B1800229A56D72518
:101220007B194E4952008A18013212781A707B19C4
:10123000002159563B1900229A56002300930B00B7
:101240003F212F20FFF70CFD454B1B78DBB2002B15
:1012500018D0434B00221A70E6217B183A191278F5
:101260001A70E5203B187A1912781A707B181B78CF
:101270002F33DAB23B4B1A703B181B783F33DAB28C
:10128000394B1A70394B1B78012B3ED1354B1878EE
:10129000354B1978E5257B1900241C57E626BB1928
:1012A00000229A56012300932300FFF7D9FC2D4B0F
:1012B0001A78BB191B78D318DAB22A4B1A702A4B4A
:1012C0001A787B191B78D318DAB2274B1A70254B82
:1012D0001B78072B07D9244B1B78072B03D9214BED
:1012E0001B78562B11D9214B00221A701D4B1878F0
:1012F0001D4B1978E523FB1800241C57E623FB1827
:1013000000229A562300FFF76BFDE022BB181B68F2
:101310000133BA181360E723FB181B783C2B00D865
:1013200037E7DF22BB18BA181278013A1A70DF23A8
:10133000FB181B78002B00D012E700231800BD46D5
:101340003BB0F0BD80969800E53200006B340000A1
:10135000353400000090044000A0044004FEFF1F4C
:1013600000FFFF1F00FEFF1F01FEFF1F01FFFF1F09
:1013700080B500AF0623FF33180001F00DFE044BCB
:1013800001221A70034B01221A70C046BD4680BD6F
:1013900001FFFF1F00FFFF1F80B500AF002001F01D
:1013A00043FEC046BD4680BDB0B588B004AF78608E
:1013B0000A00FB1C1A700F257B1900221A707B682B
:1013C0009B685C687B681B7818007B680C3319008D
:1013D000FA1CC8230293012301937B190093012374
:1013E000A047031E02D17B191B7800E000231800E0
:1013F000BD4604B0B0BD90B587B004AF78600800BA
:101400001100FB1C021C1A70BB1C0A1C1A707B68A2
:101410009B689C687B681B7818007B680C331900FC
:10142000FA1CC823029301230193BB1C00930123E0
:10143000A047031E01D1002301E001235B421800F5
:10144000BD4603B090BD0000B0B584B000AF786079
:101450000E23FB1800221A700F243B1900221A7069
:101460007B68002B06D1364B180000F0DDFA3B19E3
:10147000FF221A707B689B68002B07D1314B180044
:1014800000F0D2FA0F23FB18FF221A700F23FB186B
:101490001B785BB2002B4BD17B689B681B687A681A
:1014A000127810007A681432110098470E257C19C2
:1014B0007B680D211800FFF777FF030023707B196D
:1014C0001B781A2B02D0C72B0DD019E07B685B6804
:1014D0001D4A1A607B685B681C4A5A600E23FB1821
:1014E00001221A7018E07B685B68194A1A607B68F1
:1014F0005B68184A5A600E23FB1802221A700BE030
:101500000E23FB181A78144B1100180000F08CFA07
:101510000F23FB18FF221A700F23FB181B785BB2F6
:10152000002B05D17B685B681B687A6810009847C0
:101530000F23FB181B785BB21800BD4604B0B0BD8A
:10154000F864000010650000F5160000D1170000D7
:101550005D1500007D1600002C650000B0B584B05C
:1015600000AF78600B243B1940221A703E4B1800E4
:1015700000F05AFA3D4B180000F056FA3B191A7861
:101580007B682B211800FFF736FF0023FB6003E088
:10159000C046FB680133FB60FB68354A9342F7D9CC
:1015A0000A257C197B682A211800FFF7FDFE03003D
:1015B00023707B191B7801229343DAB27B682A21BE
:1015C0001800FFF718FF7C197B682A211800FFF725
:1015D000EBFE030023707B191B780122134005D01A
:1015E000244B180000F020FA012338E07B68002229
:1015F00009211800FFF7FFFE7B6802222B2118004B
:10160000FFF7F9FE7B685F225B211800FFF7F3FE0E
:101610007B6820225C211800FFF7EDFE7B68012229
:101620000E211800FFF7E7FE7B6809222A21180027
:10163000FFF7E1FE0A257C197B682A211800FFF7D5
:10164000B3FE030023707B191B780122134005D1E0
:10165000094B180000F0E8F9012300E0002318000E
:10166000BD4604B0B0BDC0466065000078650000AE
:10167000FEFF00008C650000B065000080B582B000
:1016800000AF786039603A6878680C23012100F077
:1016900005F803001800BD4602B080BDF0B589B062
:1016A00004AFF86008007A6019000B26BB19021C11
:1016B0001A700A203B180A1C1A70FB689B685C6849
:1016C000FB681B781D00FB680C3319003B181B7866
:1016D000BA19C820029001937B6800930123280067
:1016E000A047031E01D1002300E001231800BD46DE
:1016F00005B0F0BDB0B584B000AF78600F257B19A0
:1017000000221A707C197B682A211800FFF74CFE12
:10171000030023707B197A19127801218A431A7009
:101720007B191A787B682A211800FFF764FE7C1960
:101730007B680E211800FFF737FE030023707B192A
:101740007A19127803218A431A707B197A19127850
:1017500001210A431A707B191A787B680E21180040
:10176000FFF749FE7C197B6809211800FFF71CFE72
:10177000030023707B197A1912783F210A401A70EE
:101780007B191A787B6809211800FFF734FE7C1951
:101790007B682A211800FFF707FE0300237028004A
:1017A0003B183A18127801210A431A703B183A186C
:1017B000127802218A431A703B181A787B682A2112
:1017C0001800FFF718FE00231800BD4604B0B0BD96
:1017D000B0B584B000AF786039603B68002B01D1B0
:1017E000002348E00F23FB1800221A700F257C19F4
:1017F0007B6800211800FFF7D7FD030023707B19D9
:101800001B7808221340F1D07B6801211800FFF7F4
:10181000CBFD03001A003B681A707B680221180098
:10182000FFF7C2FD03001A003B685A707B68032172
:101830001800FFF7B9FD03001A003B689A707B6837
:1018400004211800FFF7B0FD03001A003B68DA70AE
:101850007B6805211800FFF7A7FD03001A003B680D
:101860001A717B6806211800FFF79EFD03001A001D
:101870003B685A7101231800BD4604B0B0BD80B565
:1018800000AF002002F0C2FDC046BD4680BD80B55D
:1018900000AF002001F036F8012001F033F80020FD
:1018A00000F02EF8002000F047F8C046BD4680BD8D
:1018B00080B584B000AFF860B960FB1D1A70BB68DA
:1018C0001F2B05D90A4B0B4A0B48FF2103F082FC62
:1018D000FB1D1A78BB689B00F968CB181900074BF1
:1018E0000B4312021A60C046BD4604B080BDC0461C
:1018F000D465000050700000E06500000000101486
:1019000080B582B000AF78607B68002B0CD1094BAA
:10191000022203211800FFF7CBFF064B022204210D
:101920001800FFF7C5FF00E0C046C046BD4602B044
:1019300080BDC04600A0044080B582B000AF786092
:101940007B68002B18D10F4B032205211800FFF7ED
:10195000AFFF0C4B032206211800FFF7A9FF094B2C
:10196000032207211800FFF7A3FF074B03220021E2
:101970001800FFF79DFF00E0C046C046BD4602B01C
:1019800080BDC0460090044000A0044090B585B0E2
:1019900000AFF860B9607A60BB68002B02D1012308
:1019A0005B4218E0FB68012B05D0FB68022B02D0DC
:1019B00001235B420FE00A4B1B78002B02D101236D
:1019C0005B4208E0064B9C68054B5B687A68B96827
:1019D0001800A0477B681800BD4605B090BDC04602
:1019E00004FFFF1F90B585B000AFF860B9607A6062
:1019F000FB68002B02D001235B420FE0094B1B78F0
:101A0000002B02D101235B4208E0064BDC68054B4A
:101A10005B687A68B9681800A0477B681800BD4603
:101A200005B090BD04FFFF1F0FB480B584B002AFB6
:101A30000E4B1B78002B02D101235B420FE01423D5
:101A4000FB183B60386901235A4209493B680093FF
:101A50000300002000F030F803007B607B68180072
:101A6000BD4602B080BC08BC04B0184704FFFF1F8D
:101A7000751A000090B585B000AF786039607B685A
:101A8000DAB20F23FB181A700A4B1B78002B02D115
:101A900001235B4209E0074B9C68064B5B680F2201
:101AA000B91801221800A04700231800BD4605B050
:101AB00090BDC04604FFFF1FB0B5A4B004AFF860EE
:101AC000B9607A603B600023FB617B683B657B68A3
:101AD000013301D1CE4B7B603B68FB6752E3FB6C6B
:101AE000252B08D0F968FA6CBB6810009847FB6991
:101AF0000133FB6143E35B23FB1801221A700023CF
:101B0000FB6600233B672BE0FB6F0133FB67FB6F3A
:101B10001B78203B102B1DD89A00BE4BD3181B6896
:101B20009F46FB6E01221343FB6619E0FB6E022207
:101B30001343FB6614E0FB6E04221343FB660FE0C5
:101B4000FB6E08221343FB660AE0FB6E1022134370
:101B5000FB6605E0FB6F013BFB6701233B67C0466B
:101B60003B6F002BD0D00023BB6600233B671AE0FD
:101B7000FB6F0133FB67FB6F1B78FB64FB6C303B37
:101B8000092B0AD8BA6E13009B009B185B001A0041
:101B9000FB6CD318303BBB6605E0FB6F013BFB677A
:101BA00001233B67C0463B6F002BE1D006237B65DA
:101BB000FB6F0133FB67FB6F1B782E2B23D10023B8
:101BC0007B6500233B671AE0FB6F0133FB67FB6F0C
:101BD0001B78FB64FB6C303B092B0AD87A6D130031
:101BE0009B009B185B001A00FB6CD318303B7B6595
:101BF00005E0FB6F013BFB6701233B67C0463B6F82
:101C0000002BE1D002E0FB6F013BFB67FB6F013370
:101C1000FB67FB6F1B786C2B0FD019DC4C2B1BD098
:101C2000682B15D1FB6F0133FB67FB6F1B78682BAB
:101C300014D0FB6F013BFB6710E0FB6F0133FB67C8
:101C4000FB6F1B786C2B0BD0FB6F013BFB6707E036
:101C5000FB6F013BFB6704E0C04602E0C04600E0CA
:101C6000C046FB6F0133FB67FB6F1B78FB64FB6CAB
:101C7000583B202B00D976E29A00674BD3181B689B
:101C80009F46882108200B18DB191B681A1D0918AC
:101C9000C9190A601B68BB611823F9182024381978
:101CA0005B23FB181B7800930A23012200F07CFAC7
:101CB00003007B673A197B6FD318BB67BB69002BA6
:101CC00005DA2D237B667B6F01337B6715E0FB6EA6
:101CD0000222134005D02B237B667B6F01337B6789
:101CE0000BE0FB6E0422134005D020237B667B6F44
:101CF00001337B6701E000237B6600233B66FB6EBC
:101D0000082213401DD07B6E002B07D0F9687A6E35
:101D1000BB6810009847FB690133FB6101233B66F8
:101D2000BA6E1C23F818796F3B1D0293FB68019370
:101D3000BB6800930300302000F0BDFABB6E7B67E8
:101D40001EE0FB6E012213401AD1BA6E1C23F81854
:101D5000796F3B1D0293FB680193BB6800930300FE
:101D6000202000F0A8FA7B6E002B07D0F9687A6E6D
:101D7000BB6810009847FB690133FB6101233B6698
:101D80003B6E002B00D056E17B6E002B00D152E160
:101D9000F9687A6EBB6810009847FB690133FB61F4
:101DA00049E15B23FB1800221A70882108200B18D8
:101DB000DB191B681A1D0918C9190A601B687B61A9
:101DC0001423F918202438195B257B191B780093FC
:101DD0001023002200F0E8F903007B673A197B6FBB
:101DE000D318BB6700233B66FB6E0822134030D03C
:101DF000FB6E102213401BD0FA68BB681100302024
:101E000098477B191B78002B08D0582207E0C04662
:101E1000FEFFFF7F64700000A87000007822F96860
:101E2000BB6810009847FB690233FB6101233B66E6
:101E3000BA6E1C23F818796F3B1D0293FB6801935F
:101E4000BB6800930300302000F035FABB6E7B675F
:101E500032E0FB6E012213402ED1FB6E10221340A4
:101E600002D07B6F02337B67BA6E1C23F818796F40
:101E70003B1D0293FB680193BB6800930300202085
:101E800000F019FAFB6E1022134015D0FA68BB68F7
:101E90001100302098475B23FB181B78002B01D0E2
:101EA000582200E07822F968BB6810009847FB6967
:101EB0000233FB6101233B66FB6E1022134000D10D
:101EC000BBE03B6E002B00D0B7E0FA68BB681100A6
:101ED000302098475B23FB181B78002B01D0582239
:101EE00000E07822F968BB6810009847FB6902336C
:101EF000FB617B6F02337B679FE0882108200B1812
:101F0000DB191B681A1D0918C9190A601B687B6157
:101F10001423F9182023F8185B23FB181B7800936F
:101F20000823002200F040F903007B6756E0882177
:101F300008200B18DB191B681A1D0918C9190A603B
:101F40001B687B611423F9182023F8185B23FB1806
:101F50001B7800930223002200F026F903007B6720
:101F60003CE0882108240B19DB191B681A1D08198D
:101F7000C01902601B687B6120000B18DB191B680D
:101F80001A1D0918C9190A601B687B611423F91806
:101F90002023F8185B23FB181B78009310230022E2
:101FA00000F002F903007B6718E0882108200B1875
:101FB000DB191B681A1D0918C9190A601B687B61A7
:101FC0001423F9182023F8185B23FB181B780093BF
:101FD0000A23002200F0E8F803007B672023FA18A8
:101FE0007B6FD318BB67FB6E0822134010D0BA6E0C
:101FF0001C23F818796F3B1D0293FB680193BB68A3
:1020000000930300302000F056F9BB6E7B6724E09C
:10201000FB6E0122134012D1BA6E1C23F818796F9F
:102020003B1D0293FB680193BB68009303002020D3
:1020300000F041F911E0C0460FE0C0460DE0C04697
:102040000BE0BB6F5A1EBA671B781800FA68BB68B2
:1020500011009847FB690133FB61BB6F1B78002BB4
:10206000EFD1FB6E0122134000D185E0BA6E1C2334
:10207000F818796F3B1D0293FB680193BB680093CE
:102080000300202000F017F976E0882108200B18C3
:10209000DB191B681A1D0918C9190A601B68DBB215
:1020A0007B64F9687A6CBB6810009847FB69013360
:1020B000FB6164E0882108200B18DB191B681A1DDE
:1020C0000918C9190A601B68FB65FB6D002B55D008
:1020D000FB6D1800FEF70CFA03007B67FB6E012214
:1020E00013401AD1BA6E1C23F818796F3B1D029366
:1020F000FB680193BB6800930300202000F0DBF82D
:102100000BE0FB6D5A1CFA651B781800FA68BB6877
:1021100011009847FB690133FB61FB6D1B78002BB5
:10212000EFD1FB6E0122134028D0BA6E1C23F818A1
:10213000796F3B1D0293FB680193BB68009303001A
:10214000202000F0B8F819E0882108200B18DB19CE
:102150001B681A1D0918C9190A601B68BB64FA6953
:10216000BB6C1A600BE0F968FA6CBB68100098470A
:10217000FB690133FB6102E0C04600E0C046FB6F33
:102180000133FB67FB6F1B78FB64FB6C002B00D0FB
:10219000A5E47B68002B01D0FB6900E03B6D1800D3
:1021A000BD4620B0B0BDC04680B58CB000AFF86071
:1021B000B9607A603B600023FB61FB68BB61BB696F
:1021C0005A1CBA6100221A707B68002B32D0BB689F
:1021D0001B68FB62FB6A002B28D1BB6930221A7096
:1021E000FB690133FB6161E03968F86AFEF71CFAAC
:1021F00003003B613B693A685343FA6AD31ABB62F6
:10220000BB6A002B04DABB6A3022D31ABB6202E03D
:10221000BB6A3033BB623B69FB62BB695A1CBA6163
:10222000BA6AD2B21A70FB690133FB61FB6A002BF8
:10223000DAD13BE0BB681B687B627B6A002B31D143
:10224000BB6930221A70FB690133FB612EE03B68E9
:102250001900786AFEF75EF903007B613B687A69D2
:1022600053437A6AD31A3B623B6A092B03D83B6A11
:1022700030333B620BE03823FB181B78002B01D076
:10228000412300E061233A6A9B180A3B3B627B6969
:102290007B62BB695A1CBA613A6AD2B21A70FB6996
:1022A0000133FB617B6A002BD1D1C046FB6918006A
:1022B000BD460CB080BD80B586B000AFF860B96097
:1022C0007A603B60BB687B610EE0FB68DBB21800A4
:1022D0007A6A3B6A110098473B681B685A1C3B6846
:1022E0001A607B6901337B617A697B689A42ECDB17
:1022F000C046C046BD4606B080BD000080B500AFF8
:102300000B4B9B78DBB21A000823134007D0084B15
:102310009B78DBB2064A08210B43DBB29370054A77
:1023200088235B010021D150C046BD4680BDC04618
:1023300000D007400070044080B588B000AF284B43
:10234000FB60284A284B9A4216D00023FB610AE022
:10235000254BFA699200D158224BFA699200D1506C
:10236000FB690133FB61FB689B08FA699A42EFD372
:102370001E4B1C4A9A6002E01C4B1B4A9A601C4B85
:10238000BB611C4B7B611C4BBB60BA687B69D31A79
:10239000FB6107E07A69531C7B61BB69591CB96119
:1023A00012781A70FB695A1EFA61002BF2D1134B96
:1023B0003B61134B7B607A683B69D31AFB6104E095
:1023C0003B695A1C3A6100221A70FB695A1EFA6175
:1023D000002BF5D1C046C046BD4608B080BDC04602
:1023E00000000000000000000000000000ED00E020
:1023F00000FEFF1FB076000050770000A0FEFF1F18
:1024000098FFFF1F80B582B000AF78600A00FB1C08
:102410001A70FB1C1B781F221A407B680E49591842
:10242000FB1C1B785B09DBB20C48844663449B00B1
:10243000CB181800FB1C1B78D905F8231B050B4093
:102440000343802149050B43012191400A001A6092
:10245000C046BD4602B080BD34100000FDFFFF3F06
:1024600080B582B000AF7860044B80211800FFF780
:10247000C9FFC046BD4602B080BDC04600700440E2
:1024800080B582B000AF78607B681A0080235B055E
:10249000134301221A60C046BD4602B080BD80B51C
:1024A00082B000AF78607B681A0080235B0513431D
:1024B00000221A60C046BD4602B080BD80B582B021
:1024C00000AF78600A00FB1C1A70FB1C1A787B684E
:1024D000190098235B050B4392011A60C046BD4664
:1024E00002B080BD80B582B000AF0020FFF7B8FF1A
:1024F000144B1800FFF7D3FF3B1D01221A703B1D40
:1025000001225A703B1D0F4A1968100001F0BCFEF1
:102510003B0001225A703B0000221A703B00094A1E
:102520001968100001F082FE064B00211800FFF729
:10253000C5FF044B1800FFF7A3FFC046BD4602B01D
:1025400080BDC0460000044080B582B000AF786016
:1025500039603A687B689A4203D33A687B68D31A39
:1025600006E03A687B68D31A80225202944663449C
:102570001800BD4602B080BD80B582B000AF786063
:102580000A00FB1C1A707B68002B05D10B4B0C4A10
:102590000C48762102F01EFE7B68FA1C12785A70F5
:1025A0007B6800221A707B6800225A607B680022D8
:1025B0009A6000231800BD4602B080BD306600005E
:1025C0002C7100003866000090B585B000AF7860CF
:1025D00039607B68002B05D12A4B2B4A2B4895216B
:1025E00002F0F8FD7B685B78DBB2002B0FD000F0C7
:1025F0000BFA7B685B78DBB2013BDAB27B685A701E
:102600007B6800221A7000F0E9F9002335E03B688E
:10261000002B01D1022330E07B681B78DBB2002B5A
:1026200018D000F0CFF80300FB607B689C687B68E3
:102630005B68FA6811001800FFF786FF03009C42F0
:102640001AD200F0E1F97B6800221A7000F0C6F996
:10265000022312E03B6801330ED000F0D5F97B680D
:1026600001221A7000F0BAF900F0ACF802007B68A1
:102670005A607B683A689A6003231800BD4605B02B
:1026800090BDC046306600003C7100003866000016
:1026900080B582B000AF78607B68002B05D10E4B0F
:1026A0000E4A0F48CE2102F095FD7B685B78DBB2C5
:1026B000FF2B01D101230BE000F0A6F97B685B78CA
:1026C000DBB20133DAB27B685A7000F087F900237D
:1026D0001800BD4602B080BD306600004C7100009D
:1026E0003866000080B582B000AF786039607B68E2
:1026F000002B06D10A4B0B4ADE21FF310A4802F0BB
:1027000069FD00F081F97B68DA683B681A437B68F1
:10271000DA6000F063F900231800BD4602B080BD06
:10272000986600005C7100003866000080B582B0D9
:1027300000AF04237B60124A7B681B01D318083367
:1027400000221A600AE07B6801331A010C4BD21890
:102750000B497B681B01CB1808331A607B685A1E33
:102760007A60002BEFD1074B054A1A60064B064AE8
:102770009A60054B044ADA60C046BD4602B080BD8F
:1027800014FFFF1F64FFFF1F68FFFF1F80B584B0A9
:1027900000AF786000F016F80300FB6000F012F85C
:1027A0000300BB60BA68FB6811001800FFF7CCFE9D
:1027B00002007B689342F1D2C046C046BD4604B0D9
:1027C00080BD000080B500AF034B180001F07CFD18
:1027D00003001800BD4680BD0000044080B500AF76
:1027E000FFF7A4FFFFF77EFE00231800BD4680BD63
:1027F00080B582B000AF78600A00FB1C1A70FB1C29
:102800001B781F221A407B680E495918FB1C1B7845
:102810005B09DBB20C48844663449B00CB1818006C
:10282000FB1C1B78D905F8231B050B4003438021B3
:1028300049050B43012191400A001A60C046BD467C
:1028400002B080BD34100000FDFFFF3F80B582B0B4
:1028500000AF78607B68064A944663441A00054BD3
:1028600013431B68DBB21800BD4602B080BDC046F2
:10287000441000000000181E80B582B000AF7860E0
:102880007B68064A944663441A00054B13431B6851
:10289000DBB21800BD4602B080BDC0464410000047
:1028A00000001018B0B500AF094B180001F062FD30
:1028B0000400084B1800FFF7C9FF0300013319009B
:1028C0002000FDF727FE03001800BD46B0BDC0463E
:1028D0000040064000700440B0B500AFFFF7E2FFD3
:1028E0000400074B1800FFF7C7FF0300013319006E
:1028F0002000FDF70FFE03001800BD46B0BDC04626
:102900000070044080B582B000AF78607B68012B16
:1029100006D90A4B0A4AD62149000A4802F05AFC55
:10292000094A7B68D3181B78084A19001000FFF782
:102930005FFFC046BD4602B080BDC04630670000A4
:1029400070710000CC6600006C71000000700440E3
:1029500080B582B000AF78607B68002B06D0084B52
:10296000084A83218900084802F034FC7622074B8C
:1029700011001800FFF73CFFC046BD4602B080BD05
:10298000A46700008C710000CC6600000070044059
:1029900080B582B000AF78607B68002B06D00A4B10
:1029A0000A4A8F2189000A4802F014FC094A7B6810
:1029B000D3181B78084A19001000FFF719FFC0460A
:1029C000BD4602B080BDC046DC670000A8710000B3
:1029D000CC66000038FEFF1F0070044080B500AFD9
:1029E000084B1B68002B0BD0064B1B685A1E054B6F
:1029F0001A60044B1B68002B01D162B600E0C04690
:102A0000BD4680BD78FFFF1F80B500AF72B6C046DF
:102A1000034B1B685A1C024B1A60C046BD4680BD62
:102A200078FFFF1F80B582B000AF0200FB1D1A7057
:102A3000FB1D1B781A001F231A40044B01219140F3
:102A40000A001A60C046BD4602B080BD00E100E049
:102A500080B584B000AFF860B960FB1D1A70BB6828
:102A60001F2B05D90A4B0B4A0B48892102F0B2FBF8
:102A7000BB689B00FA68D3181A0080235B051343D8
:102A8000FA1D12781A60C046BD4604B080BDC0462B
:102A90008C680000EC7100009868000080B584B07C
:102AA00000AFF860B960FB1D1A70BB681F2B05D919
:102AB0000A4B0B4A0B489C2102F08CFBFB1D1A7839
:102AC000BB689B00F968CB18190084235B050B4396
:102AD00052001A60C046BD4604B080BD8C6800003C
:102AE000D87100009868000080B584B000AFF8602D
:102AF000B960FB1D1A70BB681F2B05D90A4B0B4A26
:102B00000B48AF2102F066FBFB1D1A78BB689B00E7
:102B1000F968CB18190088235B050B4392001A60F3
:102B2000C046BD4604B080BD8C68000050720000F5
:102B30009868000080B584B000AFF860B960FB1DF4
:102B40001A70BB681F2B05D90A4B0B4A0B48C621CC
:102B500002F040FBFB1D1A78BB689B00F968CB189C
:102B6000190090235B050B4312011A60C046BD4655
:102B700004B080BD8C6800000472000098680000FA
:102B800080B584B000AFF860B960FB1D1A70BB68F7
:102B90001F2B05D90A4B0B4A0B48EC2102F01AFBFC
:102BA000FB1D1A78BB689B00F968CB1819009823A5
:102BB0005B050B4392011A60C046BD4604B080BD60
:102BC0008C6800006C7200009868000080B584B0CA
:102BD00000AFF860B960FB1D1A70BB681F2B05D9E8
:102BE0000A4B0B4A0B48FF2102F0F4FAFB1D1A783E
:102BF000BB689B00F968CB181900074B0B43120206
:102C00001A60C046BD4604B080BDC0468C68000056
:102C1000C4710000986800000000101480B584B0F2
:102C200000AFF860B960FB1D1A70BB681F2B06D996
:102C30000A4B0B4ABE2149000A4802F0CBFAFB1DA1
:102C40001A78BB689B00F968CB181900064B0B4338
:102C500012041A60C046BD4604B080BD8C680000F6
:102C600024720000986800000000181880B582B037
:102C700000AF786039603B681F2B06D90A4B0B4ABE
:102C8000B421FF310A4802F0A5FA3B689B007A683C
:102C9000D3181A00E0235B051343802252041A6004
:102CA000C046BD4602B080BD8C680000BC7200000A
:102CB0009868000080B582B000AF786039603B68EA
:102CC0001F2B05D9074B084A0848B32102F082FAA6
:102CD00001223B689A407B685A60C046BD4602B0FC
:102CE00080BDC046186900008C7200002469000095
:102CF00080B582B000AF786039603B681F2B05D982
:102D0000074B084A0848BF2102F064FA01223B68D9
:102D10009A407B689A60C046BD4602B080BDC046FE
:102D200018690000A47200002469000080B582B018
:102D300000AF0200FB1D1A70FB1D1B787F2B05D90D
:102D40000D4B0E4A0E485D2102F044FAFB1D1B7824
:102D50005BB21F2B05DD0B4B084A09485E2102F0D0
:102D600039FAFB1D1B785BB21800FFF75BFEC0460B
:102D7000BD4602B080BDC046A46900003C720000A0
:102D8000B4690000406A000080B582B000AF78608E
:102D900039607B68002B0BD006E07B681A00083294
:102DA0007A60180000F018F87B681B680133F4D1D2
:102DB0003B68002B0BD006E03B681A000C323A60EF
:102DC000180000F06BF83B681B680133F4D1C04673
:102DD000BD4602B080BD000080B586B000AF78600F
:102DE0007B681B681B0AFF2213407B617B681B68A2
:102DF000FF2213403B61264B7A699200D358FB6057
:102E0000244B7A699200D358BB607B691800FFF7A6
:102E100079FD3969BB6801221800FFF7D7FE3969CF
:102E2000FB680022180001F013FF7B681A793969EA
:102E3000BB681800FFF732FE7B685A793969BB68B6
:102E40001800FFF705FE7B689A793969BB6818009E
:102E5000FFF770FE7B68DA793969BB681800FFF705
:102E6000DDFE7B68DB79002B0ED00B4A7B69D31823
:102E70001B785BB2002B07D0074A7B69D3181B78FD
:102E80005BB21800FFF752FFC046BD4606B080BDDA
:102E9000547400005C7400006474000080B586B057
:102EA00000AF78607B681B681B0AFF2213407B61C0
:102EB0007B681B68FF2213403B61194B7A699200C3
:102EC000D358FB60174B7A699200D358BB607B697B
:102ED0001800FFF717FD3969BB6801221800FFF7DA
:102EE00075FE3969FB680122180001F0B1FE7B68AC
:102EF0005A683969FB68180001F0E0FE7B681A7AAD
:102F00003969BB681800FFF7EFFD7B685A7A3969A9
:102F1000BB681800FFF734FEC046BD4606B080BD52
:102F2000547400005C74000080B584B000AF786019
:102F30007B681B0AFF221A40084B9200D358FB60A3
:102F40007B68FF221340BB60BA68FB681100180061
:102F5000FFF7B0FEC046BD4604B080BD547400000B
:102F600080B584B000AF78607B681B0AFF221A40EE
:102F7000084B9200D358FB607B68FF221340BB6074
:102F8000BA68FB6811001800FFF7B2FEC046BD46E4
:102F900004B080BD5474000080B584B000AF786088
:102FA0007B681B0AFF221A40084B9200D358FB6033
:102FB0007B68FF221340BB60BA68FB6811001800F1
:102FC000FFF754FEC046BD4604B080BD5C740000EF
:102FD00080B582B000AF78600A00FB1C1A707B6875
:102FE000DB78DBB21A00FB1C1B781A4113001A00B5
:102FF000012313405A1E9341DBB21800BD4602B0B4
:1030000080BD80B582B000AF78607B6802331A0063
:1030100094235B0513431B78DBB25A1E9341DBB24A
:103020001800BD4602B080BD80B584B000AF7860A6
:103030007B68002B05D0154B154A1648442102F039
:10304000C9F8154B7A689200D358FB60FB680421DD
:103050001800FFF7BDFF031E04D07B68180000F0C6
:103060001FFA0EE0FB681800FFF7CBFF031E04D029
:103070007B68180000F014FA03E07B68180000F089
:10308000F7FEC046BD4604B080BDC0466C6A000075
:10309000D87200008C6A0000EC72000080B582B02B
:1030A00000AF0200FB1D1A70FB1D1B781A001F23C6
:1030B0001A40044B012191400A001A60C046BD46E7
:1030C00002B080BD00E100E080B582B000AF786062
:1030D0007B6802331A009C235B05134380221A701D
:1030E000C046BD4602B080BD80B582B000AF7860FA
:1030F0007B6802331A008C235B05134300221A708D
:10310000C046BD4602B080BD80B582B000AF7860D9
:103110007B6802331A008C235B05134308221A7064
:10312000C046BD4602B080BD80B582B000AF7860B9
:103130000A00FB1C1A707B6802331A0090235B059F
:1031400013431A00FB1C1B781B01DBB21370C04633
:10315000BD4602B080BD80B582B000AF78607B68AC
:1031600002331A0090235B0513431B78DBB218006F
:10317000BD4602B080BD80B582B000AF78607B688C
:103180001B79DBB21800BD4602B080BD80B582B0AD
:1031900000AF78600A00FB1C1A70C0467B680C33D5
:1031A0001A0080235B0513431B78DBB2002BF5D09C
:1031B0007B68FA1C12781A71C046BD4602B080BD09
:1031C00080B582B000AF78600A00FB1C1A707B6883
:1031D000DB78DBB21A00FB1C1B781A4113001A00C3
:1031E000012313405A1E9341DBB21800BD4602B0C2
:1031F00080BD80B582B000AF78607B6802331A0072
:1032000094235B0513431B78DBB25A1E9341DBB258
:103210001800BD4602B080BD80B582B000AF7860B6
:103220007B681022DA70C046BD4602B080BD80B512
:1032300082B000AF78600A00FB1C1A70FB1C1B7880
:103240007A6802321100982252050A439B01DBB2D0
:103250001370C046BD4602B080BD80B582B000AFDD
:1032600078607B680222DA70C046BD4602B080BD3D
:1032700080B582B000AF7860FFF72EFB0300180026
:10328000BD4602B080BD000080B582B000AF020034
:10329000FB1D1A70FB1D1B787F2B05D90D4B0E4AA9
:1032A0000E485D2101F096FFFB1D1B785BB21F2BC2
:1032B00005DD0B4B084A09485E2101F08BFFFB1D21
:1032C0001B785BB21800FFF7E9FEC046BD4602B0AE
:1032D00080BDC046F06A000008730000006B00006B
:1032E0008C6B000080B584B000AF786039603B68BB
:1032F000002B05D1244B254A2548592101F06AFFAE
:103300007B68002B05D0234B204A21485A2101F02D
:1033100061FF214B7A689200D358FB601F4B7A689B
:103320009200D358002B01D0012328E03B682422CF
:103330000021180001F0C6FF3B6818330021180077
:10334000FFF71AF97B681800FFF722FBFB681800EB
:1033500001F0F5FC114B7A6892003968D150104A9F
:103360007B68D3181B785BB21800FFF78DFF3B68B2
:1033700001225A74FB681800FFF7A6FE002318000C
:10338000BD4604B080BDC046B86B0000F4720000BA
:10339000C06B0000206C0000EC7200007CFFFF1F7F
:1033A000F072000080B586B000AF786039603B688D
:1033B000002B05D1194B1A4A1A48AF2101F00AFF18
:1033C0007B68002B05D0184B154A1648B02101F038
:1033D00001FF164B7A689200D3587B61144B7A68D0
:1033E0009200D3583B613B685A683B695B699A42DB
:1033F00010D07B681800FFF73BFF0300FB603B68C1
:103400005A68F9687869002301F0C2FC3B685A6881
:103410003B695A61C046BD4606B080BD406C0000A5
:103420001C730000C06B0000206C0000EC720000F8
:103430007CFFFF1F90B589B004AFF860B9607A6077
:103440003B603C687A68B968F86801230393BB6AFB
:1034500002937B6A01933B6A0093230000F078FAA1
:1034600003001800BD4605B090BD90B589B004AF0B
:10347000F860B9607A603B603C687A68B968F8685F
:1034800001230393BB6A02937B6A01933B6A009317
:10349000230000F031FB03001800BD4605B090BDCD
:1034A000B0B586B000AF78607B68002B06D0584B73
:1034B000584AB3214900584801F08CFE574B7A68AE
:1034C0009200D3587B617B691800FFF7C6FE544B0E
:1034D0007A689200D3583B610F23FC187B6918006F
:1034E000FFF739FE030023700E257C197B69042148
:1034F0001800FFF765FE030023707B191B78002B73
:1035000016D07B691800FFF787FE3B6908221A7402
:103510007B6900211800FFF78AFE3B699B7C002B2A
:1035200000D16FE03B6918331800FFF7B1F869E08C
:103530007B6905211800FFF743FE03001A000123F1
:103540005340DBB2002B5FD17B691800FFF751FEBF
:1035500003001A0001235340DBB2002B54D10F2388
:10356000FB181B78012B28D17B6900211800FFF77D
:1035700027FE031E07D03B6905221A747B681800DA
:1035800000F08AF841E03B69DB68013B3A69D360AF
:10359000002B0DD03B699B685A1C3B699A603B69C4
:1035A0009B681A787B6911001800FFF7EFFD2CE08B
:1035B0007B68180000F070F827E03B695B68013B0E
:1035C0003A695360002B02D0012B05D009E07B68DB
:1035D000180000F061F809E07B691800FFF794FD1E
:1035E00004E07B691800FFF77FFDC0463B691C685B
:1035F000621C3B691A607B691800FFF7BCFD030081
:10360000237002E0C04600E0C046BD4606B0B0BD33
:10361000206C000038730000C06B0000EC720000EA
:103620007CFFFF1FB0B584B000AF786039607B6865
:10363000002B06D0144B154AE2214900144801F032
:10364000C9FD144B7A689200D358FB60FB681833AD
:103650000B257C193A6811001800FEF7B5FF03002E
:1036600023707B191B78032BF0D07B191B78002B60
:1036700002D0FB6804221A74FB681B7CDBB21800C2
:10368000BD4604B0B0BDC046206C000054730000BD
:10369000C06B00007CFFFF1F80B584B000AF786076
:1036A0007B68002B06D01D4B1D4AE221FF311D48CF
:1036B00001F090FD1C4B7A689200D358FB601B4BC5
:1036C0007A689200D358BB60BB68DB7C0122534010
:1036D000DBB2002B09D1BB681B7CDBB2052B04D00D
:1036E000BB681B7CDBB2042B0BD1FB6800211800EC
:1036F000FFF79DFDFB68180001F0E4FBBB680122A9
:103700005A74BB689B7C002B04D0BB68183318002C
:10371000FEF7BEFFC046BD4604B080BD206C000071
:1037200068730000C06B0000EC7200007CFFFF1F9C
:10373000B0B58AB000AFF860B9607A603B60FB68F2
:10374000002B05D07C4B7D4A7D497E4801F042FD2F
:103750007D4BFA689200D3583B627C4BFA6892002A
:10376000D358FB611423FB1800221A802523FB1871
:1037700000221A701B23FB18FA69927C1A70FB69ED
:103780000122DA74FB6901229A74302308229B1803
:10379000DB191B78002B01D1012200E000221A2343
:1037A000FB181A70BB681B889B0A9AB219203B1839
:1037B0001E3A51424A411A703B181B78002B0CD01C
:1037C000BB681B881B0A9AB22723FB181A70BB68B8
:1037D0001A882623FB181A7004E0BB681A8827236E
:1037E000FB181A702723FA18FB181B78DB181370C4
:1037F0001923FB181B7801225340DBB2002B07D0A2
:103800007B68002B04D11A23FB181B785BB200E005
:10381000002327243A19127852B213435AB23B19A3
:103820001A7025203B181B783A18591C1170190082
:1038300014257B193A1912785A541923FB181B784E
:10384000002B0AD03B181B783A18591C117019002C
:103850007B192622BA1812785A54FB6914217A1857
:103860009A602523FB181A78FB69DA607B181A78AE
:103870003B6A11001800FFF789FCFA6BFB68110026
:103880001800FFF7CFFEFB691B7CDBB2002B15D1C4
:103890007B68002B12D0FB697A689A60FB693A68F2
:1038A000DA607B681A783B6A11001800FFF76EFC3B
:1038B000FA6BFB6811001800FFF7B4FEFB691B7C74
:1038C000DBB2002B29D1302308229B18DB191B788F
:1038D000002B22D11923FB181B78002B02D17B6807
:1038E000002B1AD0FB690122DA60FB6900229A6082
:1038F0003B6A180001F0C2FA2723FB181B7801224B
:103900001343DAB23B6A11001800FFF73FFCFA6B71
:10391000FB6811001800FFF785FEFB690022DA74CE
:10392000FB691B22BA1812789A74FB691B7CDBB204
:103930001800BD460AB0B0BD206C000084730000C2
:1039400009020000C06B0000EC7200007CFFFF1F4A
:10395000B0B588B002AFF860B9607A603B60FB68D0
:10396000002B05D05D4B5E4A5E495F4801F032FC9A
:10397000BB6A002B06D15D4B594AA02189005A48E9
:1039800001F028FC5A4BFA689200D3587B61594BDE
:10399000FA689200D3583B613B695B7CDBB2012241
:1039A0005340DBB2002B01D0032392E03423FB18F9
:1039B0001B7801225340DBB2002B01D01E233B6356
:1039C0003B6900229A603B690022DA603B69002271
:1039D0001A603B6900221A603B6900221A743B6935
:1039E00000225A743B6934257A1912789A74BA689D
:1039F000FB6811001800FFF7D5FC7B690121180056
:103A0000FFF792FB7B691800FFF727FC7B69012118
:103A10001800FFF70CFC7B69180001F02FFA3C68D6
:103A20007A68B968F8683B6B01930123009323001F
:103A3000FFF77EFE3B691B7CDBB2002B2ED13B697E
:103A4000BA6A9A603B69FA6ADA603B699B681A78DD
:103A50007B6911001800FFF799FB7B191B78002B7D
:103A600034D03A6BFB6811001800FFF7DBFD030050
:103A7000042B2BD17B6900211800FFF7D8FB7B6951
:103A800005211800FFF79CFB031E03D07B6918007B
:103A900001F018FA3B6901225A7417E03B691B7C5C
:103AA000DBB2042B12D17B6900211800FFF7BFFBAA
:103AB0007B6905211800FFF783FB031E03D07B6998
:103AC000180001F0FFF93B6901225A743B691B7C25
:103AD000DBB21800BD4606B0B0BDC046206C000089
:103AE000987300007F020000C06B0000486C00006B
:103AF000EC7200007CFFFF1F90B589B002AFF86048
:103B0000B9607A603B60FB68002B05D0604B614A6E
:103B10006149624801F05EFBBB6A002B05D1604B36
:103B20005C4A60495D4801F055FB5F4BFA689200C2
:103B3000D3587B615D4BFA689200D3583B613B6977
:103B40005B7CDBB201225340DBB2002B01D00323AC
:103B50009AE03423FB181B7801225340DBB2002B80
:103B600001D01E233B633B69BA6A1A603B69FA6A5B
:103B70005A603B6900229A603B690022DA603B6927
:103B800000221A743B6900225A743B693422BA1825
:103B900012789A74BA68FB6811001800FFF702FCEB
:103BA0007B6901211800FFF7BFFA7B691800FFF756
:103BB00054FB7B6901211800FFF739FB7B69180072
:103BC00001F05CF93C687A68B968F8683B6B01936E
:103BD000002300932300FFF7ABFD3B691B7CDBB2A6
:103BE000002B36D17B6900211800FFF79DFAFB6A94
:103BF000012B04D17B691800FFF786FA03E07B698B
:103C00001800FFF771FA7B691800FFF7B4FA342344
:103C1000FB181B78002B34D03A6BFB68110018009E
:103C2000FFF700FD0300042B2BD17B690021180056
:103C3000FFF7FDFA7B6905211800FFF7C1FA031EA3
:103C400003D07B69180001F03DF93B6901225A74E9
:103C500017E03B691B7CDBB2042B12D17B6900218E
:103C60001800FFF7E4FA7B6905211800FFF7A8FAAE
:103C7000031E03D07B69180001F024F93B6901227F
:103C80005A743B691B7CDBB21800BD4607B090BD7F
:103C9000206C0000AC730000E9020000C06B000063
:103CA000506C0000EA020000EC7200007CFFFF1F75
:103CB00080B582B000AF78600A00FB1C1A707B6888
:103CC00002331A0090235B0513431A00FB1C1B7878
:103CD0001B01DBB21370C046BD4602B080BD80B58B
:103CE00082B000AF78607B6802331A0090235B05D6
:103CF00013431B78DBB21800BD4602B080BD80B50F
:103D000082B000AF78607B681B79DBB21800BD46DB
:103D100002B080BD80B582B000AF78600A00FB1CA5
:103D20001A70C0467B680C331A0080235B0513436E
:103D30001B78DBB2002BF5D07B68FA1C12781A7165
:103D4000C046BD4602B080BD80B582B000AF78608D
:103D50000A00FB1C1A707B68DB78DBB21A00FB1CC4
:103D60001B781A4113001A00012313405A1E934175
:103D7000DBB21800BD4602B080BD80B582B000AF96
:103D800078600A00FB1C1A70FB1C1B787A680232F0
:103D90001100982252050A439B01DBB21370C04602
:103DA000BD4602B080BD80B582B000AF78607B6850
:103DB0000222DA70C046BD4602B080BD80B582B036
:103DC00000AF78607B6806331A0098235B051343C5
:103DD0001B78DBB25A1E9341DBB21800BD4602B01D
:103DE00080BD80B582B000AF78607B6806331A0072
:103DF00098235B05134340221A70C046BD4602B0AB
:103E000080BD80B582B000AF78607B6806331A0051
:103E100094235B0513431B78DBB25A1E9341DBB23C
:103E20001800BD4602B080BD80B582B000AF78609A
:103E30007B6806331A0090235B0513431B78DBB2C3
:103E40005A1E9341DBB21800BD4602B080BD80B55A
:103E500082B000AF78607B6806331A0090235B0560
:103E6000134310221A70C046BD4602B080BD000048
:103E7000F0B589B000AF78607B68002B05D0C34BEC
:103E8000C34AC449C44801F0A5F9C44B7A689200FA
:103E9000D358BB611723FB1800221A701F23FB188D
:103EA00000221A701623FC18BB6906211800FFF7C0
:103EB0004BFF030023701526BB1900221A70142330
:103EC000FC18BB691800FFF7AFFF03002370132530
:103ED0007C19BB691800FFF794FF030023701222BE
:103EE000BC18BB691800FFF769FF03002370BB19FA
:103EF0007A1912781A70AA4B7A689200D358FB602C
:103F00000B22BC18BB691800FFF7E9FE0300237001
:103F10007B191B78002B1BD01423FB181B78002B5C
:103F200016D0BB691800FFF792FFBB691800FFF7B6
:103F30003AFFFB681B6B002B00D172E1FB681C6B26
:103F40007B68D8B2FB685B6B1A000121A04768E16F
:103F50001523FB181B78002B37D01223FB181B7876
:103F6000002B32D0BB691800FFF73BFFBB6918007C
:103F7000FFF719FFFB682C229B5C01225340DBB248
:103F8000002B04D0BB6900211800FFF7F6FEFB6888
:103F90001B6B002B08D0FB681C6B7B68D8B2FB68DE
:103FA0005B6B1A008021A047FB68DB7D002B05D0EE
:103FB000FB68183380211800FEF794FBFB68002291
:103FC0005A75FB6800221A752CE1BB691800FFF7CF
:103FD000EAFE1623FB181B78002B34D0BB690221A4
:103FE0001800FFF7B1FE031E16D0BB6901211800AF
:103FF000FFF75EFEFB681B6B002B08D0FB681C6B99
:104000007B68D8B2FB685B6B1A000221A0471F23B4
:10401000FB1801221A70C8E0BB6900211800FFF7E5
:1040200047FEFB681B6B002B08D0FB681C6B7B6892
:10403000D8B2FB685B6B1A000421A047BB6918006B
:10404000FFF75DFEB1E00B23FB181B78012B4AD173
:10405000BB6900211800FFF777FE031E3ED0BB6945
:1040600000211800FFF724FEBB691800FFF747FE88
:10407000FB682C229B5C01225340DBB2002B0CD04E
:104080001523FB181B7801225340DBB2002B04D010
:10409000BB6900211800FFF770FEFB681B6B002B4B
:1040A00008D0FB681C6B7B68D8B2FB685B6B1A009E
:1040B0000821A047FB689B7D002B05D0FB681833C7
:1040C00008211800FEF70EFBFB6800225A60FB680F
:1040D0000022DA60FB6800221A7566E01F23FB18D5
:1040E00001221A7061E017257C19BB691800FFF7DF
:1040F00006FE03002370FB689B68002B52D0FB6810
:104100001B697A1912781A70FB681B695A1CFB68C4
:104110001A61FB689B685A1EFB689A60FB689B6883
:10412000002B42D11523FB181B7801225340DBB230
:10413000002B16D0FB682C229B5C01225340DBB283
:10414000002B04D0BB6900211800FFF716FEFB68A6
:10415000DB7D002B05D0FB68183320211800FEF70B
:10416000C1FAFB6800225A75FB6800221A61FB68DD
:104170001B6B002B19D0FB681C6B7B68D8B2FB68EB
:104180005B6B1A002021A0470FE0C046886D00003D
:10419000C473000035020000286D0000EC720000BE
:1041A0007CFFFF1FFB6807221A701F23FB181B7878
:1041B000002B37D0FB685B68002B2ED0FB68DA68D9
:1041C00017217B1812781A707B181A78BB691100B6
:1041D0001800FFF79FFDFB68DB685A1CFB68DA607C
:1041E000FB685B685A1EFB685A60FB685B68002BC3
:1041F00018D1FB680022DA60FB6800221A75FB68A0
:104200001B6B002B0ED0FB681C6B7B68D8B2FB6865
:104210005B6B1A001021A04704E0FB6806221A70AD
:1042200000E0C046BD4609B0F0BDC04680B584B0D0
:1042300000AF78603B0019607B681B68FB60FB681F
:10424000BE229343FB603B001B785B0002221A40B6
:104250003B005B789B0004210B401A433B009B789A
:10426000DB0008210B401A433B00DB781B013021A7
:104270000B401343FA681343FB607B68FA681A60CB
:10428000C046BD4604B080BD80B584B000AF786044
:104290003B0019603B005B781A0003231A403B0087
:1042A0001B789B0004210B401A433B009B78DB00EA
:1042B00078210B401343FB607B68FA685A60C04664
:1042C000BD4604B080BD000080B582B000AF78600C
:1042D0007B680C331A00074B134300221A607B687B
:1042E0000C331A00034B13431B681800BD4602B081
:1042F00080BDC0460000781080B582B000AF786005
:104300007B6806331A00044B13431B78DBB218009A
:10431000BD4602B080BDC0460000081180B582B025
:1043200000AF78607B681A0084235B0513431B7819
:10433000DBB2002B06D17B681800FFF7DDFF03001E
:10434000012B0DD17B6801331A0080235B051343D9
:104350001B78DBB2012B01D1044B02E0044B00E0DF
:1043600000231800BD4602B080BDC04600127A008E
:1043700080841E00B0B584B000AF78600F257C1932
:104380007B681800FFF7B8FF030023707B191B78C8
:10439000002B01D1114B1CE00F23FB181B78012BC4
:1043A0000ED17B681800FFF7B9FF02007B68083365
:1043B00019000B4B0B431B78DBB2DA40130008E00B
:1043C0000F23FB181B78022B02D1064B1B6800E061
:1043D00000231800BD4604B0B0BDC046006CDC022E
:1043E0000000901080FFFF1F80B582B000AF7860A2
:1043F0007B68DB78DBB21A00102313405A1E93410E
:10440000DBB21800BD4602B080BD000080B584B0AC
:1044100000AF78607B68002B05D00F4B0F4A104827
:10442000402100F0D7FE0F4B7A689200D358FB6012
:10443000FB681800FFF7D8FF031E04D07B68180044
:1044400000F072FA03E07B68180000F027FBC0461A
:10445000BD4604B080BDC046B86D0000DC730000EE
:10446000D86D00002074000080B582B000AF02005B
:10447000FB1D1A70FB1D1B781A001F231A40044BEA
:10448000012191400A001A60C046BD4602B080BDBD
:1044900000E100E080B582B000AF78607B68033354
:1044A0001A0098235B05134340221A70C046BD468C
:1044B00002B080BD80B582B000AF78607B68033306
:1044C0001A0098235B05134300221A70C046BD46AC
:1044D00002B080BD80B582B000AF78600A00FB1CDE
:1044E0001A707B6803331A0090235B0513431A008C
:1044F000FB1C1B781B01DBB21370C046BD4602B02B
:1045000080BD80B582B000AF78607B681B78DBB27D
:10451000DB09012213405A1E9341DBB21800BD464D
:1045200002B080BD80B582B000AF78607B681B7838
:10453000DBB25B09012213405A1E9341DBB2180023
:10454000BD4602B080BD80B582B000AF78607B68A8
:104550009B79DBB21800BD4602B080BD80B582B049
:1045600000AF78600A00FB1C1A707B68FA1C127896
:104570009A71C046BD4602B080BD80B582B000AF22
:104580007860FEF7A9F903001800BD4602B080BDAF
:1045900080B582B000AF0200FB1D1A70FB1D1B78B6
:1045A0007F2B05D90D4B0E4A0E485D2100F012FEFF
:1045B000FB1D1B785BB21F2B05DD0B4B084A09481E
:1045C0005E2100F007FEFB1D1B785BB21800FFF7B1
:1045D0004BFFC046BD4602B080BDC0463C6E0000E9
:1045E000F07300004C6E0000D86E000080B584B0FF
:1045F00000AF78603960244B7A689200D358FB6032
:104600003B6830220021180000F05CFE7B68180037
:10461000FEF79EF97B681800FFF7AFFF02003B68CA
:104620001A60FB68180000F089FC3B682033002109
:104630001800FDF7A1FF031E01D00C2320E0FB684A
:1046400001211800FFF746FFFB680321180000F066
:10465000F3FCFB680021180000F04FFD0B4B7A685B
:1046600092003968D1500A4A7B68D3181B785BB234
:104670001800FFF78DFFFB681800FFF70BFF002302
:104680001800BD4604B080BD2074000084FFFF1FE9
:104690002474000080B586B000AFF860B9607A601D
:1046A000BB68002B05D1144B144A1548B32100F008
:1046B00091FD144BFA689200D3587B61124BFA6853
:1046C0009200D3583B61BB6819687B691A683B69E3
:1046D000180000F047FC02007B681A60BB6819797B
:1046E000BB685A79BB689B79386900F0D0FCC0463A
:1046F000BD4606B080BDC046046F000004740000D3
:104700000C6F000084FFFF1F20740000B0B588B05C
:1047100000AFF860B9607A603B602D4BFA68920098
:10472000D358BB611F217B1800221A70294BFA68ED
:104730009200D3587B61BB6901221A77BB697A6802
:104740009A60BB693A68DA60BB693A6B1A61BB6907
:104750003A6B5A610D007C18BA68FB6811001800AA
:1047600000F03AF8030023707B191B78002B02D06D
:104770007B191B7828E0BB69203313257C197A6BE1
:1047800011001800FDF720FF030023707B191B7830
:10479000032BF0D07B191B78002B12D0BB690022B1
:1047A0001A717B6900220121180000F0CFFC7B699F
:1047B00000220221180000F0C9FC1F23FB1803226D
:1047C0001A701F23FB181B781800BD4608B0B0BD37
:1047D00084FFFF1F2074000080B586B000AF7860B2
:1047E0003960374B7A689200D3583B61354B7A6811
:1047F0009200D358FB603B691B79DBB2002B01D0E0
:10480000042359E03B68002B06D00823FA183968C6
:104810007B681800FFF73EFFFB681800FFF74AFEB1
:10482000FB681800FFF736FE3B691B69002B05D1BA
:104830007B68180000F048F800233DE03B69012246
:104840001A713B6900229A61FB681800FFF76AFE43
:1048500003001A0001235340DBB2002B01D00723D1
:104860002AE017217B1800221A703B699B68002BF5
:1048700009D03B699A687B1812781A703B699B686B
:104880005A1C3B699A601723FB181A78FB681100C1
:104890001800FFF763FE3B691B695A1E3B691A61EA
:1048A0003B699B695A1C3B699A61FB6801220121A3
:1048B000180000F04BFC00231800BD4606B080BD78
:1048C00084FFFF1F2074000080B584B000AF7860C3
:1048D000134B7A689200D358FB60124B7A689200AF
:1048E000D358BB60FB6800221A71BB68002201210B
:1048F000180000F02BFCBB6800220221180000F019
:1049000025FCFB681B7FDBB2002B04D0FB68203347
:104910001800FDF7BDFEC046BD4604B080BDC046D0
:1049200084FFFF1F20740000B0B586B000AF786030
:104930003A4B7A689200D3583B61394B7A689200BF
:10494000D358FB603B691B79DBB201225340DBB2D9
:10495000002B5FD13B695B69002B20D0FB681800FE
:10496000FFF7CFFD031E1AD00B257C19FB6818003A
:10497000FFF7E9FD030023703B69DB68002B09D0DA
:104980003B69DB687A1912781A703B69DB685A1C3C
:104990003B69DA603B695B695A1E3B695A611724BF
:1049A0003B1900221A703B691B69002B25D0FB685C
:1049B0001800FFF7B7FD031E1FD03B699B68002B53
:1049C00009D03B699A683B1912781A703B699B6859
:1049D0005A1C3B699A601723FB181A78FB68110070
:1049E0001800FFF7BBFD3B691B695A1E3B691A6142
:1049F0003B699B695A1C3B699A613B691B69002BA7
:104A000009D13B695B69002B05D17B681800FFF772
:104A10005BFF00E0C046BD4606B0B0BD84FFFF1F8F
:104A20002074000080B582B000AF78607B681B788E
:104A3000DBB2DB09012213405A1E9341DBB218009E
:104A4000BD4602B080BD80B582B000AF78607B68A3
:104A50001B78DBB25B09012213405A1E9341DBB283
:104A60001800BD4602B080BD80B582B000AF78604E
:104A70007B689B79DBB21800BD4602B080BD80B573
:104A800082B000AF78600A00FB1C1A707B68FA1CC9
:104A900012789A71C046BD4602B080BDB0B588B0EC
:104AA00000AF7860464B7A689200D358BB61454BA3
:104AB0007A689200D3587B6100233B61BB69202256
:104AC0009B5CDBB201225340DBB2002B00D072E0D2
:104AD00000233B61BB69DB6A3A699A422EDC7B6941
:104AE0001800FFF7B0FF031E28D0BB69DA691F2149
:104AF0007B181A70BB695B6A002B0DD0BB69DB6A3F
:104B0000002B09DDBB695A6A7B1812781A70BB69E1
:104B10005B6A5A1CBB695A621F23FB181A787B69AF
:104B200011001800FFF7ABFFBB69DB6A5A1EBB69B7
:104B3000DA62BB695B6B5A1CBB695A63BB69DB6A8F
:104B40003A699A4205DD7B6900220221180000F0D3
:104B5000FDFABB691B6B002B20DD7B691800FFF79A
:104B600061FF031E1AD00F257C197B691800FFF71F
:104B70007BFF03002370BB699B6A002B09D0BB69D4
:104B80009B6A7A1912781A70BB699B6A5A1CBB69B6
:104B90009A62BB691B6B5A1EBB691A63BB69DB6AED
:104BA000002B09DCBB691B6B002B05DC7B68180044
:104BB00000F00AF800E0C046BD4608B0B0BDC046EF
:104BC00084FFFF1F2074000080B584B000AF7860C0
:104BD0001D4B7A689200D358FB601C4B7A68920098
:104BE000D358BB60FB68202200219954FB68002247
:104BF0001A70FB6800221A83FB6800225A62FB6865
:104C000000229A62FB680022DA62FB6800221A63C3
:104C1000BB6800220121180000F098FABB6800224E
:104C20000221180000F092FAFB6838229B5C002BEE
:104C300005D0FB68043301211800FDF753FDC04681
:104C4000BD4604B080BDC04684FFFF1F2074000035
:104C500080B584B000AFF860B960FB1D1A70BB6806
:104C60001F2B05D9124B134A13482E2100F0B2FA1C
:104C7000FB1D1B78012B0BD1FB6814331A0080231A
:104C80001B0513430121BA6891400A001A600AE02B
:104C90000122BB689A40FB68143319008023DB04AF
:104CA0000B43D2431A60C046BD4604B080BDC04627
:104CB0006C6F000028740000786F000080B584B02D
:104CC00000AFF860B9607A60BB681F2B05D90C4B48
:104CD0000C4A0D48422100F07DFA7B68002B05D07C
:104CE0000122BB689A40FB685A6004E00122BB685D
:104CF0009A40FB689A60C046BD4604B080BDC0467D
:104D00006C6F00003C740000786F000080B582B0CA
:104D100000AF78600A00FB1C1A707B68DB78DBB29E
:104D20001A00FB1C1B781A4113001A0001231340C0
:104D30005A1E9341DBB21800BD4602B080BD80B55B
:104D400082B000AF78607B6800221A707B68002216
:104D50005A707B6800229A707B680022DA707B6848
:104D600000225A717B6800229A717B680022DA71F6
:104D70007B6800221A727B68C2225A727B6800220A
:104D80009A727B680022DA72C046BD4602B080BDCE
:104D900080B58EB000AFF860B9607A603B607A6829
:104DA00013005B019B1A9B009B18DB003B620123F5
:104DB0005B42FB620023BB6200237B6200237B63B8
:104DC0003DE001227B6B9A401300FB6100233B63B3
:104DD0002DE0294A3B6B9B00D31802331B881A0035
:104DE000FB6953431900B868FBF794FB0300BB61F0
:104DF0003A6ABB699A4203D93A6ABB69D31A02E09C
:104E0000BA693B6AD31A7B617A69FB6A9A420BD210
:104E10007B6BBB62184B3A6B9200D35C7B627B6905
:104E2000FB627B69002B06D03B6B01333B633B6B22
:104E3000312BCED900E0C0467B6B01337B637B6BAB
:104E4000022B02D8FB6A002BBBD13B68002B02D09F
:104E50003B68FA6A1A60BB6ADBB29B01DAB27B6A12
:104E6000DBB23F210B40DBB21343DAB2FB685A706E
:104E7000C046BD460EB080BD6874000080B582B0EB
:104E800000AF78607B6802331A0094235B051343FC
:104E90001B78DBB2002B08D07B6802331A00882312
:104EA0005B05134304221A7007E07B6802331A0083
:104EB00080231B05134330221A70C046BD4602B042
:104EC00080BD000080B584B000AF78607B6802339D
:104ED0001A0094235B0513431B78DBB2012B05D02A
:104EE000134B144A1448FF2100F074F90023FB60AF
:104EF0007B6802331A008023DB041343CF221A702D
:104F00000AE0FB680133FB60FA688023DB009A4209
:104F100001D1092308E0C0467B6805211800FFF78E
:104F2000F5FE031EEDD100231800BD4604B080BD80
:104F3000CC6F000030750000E86F000080B582B0D3
:104F400000AF78607B680422DA707B6800229A7078
:104F50007B6800225A707B6800221A71C046BD46E9
:104F600002B080BD80B58EB000AFF860B9607A60E5
:104F7000BB68BB6101235B42FB6107233B630823E2
:104F8000BB623B6B0133BA6A53439B0119007868DB
:104F9000FBF7C0FA03003B6200237B6331E002238E
:104FA0007B620023FB6223E07B6B01337A6A53430D
:104FB00019007868FBF7AEFA03007B61BA697B6978
:104FC0009A420FD3BA697B69D31A3B61FA693B698C
:104FD0009A4207D93B69FB617B6B3B63FB6ABB620F
:104FE0007B693B627B6A5B007B62FB6A0133FB622D
:104FF000FB6A082B02D8FB69002BD5D17B6B0133F0
:105000007B637B6B072B02D8FB69002BC7D1BB6A84
:10501000DBB20F221340DAB23B6BDBB21B01DBB217
:1050200070210B40DBB21343DAB2FB685A703B6A63
:105030001800BD460EB080BD80B582B000AF78606C
:105040000A00FB1C1A70FB1C1B785B00DBB27A6841
:1050500003321100842252050A4311000222134038
:10506000DBB20B70FB1C1B785B08DBB21B01DBB2F5
:105070007A6802321100902252050A431100102270
:105080001340DBB20B70C046BD4602B080BD90B588
:1050900083B000AF78600C0010001900FB1C221CCC
:1050A0001A70BB1C021C1A707B1C0A1C1A707B68CD
:1050B00003331A008C235B0513431A00FB1C1B7877
:1050C000DB00DBB213707B6803331A0088235B05B7
:1050D00013431A00BB1C1B789B00DBB213707B6868
:1050E00003331A0080235B0513431A007B1C1B78D3
:1050F0001370C046BD4603B090BD80B582B000AF0E
:1051000078600A00FB1C1A707B6802331A00802347
:105110005B0513431900FB1C1B7801221340DBB213
:105120000B70FB1C1B785B08DBB2DB00DBB27A6820
:10513000023211008C2252050A431100082213404A
:10514000DBB20B70C046BD4602B080BD80B582B0F8
:1051500000AF786008001100FB1C021C1A70BB1C19
:105160000A1C1A70FB1C1B78032B0ED1BB1C1B786E
:10517000002B01D0802200E000227B68023319005E
:105180009C235B050B431A7020E0FB1C1B78012B52
:105190000ED1BB1C1B78002B01D0802200E0002226
:1051A0007B68033319009C235B050B431A700DE0E9
:1051B000BB1C1B78002B01D0202200E000227B6862
:1051C0000333190094235B050B431A70C046BD4698
:1051D00002B080BD30B514001A00094B05001B68F1
:1051E00085B0D868074B002C01D1074B1C000193F8
:1051F00000912B000549029400F026F800F098FD7C
:105200003CFEFF1F417500007C7500004E750000DC
:10521000014B18687047C0463CFEFF1F084B10B595
:105220000400002B02D0002100E000BF054B1868ED
:10523000836A002B00D09847200001F02DF9C0466A
:1052400000000000807500000EB403B5010003AB40
:10525000044804CB0068019300F046F902B008BC92
:1052600003B018473CFEFF1F70B500260C4D0D4CD7
:10527000641BA410A64209D1002602F005FA0A4DCB
:105280000A4C641BA410A64205D170BDB300EB58B4
:1052900098470136EEE7B300EB5898470136F2E73E
:1052A000A8760000A8760000A8760000AC76000082
:1052B00010B5034B0100186800F078F810BDC04627
:1052C0003CFEFF1F03008218934200D17047197003
:1052D0000133F9E770B50500002910D00C1F2368D1
:1052E000002B00DAE418280000F086FF1D4A13683E
:1052F000002B05D163601460280000F085FF70BDAD
:10530000A34208D9216860188342F3D118685B680A
:1053100041182160EEE71A005B68002B01D0A34220
:10532000F9D911685018A0420BD1206809185018FB
:1053300011608342E0D118685B68411811605360C6
:10534000DAE7A04202D90C232B60D5E72168601868
:10535000834203D118685B68411821606360546020
:10536000CAE7C04688FFFF1F70B50F4E0D003168B9
:105370000400002902D100F0E1FB30602900200088
:1053800000F0DCFB431C0AD00323C51C9D43A8424C
:1053900007D0291A200000F0D1FB431C01D10125C0
:1053A0006D42280070BDC0468CFFFF1FF7B5032279
:1053B000CB1C9343083306001F000C2B32D20C2762
:1053C000B94231D8300000F017FF324D2B681C0075
:1053D000002C2ED139003000FFF7C6FF0400431C1B
:1053E0001ED12C682500002D4AD123682900E3181E
:1053F0003000019300F0A2FB019B834243D123685C
:105400000337FF1A03239F4308370C2F00D20C27C2
:1054100039003000FFF7A8FF431C34D02368DF19A0
:10542000276013E0002BCBDA0C2300253360280023
:10543000FEBD2268D11B20D40B2917D9E2192760A1
:10544000A34211D12A6063681160536030002500C7
:1054500000F0DAFE07220B35231D9543EA1A9D4220
:10546000E5D05B1BA350E2E75A60ECE76268A34219
:1054700001D12A60EAE75A60E8E723006468A7E7F9
:105480002C006D68AFE70C233000336000F0BCFEE9
:10549000CDE7C04688FFFF1F936810B5013B9360BE
:1054A000002B04DA9469A34207DB0A2905D01368AC
:1054B000581C10601970080010BD00F06BFB010053
:1054C000F9E7F8B506000F001400D518AC4201D179
:1054D000002007E021783A003000FFF7DDFF0134BB
:1054E000431CF3D1F8BD0000F0B5A1B006000C00DC
:1054F0001F000392002804D08369002B01D100F023
:105500004DFD8E4B9C421CD17468636EDB0705D445
:10551000A3899B0502D4A06D00F0F3FDA3891B07AE
:1055200002D52369002B1DD12100300000F088FB3B
:10553000002817D0636EDB070DD50120404221B053
:10554000F0BD7F4B9C4201D1B468DEE77D4B9C42AD
:10555000DBD1F468D9E7A3899B05EED4A06D00F0F8
:10556000D1FDEAE7002308AD6B6120336B76103381
:10557000AB760797039F3B78002B01D0252B4ED1AC
:10558000039BFB1A0593039B9F420DD0059B2100B3
:105590003000039AFFF795FF431C00D1B5E06A691C
:1055A000059B944663446B613B78002B00D1ACE0D3
:1055B00001227B1C0393002352426A6004A95432E7
:1055C00052182B60EB60AB601370AB65039B052238
:1055D00019785D4800F004FE039B5F1C002820D171
:1055E0002A68D30604D5532304A95B182021197017
:1055F000130704D5532304A95B182B211970039BAF
:105600001B782A2B16D00021EB68039F3A78781C70
:10561000303A8446092A4FD9002911D117E00137C1
:10562000A9E7494B2A68C01A0123834013432B6022
:105630000397CBE7079B191D1B680791002B01DB24
:105640000B9304E05B42EB60022313432B603B7837
:105650002E2B0AD17B782A2B37D1079B02371A1DB4
:105660001B680792002B2DDB0993032239783748FA
:1056700000F0B6FD002807D0344B2A68C01A40233A
:105680008340134301372B6039787B1C0622304856
:105690000393297600F0A4FD002845D02D4B002B64
:1056A00027D10722079B07339343083307936B697E
:1056B000049A9B186B615DE70A214B4367469B1870
:1056C0000939A3E701235B42CEE700231A00013723
:1056D0006B603978781C30398446092903D9002B4E
:1056E000C3D00992C1E70A235A4367465218093BBF
:1056F000EFE707AB0093220029003000164B00E0D3
:1057000000BF0490049B0133D1D1636EDB0705D445
:10571000A3899B0502D4A06D00F0F4FCA3895B066D
:1057200000D50AE70D980AE707AB0093220029008D
:105730003000094B00F082F8E3E7C04648760000ED
:105740006876000028760000847500008A750000E5
:105750008E75000000000000C3540000F7B515006E
:1057600001938A680B690C000090934200DA1300E1
:1057700022002B6043321278002A01D001332B60C3
:1057800023689B0602D52B6802332B602268062310
:1057900017001F401A4227D0230043331B785A1E9C
:1057A00093412268920630D4220001990098089E05
:1057B0004332B047431C25D0062320682A68E1689D
:1057C00000250340042B03D18D1AEB43DB171D404A
:1057D000A3682269934201DD9B1AED180027BD42A0
:1057E00020D1002010E00137E3682A689B1ABB42F1
:1057F000D2DD2200012301990098089E1932B0479A
:10580000431CF0D101204042FEBD3020E11843315D
:10581000087021005A1C45310978A218433202331E
:105820001170C1E72200012301990098089E1A32E5
:10583000B047431CE6D00137D1E70000F0B58BB08C
:1058400006920A0043320793059004920A7E0C00E8
:10585000109B782A07D8622A09D8002A00D1C1E013
:10586000582A00D18CE026004236327022E0100027
:1058700063381528F7D8FAF743FE16001F00F6FF25
:10588000F6FFF6FFF6FF1F00F6FFF6FFF6FFF6FF46
:10589000A80036009A00F6FFF6FFB900F6FF3600C2
:1058A000F6FFF6FF9E0026001A684236111D1960A9
:1058B000136833700123A7E0086819680A1D0506FC
:1058C0000BD50D681A60002D03DA2D23049A6D4262
:1058D0001370614B0A2703931BE00D681A604106A1
:1058E000F1D52DB2EFE70D681968081D18602E0676
:1058F00001D50D6803E06D06FBD50D68ADB2564BC2
:10590000082703936F2A00D0023723000022433375
:105910001A706368A360002B03DB042221689143A3
:105920002160002D02D1049E002B0CD0049E280083
:105930003900FAF775FE039B013E5B5C33702B0068
:1059400005009F42F3D9082F09D12368DB0706D54C
:1059500063682269934202DC3023013E3370049B6A
:105960009B1B2361079B210000930598069B09AAB6
:10597000FFF7F4FE431C4CD1012040420BB0F0BDB8
:1059800045310A70344A03921A68216820CA1A60A5
:10599000080616D5CB0702D520231943216010270E
:1059A000002DB2D1202322689A432260ADE7202245
:1059B00009680A4322602200782145321170274A83
:1059C000E1E74806E6D5ADB2E4E71A680D68101DB8
:1059D0004969186013682E0601D5196002E06D064A
:1059E000FBD519800023049E2361BBE71A68111DB3
:1059F0001960166800213000626800F0F1FB002891
:105A000001D0801B6060636823610023049A1370D7
:105A1000A8E72369320006990598079DA847431C0B
:105A2000AAD023689B0715D4099BE0689842A5DAA1
:105A30001800A3E72200012306990598079E193252
:105A4000B047431C98D00135E368099A9B1AAB42D2
:105A5000F0DCE9E70025F7E795750000A675000082
:105A6000114B70B51D680400AB6B002B16D11820CC
:105A7000FFF71EFC021EA86304D142210B4B0C4809
:105A8000FFF7A8FB0B4B002103600B4B43600B4B54
:105A900083600B2383810120106151610022AB6B75
:105AA0001C615A6170BDC0463CFEFF1FB775000007
:105AB000CE7500000E33CDAB34126DE6ECDE050082
:105AC000164B10B51C68A36B002B16D11820FFF7DE
:105AD000EFFB021EA06304D14E21114B1148FFF7CA
:105AE00079FB114B00210360104B4360104B836026
:105AF0000B238381012010615161A46B0D4A206941
:105B000061690D4BFAF77CFE012200238018594190
:105B1000206161614800400810BDC0463CFEFF1F87
:105B2000B7750000CE7500000E33CDAB34126DE6B4
:105B3000ECDE05002D7F954C2DF45158002370B5F7
:105B4000064D040008002B60FAF788FE431C03D1C1
:105B50002B68002B00D0236070BDC04694FFFF1F50
:105B60001FB50B4B040000226946186800F0B6FA16
:105B7000002804DA01225242D317009201930098C0
:105B80000199002C01D02060616004B010BDC046B6
:105B90003CFEFF1FF8B505000E001400002804D0DD
:105BA0008369002B01D100F0F9F9224B9C422ED1E0
:105BB0006C68A369A360A3891B0732D52369002BF6
:105BC0002FD023682269F7B2981A6369F6B283422C
:105BD00005DC2100280000F03FF9002827D1A36848
:105BE0000130013BA36023685A1C22601F70636967
:105BF000834204D0A389DB0707D50A2E05D12100F3
:105C0000280000F029F9002811D13000F8BD0A4B16
:105C10009C4201D1AC68CCE7084B9C42C9D1EC68EE
:105C2000C7E72100280000F00BF80028C9D00126A2
:105C30007642EAE7487600006876000028760000A1
:105C4000374B70B51D6806000C00002D05D0AB6900
:105C5000002B02D1280000F0A1F9324B9C420FD159
:105C60006C680C23E25E93B211072DD4D90611D4CF
:105C700009230120336037331343A381404270BDB1
:105C8000294B9C4201D1AC68EBE7284B9C42E8D100
:105C9000EC68E6E75B0713D5616B002908D02300A9
:105CA0004433994202D03000FFF714FB00236363B2
:105CB0002422A3899343A381002363602369236083
:105CC0000823A2891343A3812369002B0BD1A021B0
:105CD0008022A389890092000B40934203D02100C7
:105CE000300000F039FA0C22A35E01201A0099B2AC
:105CF000024003420FD00022A26062695242A261B8
:105D0000002022698242BAD10A06B8D54022134344
:105D1000A3810138B3E7880700D46269A260EFE786
:105D20003CFEFF1F487600006876000028760000E1
:105D3000062010B500F09AFA012000F0ADFB00003B
:105D4000F7B58B8905000C001A075FD44A68002A52
:105D500004DC0A6C002A01DC0020FEBDE76A002F8B
:105D6000FAD0002280212E682A601A0049010A40D8
:105D70000B4234D0606DA3895B0706D56368C01AF7
:105D8000636B002B01D0236CC01A0200216A002330
:105D90002800E76AB847A189431C06D12B681D2B50
:105DA00031D82C4ADA40D3072DD50023636023690C
:105DB0002360CB0405D5431C02D12B68002B00D1F6
:105DC0006065616B2E600029C6D023004433994280
:105DD00002D02800FFF77EFA00206063BDE70123B0
:105DE0002800216AB847431CC5D12B68002BC2D0BC
:105DF0001D2B01D0162B01D12E60ADE74023A289C7
:105E00001343A381A9E740230B43FAE70F69002F4F
:105E1000A2D00A680F60D21B019200229B0700D11A
